{
	"ErrorHandling.sol": {
		"RevertStatement": {
			"abi": [
				{
					"inputs": [
						{
							"internalType": "uint256",
							"name": "_num1",
							"type": "uint256"
						},
						{
							"internalType": "uint256",
							"name": "_num2",
							"type": "uint256"
						}
					],
					"name": "checkOverFlow",
					"outputs": [
						{
							"internalType": "string",
							"name": "",
							"type": "string"
						}
					],
					"stateMutability": "view",
					"type": "function"
				}
			],
			"devdoc": {
				"kind": "dev",
				"methods": {},
				"version": 1
			},
			"evm": {
				"assembly": "    /* \"ErrorHandling.sol\":994:1412  contract RevertStatement{... */\n  mstore(0x40, 0x80)\n  callvalue\n  dup1\n  iszero\n  tag_1\n  jumpi\n  0x00\n  dup1\n  revert\ntag_1:\n  pop\n  dataSize(sub_0)\n  dup1\n  dataOffset(sub_0)\n  0x00\n  codecopy\n  0x00\n  return\nstop\n\nsub_0: assembly {\n        /* \"ErrorHandling.sol\":994:1412  contract RevertStatement{... */\n      mstore(0x40, 0x80)\n      callvalue\n      dup1\n      iszero\n      tag_1\n      jumpi\n      0x00\n      dup1\n      revert\n    tag_1:\n      pop\n      jumpi(tag_2, lt(calldatasize, 0x04))\n      shr(0xe0, calldataload(0x00))\n      dup1\n      0x0bfb0686\n      eq\n      tag_3\n      jumpi\n    tag_2:\n      0x00\n      dup1\n      revert\n        /* \"ErrorHandling.sol\":1129:1409  function checkOverFlow(uint256 _num1, uint256 _num2) public view returns (string memory) {... */\n    tag_3:\n      tag_4\n      0x04\n      dup1\n      calldatasize\n      sub\n      dup2\n      add\n      swap1\n      tag_5\n      swap2\n      swap1\n      tag_6\n      jump\t// in\n    tag_5:\n      tag_7\n      jump\t// in\n    tag_4:\n      mload(0x40)\n      tag_8\n      swap2\n      swap1\n      tag_9\n      jump\t// in\n    tag_8:\n      mload(0x40)\n      dup1\n      swap2\n      sub\n      swap1\n      return\n    tag_7:\n        /* \"ErrorHandling.sol\":1203:1216  string memory */\n      0x60\n        /* \"ErrorHandling.sol\":1229:1240  uint256 sum */\n      0x00\n        /* \"ErrorHandling.sol\":1251:1256  _num2 */\n      dup3\n        /* \"ErrorHandling.sol\":1243:1248  _num1 */\n      dup5\n        /* \"ErrorHandling.sol\":1243:1256  _num1 + _num2 */\n      tag_11\n      swap2\n      swap1\n      tag_12\n      jump\t// in\n    tag_11:\n        /* \"ErrorHandling.sol\":1229:1256  uint256 sum = _num1 + _num2 */\n      swap1\n      pop\n        /* \"ErrorHandling.sol\":1274:1275  0 */\n      0x00\n        /* \"ErrorHandling.sol\":1270:1273  sum */\n      dup2\n        /* \"ErrorHandling.sol\":1270:1275  sum<0 */\n      lt\n        /* \"ErrorHandling.sol\":1270:1286  sum<0 || sum>255 */\n      dup1\n      tag_13\n      jumpi\n      pop\n        /* \"ErrorHandling.sol\":1283:1286  255 */\n      0xff\n        /* \"ErrorHandling.sol\":1279:1282  sum */\n      dup2\n        /* \"ErrorHandling.sol\":1279:1286  sum>255 */\n      gt\n        /* \"ErrorHandling.sol\":1270:1286  sum<0 || sum>255 */\n    tag_13:\n        /* \"ErrorHandling.sol\":1267:1402  if(sum<0 || sum>255) {... */\n      iszero\n      tag_14\n      jumpi\n        /* \"ErrorHandling.sol\":1303:1327  revert(\"Overflow exist\") */\n      mload(0x40)\n      0x08c379a000000000000000000000000000000000000000000000000000000000\n      dup2\n      mstore\n      0x04\n      add\n      tag_15\n      swap1\n      tag_16\n      jump\t// in\n    tag_15:\n      mload(0x40)\n      dup1\n      swap2\n      sub\n      swap1\n      revert\n        /* \"ErrorHandling.sol\":1267:1402  if(sum<0 || sum>255) {... */\n    tag_14:\n        /* \"ErrorHandling.sol\":1361:1390  return \"No overflow is exits\" */\n      mload(0x40)\n      dup1\n      0x40\n      add\n      0x40\n      mstore\n      dup1\n      0x14\n      dup2\n      mstore\n      0x20\n      add\n      0x4e6f206f766572666c6f77206973206578697473000000000000000000000000\n      dup2\n      mstore\n      pop\n      swap2\n      pop\n      pop\n        /* \"ErrorHandling.sol\":1129:1409  function checkOverFlow(uint256 _num1, uint256 _num2) public view returns (string memory) {... */\n      swap3\n      swap2\n      pop\n      pop\n      jump\t// out\n        /* \"#utility.yul\":88:205   */\n    tag_19:\n        /* \"#utility.yul\":197:198   */\n      0x00\n        /* \"#utility.yul\":194:195   */\n      dup1\n        /* \"#utility.yul\":187:199   */\n      revert\n        /* \"#utility.yul\":334:411   */\n    tag_21:\n        /* \"#utility.yul\":371:378   */\n      0x00\n        /* \"#utility.yul\":400:405   */\n      dup2\n        /* \"#utility.yul\":389:405   */\n      swap1\n      pop\n        /* \"#utility.yul\":334:411   */\n      swap2\n      swap1\n      pop\n      jump\t// out\n        /* \"#utility.yul\":417:539   */\n    tag_22:\n        /* \"#utility.yul\":490:514   */\n      tag_38\n        /* \"#utility.yul\":508:513   */\n      dup2\n        /* \"#utility.yul\":490:514   */\n      tag_21\n      jump\t// in\n    tag_38:\n        /* \"#utility.yul\":483:488   */\n      dup2\n        /* \"#utility.yul\":480:515   */\n      eq\n        /* \"#utility.yul\":470:533   */\n      tag_39\n      jumpi\n        /* \"#utility.yul\":529:530   */\n      0x00\n        /* \"#utility.yul\":526:527   */\n      dup1\n        /* \"#utility.yul\":519:531   */\n      revert\n        /* \"#utility.yul\":470:533   */\n    tag_39:\n        /* \"#utility.yul\":417:539   */\n      pop\n      jump\t// out\n        /* \"#utility.yul\":545:684   */\n    tag_23:\n        /* \"#utility.yul\":591:596   */\n      0x00\n        /* \"#utility.yul\":629:635   */\n      dup2\n        /* \"#utility.yul\":616:636   */\n      calldataload\n        /* \"#utility.yul\":607:636   */\n      swap1\n      pop\n        /* \"#utility.yul\":645:678   */\n      tag_41\n        /* \"#utility.yul\":672:677   */\n      dup2\n        /* \"#utility.yul\":645:678   */\n      tag_22\n      jump\t// in\n    tag_41:\n        /* \"#utility.yul\":545:684   */\n      swap3\n      swap2\n      pop\n      pop\n      jump\t// out\n        /* \"#utility.yul\":690:1164   */\n    tag_6:\n        /* \"#utility.yul\":758:764   */\n      0x00\n        /* \"#utility.yul\":766:772   */\n      dup1\n        /* \"#utility.yul\":815:817   */\n      0x40\n        /* \"#utility.yul\":803:812   */\n      dup4\n        /* \"#utility.yul\":794:801   */\n      dup6\n        /* \"#utility.yul\":790:813   */\n      sub\n        /* \"#utility.yul\":786:818   */\n      slt\n        /* \"#utility.yul\":783:902   */\n      iszero\n      tag_43\n      jumpi\n        /* \"#utility.yul\":821:900   */\n      tag_44\n      tag_19\n      jump\t// in\n    tag_44:\n        /* \"#utility.yul\":783:902   */\n    tag_43:\n        /* \"#utility.yul\":941:942   */\n      0x00\n        /* \"#utility.yul\":966:1019   */\n      tag_45\n        /* \"#utility.yul\":1011:1018   */\n      dup6\n        /* \"#utility.yul\":1002:1008   */\n      dup3\n        /* \"#utility.yul\":991:1000   */\n      dup7\n        /* \"#utility.yul\":987:1009   */\n      add\n        /* \"#utility.yul\":966:1019   */\n      tag_23\n      jump\t// in\n    tag_45:\n        /* \"#utility.yul\":956:1019   */\n      swap3\n      pop\n        /* \"#utility.yul\":912:1029   */\n      pop\n        /* \"#utility.yul\":1068:1070   */\n      0x20\n        /* \"#utility.yul\":1094:1147   */\n      tag_46\n        /* \"#utility.yul\":1139:1146   */\n      dup6\n        /* \"#utility.yul\":1130:1136   */\n      dup3\n        /* \"#utility.yul\":1119:1128   */\n      dup7\n        /* \"#utility.yul\":1115:1137   */\n      add\n        /* \"#utility.yul\":1094:1147   */\n      tag_23\n      jump\t// in\n    tag_46:\n        /* \"#utility.yul\":1084:1147   */\n      swap2\n      pop\n        /* \"#utility.yul\":1039:1157   */\n      pop\n        /* \"#utility.yul\":690:1164   */\n      swap3\n      pop\n      swap3\n      swap1\n      pop\n      jump\t// out\n        /* \"#utility.yul\":1170:1269   */\n    tag_24:\n        /* \"#utility.yul\":1222:1228   */\n      0x00\n        /* \"#utility.yul\":1256:1261   */\n      dup2\n        /* \"#utility.yul\":1250:1262   */\n      mload\n        /* \"#utility.yul\":1240:1262   */\n      swap1\n      pop\n        /* \"#utility.yul\":1170:1269   */\n      swap2\n      swap1\n      pop\n      jump\t// out\n        /* \"#utility.yul\":1275:1444   */\n    tag_25:\n        /* \"#utility.yul\":1359:1370   */\n      0x00\n        /* \"#utility.yul\":1393:1399   */\n      dup3\n        /* \"#utility.yul\":1388:1391   */\n      dup3\n        /* \"#utility.yul\":1381:1400   */\n      mstore\n        /* \"#utility.yul\":1433:1437   */\n      0x20\n        /* \"#utility.yul\":1428:1431   */\n      dup3\n        /* \"#utility.yul\":1424:1438   */\n      add\n        /* \"#utility.yul\":1409:1438   */\n      swap1\n      pop\n        /* \"#utility.yul\":1275:1444   */\n      swap3\n      swap2\n      pop\n      pop\n      jump\t// out\n        /* \"#utility.yul\":1450:1589   */\n    tag_26:\n        /* \"#utility.yul\":1539:1545   */\n      dup3\n        /* \"#utility.yul\":1534:1537   */\n      dup2\n        /* \"#utility.yul\":1529:1532   */\n      dup4\n        /* \"#utility.yul\":1523:1546   */\n      mcopy\n        /* \"#utility.yul\":1580:1581   */\n      0x00\n        /* \"#utility.yul\":1571:1577   */\n      dup4\n        /* \"#utility.yul\":1566:1569   */\n      dup4\n        /* \"#utility.yul\":1562:1578   */\n      add\n        /* \"#utility.yul\":1555:1582   */\n      mstore\n        /* \"#utility.yul\":1450:1589   */\n      pop\n      pop\n      pop\n      jump\t// out\n        /* \"#utility.yul\":1595:1697   */\n    tag_27:\n        /* \"#utility.yul\":1636:1642   */\n      0x00\n        /* \"#utility.yul\":1687:1689   */\n      0x1f\n        /* \"#utility.yul\":1683:1690   */\n      not\n        /* \"#utility.yul\":1678:1680   */\n      0x1f\n        /* \"#utility.yul\":1671:1676   */\n      dup4\n        /* \"#utility.yul\":1667:1681   */\n      add\n        /* \"#utility.yul\":1663:1691   */\n      and\n        /* \"#utility.yul\":1653:1691   */\n      swap1\n      pop\n        /* \"#utility.yul\":1595:1697   */\n      swap2\n      swap1\n      pop\n      jump\t// out\n        /* \"#utility.yul\":1703:2080   */\n    tag_28:\n        /* \"#utility.yul\":1791:1794   */\n      0x00\n        /* \"#utility.yul\":1819:1858   */\n      tag_52\n        /* \"#utility.yul\":1852:1857   */\n      dup3\n        /* \"#utility.yul\":1819:1858   */\n      tag_24\n      jump\t// in\n    tag_52:\n        /* \"#utility.yul\":1874:1945   */\n      tag_53\n        /* \"#utility.yul\":1938:1944   */\n      dup2\n        /* \"#utility.yul\":1933:1936   */\n      dup6\n        /* \"#utility.yul\":1874:1945   */\n      tag_25\n      jump\t// in\n    tag_53:\n        /* \"#utility.yul\":1867:1945   */\n      swap4\n      pop\n        /* \"#utility.yul\":1954:2019   */\n      tag_54\n        /* \"#utility.yul\":2012:2018   */\n      dup2\n        /* \"#utility.yul\":2007:2010   */\n      dup6\n        /* \"#utility.yul\":2000:2004   */\n      0x20\n        /* \"#utility.yul\":1993:1998   */\n      dup7\n        /* \"#utility.yul\":1989:2005   */\n      add\n        /* \"#utility.yul\":1954:2019   */\n      tag_26\n      jump\t// in\n    tag_54:\n        /* \"#utility.yul\":2044:2073   */\n      tag_55\n        /* \"#utility.yul\":2066:2072   */\n      dup2\n        /* \"#utility.yul\":2044:2073   */\n      tag_27\n      jump\t// in\n    tag_55:\n        /* \"#utility.yul\":2039:2042   */\n      dup5\n        /* \"#utility.yul\":2035:2074   */\n      add\n        /* \"#utility.yul\":2028:2074   */\n      swap2\n      pop\n        /* \"#utility.yul\":1795:2080   */\n      pop\n        /* \"#utility.yul\":1703:2080   */\n      swap3\n      swap2\n      pop\n      pop\n      jump\t// out\n        /* \"#utility.yul\":2086:2399   */\n    tag_9:\n        /* \"#utility.yul\":2199:2203   */\n      0x00\n        /* \"#utility.yul\":2237:2239   */\n      0x20\n        /* \"#utility.yul\":2226:2235   */\n      dup3\n        /* \"#utility.yul\":2222:2240   */\n      add\n        /* \"#utility.yul\":2214:2240   */\n      swap1\n      pop\n        /* \"#utility.yul\":2286:2295   */\n      dup2\n        /* \"#utility.yul\":2280:2284   */\n      dup2\n        /* \"#utility.yul\":2276:2296   */\n      sub\n        /* \"#utility.yul\":2272:2273   */\n      0x00\n        /* \"#utility.yul\":2261:2270   */\n      dup4\n        /* \"#utility.yul\":2257:2274   */\n      add\n        /* \"#utility.yul\":2250:2297   */\n      mstore\n        /* \"#utility.yul\":2314:2392   */\n      tag_57\n        /* \"#utility.yul\":2387:2391   */\n      dup2\n        /* \"#utility.yul\":2378:2384   */\n      dup5\n        /* \"#utility.yul\":2314:2392   */\n      tag_28\n      jump\t// in\n    tag_57:\n        /* \"#utility.yul\":2306:2392   */\n      swap1\n      pop\n        /* \"#utility.yul\":2086:2399   */\n      swap3\n      swap2\n      pop\n      pop\n      jump\t// out\n        /* \"#utility.yul\":2405:2585   */\n    tag_29:\n        /* \"#utility.yul\":2453:2530   */\n      0x4e487b7100000000000000000000000000000000000000000000000000000000\n        /* \"#utility.yul\":2450:2451   */\n      0x00\n        /* \"#utility.yul\":2443:2531   */\n      mstore\n        /* \"#utility.yul\":2550:2554   */\n      0x11\n        /* \"#utility.yul\":2547:2548   */\n      0x04\n        /* \"#utility.yul\":2540:2555   */\n      mstore\n        /* \"#utility.yul\":2574:2578   */\n      0x24\n        /* \"#utility.yul\":2571:2572   */\n      0x00\n        /* \"#utility.yul\":2564:2579   */\n      revert\n        /* \"#utility.yul\":2591:2782   */\n    tag_12:\n        /* \"#utility.yul\":2631:2634   */\n      0x00\n        /* \"#utility.yul\":2650:2670   */\n      tag_60\n        /* \"#utility.yul\":2668:2669   */\n      dup3\n        /* \"#utility.yul\":2650:2670   */\n      tag_21\n      jump\t// in\n    tag_60:\n        /* \"#utility.yul\":2645:2670   */\n      swap2\n      pop\n        /* \"#utility.yul\":2684:2704   */\n      tag_61\n        /* \"#utility.yul\":2702:2703   */\n      dup4\n        /* \"#utility.yul\":2684:2704   */\n      tag_21\n      jump\t// in\n    tag_61:\n        /* \"#utility.yul\":2679:2704   */\n      swap3\n      pop\n        /* \"#utility.yul\":2727:2728   */\n      dup3\n        /* \"#utility.yul\":2724:2725   */\n      dup3\n        /* \"#utility.yul\":2720:2729   */\n      add\n        /* \"#utility.yul\":2713:2729   */\n      swap1\n      pop\n        /* \"#utility.yul\":2748:2751   */\n      dup1\n        /* \"#utility.yul\":2745:2746   */\n      dup3\n        /* \"#utility.yul\":2742:2752   */\n      gt\n        /* \"#utility.yul\":2739:2775   */\n      iszero\n      tag_62\n      jumpi\n        /* \"#utility.yul\":2755:2773   */\n      tag_63\n      tag_29\n      jump\t// in\n    tag_63:\n        /* \"#utility.yul\":2739:2775   */\n    tag_62:\n        /* \"#utility.yul\":2591:2782   */\n      swap3\n      swap2\n      pop\n      pop\n      jump\t// out\n        /* \"#utility.yul\":2788:2952   */\n    tag_30:\n        /* \"#utility.yul\":2928:2944   */\n      0x4f766572666c6f77206578697374000000000000000000000000000000000000\n        /* \"#utility.yul\":2924:2925   */\n      0x00\n        /* \"#utility.yul\":2916:2922   */\n      dup3\n        /* \"#utility.yul\":2912:2926   */\n      add\n        /* \"#utility.yul\":2905:2945   */\n      mstore\n        /* \"#utility.yul\":2788:2952   */\n      pop\n      jump\t// out\n        /* \"#utility.yul\":2958:3324   */\n    tag_31:\n        /* \"#utility.yul\":3100:3103   */\n      0x00\n        /* \"#utility.yul\":3121:3188   */\n      tag_66\n        /* \"#utility.yul\":3185:3187   */\n      0x0e\n        /* \"#utility.yul\":3180:3183   */\n      dup4\n        /* \"#utility.yul\":3121:3188   */\n      tag_25\n      jump\t// in\n    tag_66:\n        /* \"#utility.yul\":3114:3188   */\n      swap2\n      pop\n        /* \"#utility.yul\":3197:3290   */\n      tag_67\n        /* \"#utility.yul\":3286:3289   */\n      dup3\n        /* \"#utility.yul\":3197:3290   */\n      tag_30\n      jump\t// in\n    tag_67:\n        /* \"#utility.yul\":3315:3317   */\n      0x20\n        /* \"#utility.yul\":3310:3313   */\n      dup3\n        /* \"#utility.yul\":3306:3318   */\n      add\n        /* \"#utility.yul\":3299:3318   */\n      swap1\n      pop\n        /* \"#utility.yul\":2958:3324   */\n      swap2\n      swap1\n      pop\n      jump\t// out\n        /* \"#utility.yul\":3330:3749   */\n    tag_16:\n        /* \"#utility.yul\":3496:3500   */\n      0x00\n        /* \"#utility.yul\":3534:3536   */\n      0x20\n        /* \"#utility.yul\":3523:3532   */\n      dup3\n        /* \"#utility.yul\":3519:3537   */\n      add\n        /* \"#utility.yul\":3511:3537   */\n      swap1\n      pop\n        /* \"#utility.yul\":3583:3592   */\n      dup2\n        /* \"#utility.yul\":3577:3581   */\n      dup2\n        /* \"#utility.yul\":3573:3593   */\n      sub\n        /* \"#utility.yul\":3569:3570   */\n      0x00\n        /* \"#utility.yul\":3558:3567   */\n      dup4\n        /* \"#utility.yul\":3554:3571   */\n      add\n        /* \"#utility.yul\":3547:3594   */\n      mstore\n        /* \"#utility.yul\":3611:3742   */\n      tag_69\n        /* \"#utility.yul\":3737:3741   */\n      dup2\n        /* \"#utility.yul\":3611:3742   */\n      tag_31\n      jump\t// in\n    tag_69:\n        /* \"#utility.yul\":3603:3742   */\n      swap1\n      pop\n        /* \"#utility.yul\":3330:3749   */\n      swap2\n      swap1\n      pop\n      jump\t// out\n\n    auxdata: 0xa2646970667358221220dcc00c2f0b3f737907bca1c8b9d1c774ccb574c1e12941234010592374160e3264736f6c63430008190033\n}\n",
				"bytecode": {
					"linkReferences": {},
					"object": "6080604052348015600e575f80fd5b506102fe8061001c5f395ff3fe608060405234801561000f575f80fd5b5060043610610029575f3560e01c80630bfb06861461002d575b5f80fd5b61004760048036038101906100429190610132565b61005d565b60405161005491906101e0565b60405180910390f35b60605f828461006c919061022d565b90505f81108061007c575060ff81115b156100bc576040517f08c379a00000000000000000000000000000000000000000000000000000000081526004016100b3906102aa565b60405180910390fd5b6040518060400160405280601481526020017f4e6f206f766572666c6f7720697320657869747300000000000000000000000081525091505092915050565b5f80fd5b5f819050919050565b610111816100ff565b811461011b575f80fd5b50565b5f8135905061012c81610108565b92915050565b5f8060408385031215610148576101476100fb565b5b5f6101558582860161011e565b92505060206101668582860161011e565b9150509250929050565b5f81519050919050565b5f82825260208201905092915050565b8281835e5f83830152505050565b5f601f19601f8301169050919050565b5f6101b282610170565b6101bc818561017a565b93506101cc81856020860161018a565b6101d581610198565b840191505092915050565b5f6020820190508181035f8301526101f881846101a8565b905092915050565b7f4e487b71000000000000000000000000000000000000000000000000000000005f52601160045260245ffd5b5f610237826100ff565b9150610242836100ff565b925082820190508082111561025a57610259610200565b5b92915050565b7f4f766572666c6f772065786973740000000000000000000000000000000000005f82015250565b5f610294600e8361017a565b915061029f82610260565b602082019050919050565b5f6020820190508181035f8301526102c181610288565b905091905056fea2646970667358221220dcc00c2f0b3f737907bca1c8b9d1c774ccb574c1e12941234010592374160e3264736f6c63430008190033",
					"opcodes": "PUSH1 0x80 PUSH1 0x40 MSTORE CALLVALUE DUP1 ISZERO PUSH1 0xE JUMPI PUSH0 DUP1 REVERT JUMPDEST POP PUSH2 0x2FE DUP1 PUSH2 0x1C PUSH0 CODECOPY PUSH0 RETURN INVALID PUSH1 0x80 PUSH1 0x40 MSTORE CALLVALUE DUP1 ISZERO PUSH2 0xF JUMPI PUSH0 DUP1 REVERT JUMPDEST POP PUSH1 0x4 CALLDATASIZE LT PUSH2 0x29 JUMPI PUSH0 CALLDATALOAD PUSH1 0xE0 SHR DUP1 PUSH4 0xBFB0686 EQ PUSH2 0x2D JUMPI JUMPDEST PUSH0 DUP1 REVERT JUMPDEST PUSH2 0x47 PUSH1 0x4 DUP1 CALLDATASIZE SUB DUP2 ADD SWAP1 PUSH2 0x42 SWAP2 SWAP1 PUSH2 0x132 JUMP JUMPDEST PUSH2 0x5D JUMP JUMPDEST PUSH1 0x40 MLOAD PUSH2 0x54 SWAP2 SWAP1 PUSH2 0x1E0 JUMP JUMPDEST PUSH1 0x40 MLOAD DUP1 SWAP2 SUB SWAP1 RETURN JUMPDEST PUSH1 0x60 PUSH0 DUP3 DUP5 PUSH2 0x6C SWAP2 SWAP1 PUSH2 0x22D JUMP JUMPDEST SWAP1 POP PUSH0 DUP2 LT DUP1 PUSH2 0x7C JUMPI POP PUSH1 0xFF DUP2 GT JUMPDEST ISZERO PUSH2 0xBC JUMPI PUSH1 0x40 MLOAD PUSH32 0x8C379A000000000000000000000000000000000000000000000000000000000 DUP2 MSTORE PUSH1 0x4 ADD PUSH2 0xB3 SWAP1 PUSH2 0x2AA JUMP JUMPDEST PUSH1 0x40 MLOAD DUP1 SWAP2 SUB SWAP1 REVERT JUMPDEST PUSH1 0x40 MLOAD DUP1 PUSH1 0x40 ADD PUSH1 0x40 MSTORE DUP1 PUSH1 0x14 DUP2 MSTORE PUSH1 0x20 ADD PUSH32 0x4E6F206F766572666C6F77206973206578697473000000000000000000000000 DUP2 MSTORE POP SWAP2 POP POP SWAP3 SWAP2 POP POP JUMP JUMPDEST PUSH0 DUP1 REVERT JUMPDEST PUSH0 DUP2 SWAP1 POP SWAP2 SWAP1 POP JUMP JUMPDEST PUSH2 0x111 DUP2 PUSH2 0xFF JUMP JUMPDEST DUP2 EQ PUSH2 0x11B JUMPI PUSH0 DUP1 REVERT JUMPDEST POP JUMP JUMPDEST PUSH0 DUP2 CALLDATALOAD SWAP1 POP PUSH2 0x12C DUP2 PUSH2 0x108 JUMP JUMPDEST SWAP3 SWAP2 POP POP JUMP JUMPDEST PUSH0 DUP1 PUSH1 0x40 DUP4 DUP6 SUB SLT ISZERO PUSH2 0x148 JUMPI PUSH2 0x147 PUSH2 0xFB JUMP JUMPDEST JUMPDEST PUSH0 PUSH2 0x155 DUP6 DUP3 DUP7 ADD PUSH2 0x11E JUMP JUMPDEST SWAP3 POP POP PUSH1 0x20 PUSH2 0x166 DUP6 DUP3 DUP7 ADD PUSH2 0x11E JUMP JUMPDEST SWAP2 POP POP SWAP3 POP SWAP3 SWAP1 POP JUMP JUMPDEST PUSH0 DUP2 MLOAD SWAP1 POP SWAP2 SWAP1 POP JUMP JUMPDEST PUSH0 DUP3 DUP3 MSTORE PUSH1 0x20 DUP3 ADD SWAP1 POP SWAP3 SWAP2 POP POP JUMP JUMPDEST DUP3 DUP2 DUP4 MCOPY PUSH0 DUP4 DUP4 ADD MSTORE POP POP POP JUMP JUMPDEST PUSH0 PUSH1 0x1F NOT PUSH1 0x1F DUP4 ADD AND SWAP1 POP SWAP2 SWAP1 POP JUMP JUMPDEST PUSH0 PUSH2 0x1B2 DUP3 PUSH2 0x170 JUMP JUMPDEST PUSH2 0x1BC DUP2 DUP6 PUSH2 0x17A JUMP JUMPDEST SWAP4 POP PUSH2 0x1CC DUP2 DUP6 PUSH1 0x20 DUP7 ADD PUSH2 0x18A JUMP JUMPDEST PUSH2 0x1D5 DUP2 PUSH2 0x198 JUMP JUMPDEST DUP5 ADD SWAP2 POP POP SWAP3 SWAP2 POP POP JUMP JUMPDEST PUSH0 PUSH1 0x20 DUP3 ADD SWAP1 POP DUP2 DUP2 SUB PUSH0 DUP4 ADD MSTORE PUSH2 0x1F8 DUP2 DUP5 PUSH2 0x1A8 JUMP JUMPDEST SWAP1 POP SWAP3 SWAP2 POP POP JUMP JUMPDEST PUSH32 0x4E487B7100000000000000000000000000000000000000000000000000000000 PUSH0 MSTORE PUSH1 0x11 PUSH1 0x4 MSTORE PUSH1 0x24 PUSH0 REVERT JUMPDEST PUSH0 PUSH2 0x237 DUP3 PUSH2 0xFF JUMP JUMPDEST SWAP2 POP PUSH2 0x242 DUP4 PUSH2 0xFF JUMP JUMPDEST SWAP3 POP DUP3 DUP3 ADD SWAP1 POP DUP1 DUP3 GT ISZERO PUSH2 0x25A JUMPI PUSH2 0x259 PUSH2 0x200 JUMP JUMPDEST JUMPDEST SWAP3 SWAP2 POP POP JUMP JUMPDEST PUSH32 0x4F766572666C6F77206578697374000000000000000000000000000000000000 PUSH0 DUP3 ADD MSTORE POP JUMP JUMPDEST PUSH0 PUSH2 0x294 PUSH1 0xE DUP4 PUSH2 0x17A JUMP JUMPDEST SWAP2 POP PUSH2 0x29F DUP3 PUSH2 0x260 JUMP JUMPDEST PUSH1 0x20 DUP3 ADD SWAP1 POP SWAP2 SWAP1 POP JUMP JUMPDEST PUSH0 PUSH1 0x20 DUP3 ADD SWAP1 POP DUP2 DUP2 SUB PUSH0 DUP4 ADD MSTORE PUSH2 0x2C1 DUP2 PUSH2 0x288 JUMP JUMPDEST SWAP1 POP SWAP2 SWAP1 POP JUMP INVALID LOG2 PUSH5 0x6970667358 0x22 SLT KECCAK256 0xDC 0xC0 0xC 0x2F SIGNEXTEND EXTCODEHASH PUSH20 0x7907BCA1C8B9D1C774CCB574C1E1294123401059 0x23 PUSH21 0x160E3264736F6C6343000819003300000000000000 "
				},
				"gasEstimates": {
					"creation": {
						"codeDepositCost": "153200",
						"executionCost": "194",
						"totalCost": "153394"
					},
					"external": {
						"checkOverFlow(uint256,uint256)": "infinite"
					}
				},
				"methodIdentifiers": {
					"checkOverFlow(uint256,uint256)": "0bfb0686"
				}
			},
			"storageLayout": {
				"storage": [],
				"types": null
			},
			"userdoc": {
				"kind": "user",
				"methods": {},
				"version": 1
			}
		}
	}
}