{
	"ErrorHandling.sol": {
		"AssertStatement": {
			"abi": [
				{
					"inputs": [
						{
							"internalType": "uint256",
							"name": "_x",
							"type": "uint256"
						},
						{
							"internalType": "uint256",
							"name": "_y",
							"type": "uint256"
						}
					],
					"name": "CheckAssert",
					"outputs": [],
					"stateMutability": "nonpayable",
					"type": "function"
				},
				{
					"inputs": [],
					"name": "getResult",
					"outputs": [
						{
							"internalType": "string",
							"name": "",
							"type": "string"
						}
					],
					"stateMutability": "view",
					"type": "function"
				}
			],
			"devdoc": {
				"kind": "dev",
				"methods": {},
				"version": 1
			},
			"evm": {
				"assembly": "    /* \"ErrorHandling.sol\":509:988  contract AssertStatement {... */\n  mstore(0x40, 0x80)\n  callvalue\n  dup1\n  iszero\n  tag_1\n  jumpi\n  0x00\n  dup1\n  revert\ntag_1:\n  pop\n  dataSize(sub_0)\n  dup1\n  dataOffset(sub_0)\n  0x00\n  codecopy\n  0x00\n  return\nstop\n\nsub_0: assembly {\n        /* \"ErrorHandling.sol\":509:988  contract AssertStatement {... */\n      mstore(0x40, 0x80)\n      callvalue\n      dup1\n      iszero\n      tag_1\n      jumpi\n      0x00\n      dup1\n      revert\n    tag_1:\n      pop\n      jumpi(tag_2, lt(calldatasize, 0x04))\n      shr(0xe0, calldataload(0x00))\n      dup1\n      0xcfd28337\n      eq\n      tag_3\n      jumpi\n      dup1\n      0xde292789\n      eq\n      tag_4\n      jumpi\n    tag_2:\n      0x00\n      dup1\n      revert\n        /* \"ErrorHandling.sol\":629:772  function CheckAssert(uint256 _x, uint256 _y) public {... */\n    tag_3:\n      tag_5\n      0x04\n      dup1\n      calldatasize\n      sub\n      dup2\n      add\n      swap1\n      tag_6\n      swap2\n      swap1\n      tag_7\n      jump\t// in\n    tag_6:\n      tag_8\n      jump\t// in\n    tag_5:\n      stop\n        /* \"ErrorHandling.sol\":780:984  function getResult() public view returns (string memory) {... */\n    tag_4:\n      tag_9\n      tag_10\n      jump\t// in\n    tag_9:\n      mload(0x40)\n      tag_11\n      swap2\n      swap1\n      tag_12\n      jump\t// in\n    tag_11:\n      mload(0x40)\n      dup1\n      swap2\n      sub\n      swap1\n      return\n        /* \"ErrorHandling.sol\":629:772  function CheckAssert(uint256 _x, uint256 _y) public {... */\n    tag_8:\n        /* \"ErrorHandling.sol\":691:702  uint256 sum */\n      0x00\n        /* \"ErrorHandling.sol\":711:714  245 */\n      0xf5\n        /* \"ErrorHandling.sol\":708:710  _y */\n      dup3\n        /* \"ErrorHandling.sol\":705:707  _x */\n      dup5\n        /* \"ErrorHandling.sol\":705:710  _x*_y */\n      tag_14\n      swap2\n      swap1\n      tag_15\n      jump\t// in\n    tag_14:\n        /* \"ErrorHandling.sol\":705:714  _x*_y-245 */\n      tag_16\n      swap2\n      swap1\n      tag_17\n      jump\t// in\n    tag_16:\n        /* \"ErrorHandling.sol\":691:714  uint256 sum = _x*_y-245 */\n      swap1\n      pop\n        /* \"ErrorHandling.sol\":737:740  250 */\n      0xfa\n        /* \"ErrorHandling.sol\":732:735  sum */\n      dup2\n        /* \"ErrorHandling.sol\":732:740  sum<=250 */\n      gt\n      iszero\n        /* \"ErrorHandling.sol\":725:741  assert(sum<=250) */\n      tag_18\n      jumpi\n      tag_19\n      tag_20\n      jump\t// in\n    tag_19:\n    tag_18:\n        /* \"ErrorHandling.sol\":760:764  true */\n      0x01\n        /* \"ErrorHandling.sol\":751:757  result */\n      0x00\n      dup1\n        /* \"ErrorHandling.sol\":751:764  result = true */\n      0x0100\n      exp\n      dup2\n      sload\n      dup2\n      0xff\n      mul\n      not\n      and\n      swap1\n      dup4\n      iszero\n      iszero\n      mul\n      or\n      swap1\n      sstore\n      pop\n        /* \"ErrorHandling.sol\":681:772  {... */\n      pop\n        /* \"ErrorHandling.sol\":629:772  function CheckAssert(uint256 _x, uint256 _y) public {... */\n      pop\n      pop\n      jump\t// out\n        /* \"ErrorHandling.sol\":780:984  function getResult() public view returns (string memory) {... */\n    tag_10:\n        /* \"ErrorHandling.sol\":822:835  string memory */\n      0x60\n        /* \"ErrorHandling.sol\":859:863  true */\n      0x01\n        /* \"ErrorHandling.sol\":851:863  result==true */\n      iszero\n      iszero\n        /* \"ErrorHandling.sol\":851:857  result */\n      0x00\n      dup1\n      sload\n      swap1\n      0x0100\n      exp\n      swap1\n      div\n      0xff\n      and\n        /* \"ErrorHandling.sol\":851:863  result==true */\n      iszero\n      iszero\n      sub\n        /* \"ErrorHandling.sol\":848:977  if(result==true) {... */\n      tag_22\n      jumpi\n        /* \"ErrorHandling.sol\":880:911  return \"the result is overflow\" */\n      mload(0x40)\n      dup1\n      0x40\n      add\n      0x40\n      mstore\n      dup1\n      0x16\n      dup2\n      mstore\n      0x20\n      add\n      0x74686520726573756c74206973206f766572666c6f7700000000000000000000\n      dup2\n      mstore\n      pop\n      swap1\n      pop\n      jump(tag_21)\n        /* \"ErrorHandling.sol\":848:977  if(result==true) {... */\n    tag_22:\n        /* \"ErrorHandling.sol\":944:965  return  \"No overfolw\" */\n      mload(0x40)\n      dup1\n      0x40\n      add\n      0x40\n      mstore\n      dup1\n      0x0b\n      dup2\n      mstore\n      0x20\n      add\n      0x4e6f206f766572666f6c77000000000000000000000000000000000000000000\n      dup2\n      mstore\n      pop\n      swap1\n      pop\n        /* \"ErrorHandling.sol\":780:984  function getResult() public view returns (string memory) {... */\n    tag_21:\n      swap1\n      jump\t// out\n        /* \"#utility.yul\":88:205   */\n    tag_25:\n        /* \"#utility.yul\":197:198   */\n      0x00\n        /* \"#utility.yul\":194:195   */\n      dup1\n        /* \"#utility.yul\":187:199   */\n      revert\n        /* \"#utility.yul\":334:411   */\n    tag_27:\n        /* \"#utility.yul\":371:378   */\n      0x00\n        /* \"#utility.yul\":400:405   */\n      dup2\n        /* \"#utility.yul\":389:405   */\n      swap1\n      pop\n        /* \"#utility.yul\":334:411   */\n      swap2\n      swap1\n      pop\n      jump\t// out\n        /* \"#utility.yul\":417:539   */\n    tag_28:\n        /* \"#utility.yul\":490:514   */\n      tag_42\n        /* \"#utility.yul\":508:513   */\n      dup2\n        /* \"#utility.yul\":490:514   */\n      tag_27\n      jump\t// in\n    tag_42:\n        /* \"#utility.yul\":483:488   */\n      dup2\n        /* \"#utility.yul\":480:515   */\n      eq\n        /* \"#utility.yul\":470:533   */\n      tag_43\n      jumpi\n        /* \"#utility.yul\":529:530   */\n      0x00\n        /* \"#utility.yul\":526:527   */\n      dup1\n        /* \"#utility.yul\":519:531   */\n      revert\n        /* \"#utility.yul\":470:533   */\n    tag_43:\n        /* \"#utility.yul\":417:539   */\n      pop\n      jump\t// out\n        /* \"#utility.yul\":545:684   */\n    tag_29:\n        /* \"#utility.yul\":591:596   */\n      0x00\n        /* \"#utility.yul\":629:635   */\n      dup2\n        /* \"#utility.yul\":616:636   */\n      calldataload\n        /* \"#utility.yul\":607:636   */\n      swap1\n      pop\n        /* \"#utility.yul\":645:678   */\n      tag_45\n        /* \"#utility.yul\":672:677   */\n      dup2\n        /* \"#utility.yul\":645:678   */\n      tag_28\n      jump\t// in\n    tag_45:\n        /* \"#utility.yul\":545:684   */\n      swap3\n      swap2\n      pop\n      pop\n      jump\t// out\n        /* \"#utility.yul\":690:1164   */\n    tag_7:\n        /* \"#utility.yul\":758:764   */\n      0x00\n        /* \"#utility.yul\":766:772   */\n      dup1\n        /* \"#utility.yul\":815:817   */\n      0x40\n        /* \"#utility.yul\":803:812   */\n      dup4\n        /* \"#utility.yul\":794:801   */\n      dup6\n        /* \"#utility.yul\":790:813   */\n      sub\n        /* \"#utility.yul\":786:818   */\n      slt\n        /* \"#utility.yul\":783:902   */\n      iszero\n      tag_47\n      jumpi\n        /* \"#utility.yul\":821:900   */\n      tag_48\n      tag_25\n      jump\t// in\n    tag_48:\n        /* \"#utility.yul\":783:902   */\n    tag_47:\n        /* \"#utility.yul\":941:942   */\n      0x00\n        /* \"#utility.yul\":966:1019   */\n      tag_49\n        /* \"#utility.yul\":1011:1018   */\n      dup6\n        /* \"#utility.yul\":1002:1008   */\n      dup3\n        /* \"#utility.yul\":991:1000   */\n      dup7\n        /* \"#utility.yul\":987:1009   */\n      add\n        /* \"#utility.yul\":966:1019   */\n      tag_29\n      jump\t// in\n    tag_49:\n        /* \"#utility.yul\":956:1019   */\n      swap3\n      pop\n        /* \"#utility.yul\":912:1029   */\n      pop\n        /* \"#utility.yul\":1068:1070   */\n      0x20\n        /* \"#utility.yul\":1094:1147   */\n      tag_50\n        /* \"#utility.yul\":1139:1146   */\n      dup6\n        /* \"#utility.yul\":1130:1136   */\n      dup3\n        /* \"#utility.yul\":1119:1128   */\n      dup7\n        /* \"#utility.yul\":1115:1137   */\n      add\n        /* \"#utility.yul\":1094:1147   */\n      tag_29\n      jump\t// in\n    tag_50:\n        /* \"#utility.yul\":1084:1147   */\n      swap2\n      pop\n        /* \"#utility.yul\":1039:1157   */\n      pop\n        /* \"#utility.yul\":690:1164   */\n      swap3\n      pop\n      swap3\n      swap1\n      pop\n      jump\t// out\n        /* \"#utility.yul\":1170:1269   */\n    tag_30:\n        /* \"#utility.yul\":1222:1228   */\n      0x00\n        /* \"#utility.yul\":1256:1261   */\n      dup2\n        /* \"#utility.yul\":1250:1262   */\n      mload\n        /* \"#utility.yul\":1240:1262   */\n      swap1\n      pop\n        /* \"#utility.yul\":1170:1269   */\n      swap2\n      swap1\n      pop\n      jump\t// out\n        /* \"#utility.yul\":1275:1444   */\n    tag_31:\n        /* \"#utility.yul\":1359:1370   */\n      0x00\n        /* \"#utility.yul\":1393:1399   */\n      dup3\n        /* \"#utility.yul\":1388:1391   */\n      dup3\n        /* \"#utility.yul\":1381:1400   */\n      mstore\n        /* \"#utility.yul\":1433:1437   */\n      0x20\n        /* \"#utility.yul\":1428:1431   */\n      dup3\n        /* \"#utility.yul\":1424:1438   */\n      add\n        /* \"#utility.yul\":1409:1438   */\n      swap1\n      pop\n        /* \"#utility.yul\":1275:1444   */\n      swap3\n      swap2\n      pop\n      pop\n      jump\t// out\n        /* \"#utility.yul\":1450:1589   */\n    tag_32:\n        /* \"#utility.yul\":1539:1545   */\n      dup3\n        /* \"#utility.yul\":1534:1537   */\n      dup2\n        /* \"#utility.yul\":1529:1532   */\n      dup4\n        /* \"#utility.yul\":1523:1546   */\n      mcopy\n        /* \"#utility.yul\":1580:1581   */\n      0x00\n        /* \"#utility.yul\":1571:1577   */\n      dup4\n        /* \"#utility.yul\":1566:1569   */\n      dup4\n        /* \"#utility.yul\":1562:1578   */\n      add\n        /* \"#utility.yul\":1555:1582   */\n      mstore\n        /* \"#utility.yul\":1450:1589   */\n      pop\n      pop\n      pop\n      jump\t// out\n        /* \"#utility.yul\":1595:1697   */\n    tag_33:\n        /* \"#utility.yul\":1636:1642   */\n      0x00\n        /* \"#utility.yul\":1687:1689   */\n      0x1f\n        /* \"#utility.yul\":1683:1690   */\n      not\n        /* \"#utility.yul\":1678:1680   */\n      0x1f\n        /* \"#utility.yul\":1671:1676   */\n      dup4\n        /* \"#utility.yul\":1667:1681   */\n      add\n        /* \"#utility.yul\":1663:1691   */\n      and\n        /* \"#utility.yul\":1653:1691   */\n      swap1\n      pop\n        /* \"#utility.yul\":1595:1697   */\n      swap2\n      swap1\n      pop\n      jump\t// out\n        /* \"#utility.yul\":1703:2080   */\n    tag_34:\n        /* \"#utility.yul\":1791:1794   */\n      0x00\n        /* \"#utility.yul\":1819:1858   */\n      tag_56\n        /* \"#utility.yul\":1852:1857   */\n      dup3\n        /* \"#utility.yul\":1819:1858   */\n      tag_30\n      jump\t// in\n    tag_56:\n        /* \"#utility.yul\":1874:1945   */\n      tag_57\n        /* \"#utility.yul\":1938:1944   */\n      dup2\n        /* \"#utility.yul\":1933:1936   */\n      dup6\n        /* \"#utility.yul\":1874:1945   */\n      tag_31\n      jump\t// in\n    tag_57:\n        /* \"#utility.yul\":1867:1945   */\n      swap4\n      pop\n        /* \"#utility.yul\":1954:2019   */\n      tag_58\n        /* \"#utility.yul\":2012:2018   */\n      dup2\n        /* \"#utility.yul\":2007:2010   */\n      dup6\n        /* \"#utility.yul\":2000:2004   */\n      0x20\n        /* \"#utility.yul\":1993:1998   */\n      dup7\n        /* \"#utility.yul\":1989:2005   */\n      add\n        /* \"#utility.yul\":1954:2019   */\n      tag_32\n      jump\t// in\n    tag_58:\n        /* \"#utility.yul\":2044:2073   */\n      tag_59\n        /* \"#utility.yul\":2066:2072   */\n      dup2\n        /* \"#utility.yul\":2044:2073   */\n      tag_33\n      jump\t// in\n    tag_59:\n        /* \"#utility.yul\":2039:2042   */\n      dup5\n        /* \"#utility.yul\":2035:2074   */\n      add\n        /* \"#utility.yul\":2028:2074   */\n      swap2\n      pop\n        /* \"#utility.yul\":1795:2080   */\n      pop\n        /* \"#utility.yul\":1703:2080   */\n      swap3\n      swap2\n      pop\n      pop\n      jump\t// out\n        /* \"#utility.yul\":2086:2399   */\n    tag_12:\n        /* \"#utility.yul\":2199:2203   */\n      0x00\n        /* \"#utility.yul\":2237:2239   */\n      0x20\n        /* \"#utility.yul\":2226:2235   */\n      dup3\n        /* \"#utility.yul\":2222:2240   */\n      add\n        /* \"#utility.yul\":2214:2240   */\n      swap1\n      pop\n        /* \"#utility.yul\":2286:2295   */\n      dup2\n        /* \"#utility.yul\":2280:2284   */\n      dup2\n        /* \"#utility.yul\":2276:2296   */\n      sub\n        /* \"#utility.yul\":2272:2273   */\n      0x00\n        /* \"#utility.yul\":2261:2270   */\n      dup4\n        /* \"#utility.yul\":2257:2274   */\n      add\n        /* \"#utility.yul\":2250:2297   */\n      mstore\n        /* \"#utility.yul\":2314:2392   */\n      tag_61\n        /* \"#utility.yul\":2387:2391   */\n      dup2\n        /* \"#utility.yul\":2378:2384   */\n      dup5\n        /* \"#utility.yul\":2314:2392   */\n      tag_34\n      jump\t// in\n    tag_61:\n        /* \"#utility.yul\":2306:2392   */\n      swap1\n      pop\n        /* \"#utility.yul\":2086:2399   */\n      swap3\n      swap2\n      pop\n      pop\n      jump\t// out\n        /* \"#utility.yul\":2405:2585   */\n    tag_35:\n        /* \"#utility.yul\":2453:2530   */\n      0x4e487b7100000000000000000000000000000000000000000000000000000000\n        /* \"#utility.yul\":2450:2451   */\n      0x00\n        /* \"#utility.yul\":2443:2531   */\n      mstore\n        /* \"#utility.yul\":2550:2554   */\n      0x11\n        /* \"#utility.yul\":2547:2548   */\n      0x04\n        /* \"#utility.yul\":2540:2555   */\n      mstore\n        /* \"#utility.yul\":2574:2578   */\n      0x24\n        /* \"#utility.yul\":2571:2572   */\n      0x00\n        /* \"#utility.yul\":2564:2579   */\n      revert\n        /* \"#utility.yul\":2591:3001   */\n    tag_15:\n        /* \"#utility.yul\":2631:2638   */\n      0x00\n        /* \"#utility.yul\":2654:2674   */\n      tag_64\n        /* \"#utility.yul\":2672:2673   */\n      dup3\n        /* \"#utility.yul\":2654:2674   */\n      tag_27\n      jump\t// in\n    tag_64:\n        /* \"#utility.yul\":2649:2674   */\n      swap2\n      pop\n        /* \"#utility.yul\":2688:2708   */\n      tag_65\n        /* \"#utility.yul\":2706:2707   */\n      dup4\n        /* \"#utility.yul\":2688:2708   */\n      tag_27\n      jump\t// in\n    tag_65:\n        /* \"#utility.yul\":2683:2708   */\n      swap3\n      pop\n        /* \"#utility.yul\":2743:2744   */\n      dup3\n        /* \"#utility.yul\":2740:2741   */\n      dup3\n        /* \"#utility.yul\":2736:2745   */\n      mul\n        /* \"#utility.yul\":2765:2795   */\n      tag_66\n        /* \"#utility.yul\":2783:2794   */\n      dup2\n        /* \"#utility.yul\":2765:2795   */\n      tag_27\n      jump\t// in\n    tag_66:\n        /* \"#utility.yul\":2754:2795   */\n      swap2\n      pop\n        /* \"#utility.yul\":2944:2945   */\n      dup3\n        /* \"#utility.yul\":2935:2942   */\n      dup3\n        /* \"#utility.yul\":2931:2946   */\n      div\n        /* \"#utility.yul\":2928:2929   */\n      dup5\n        /* \"#utility.yul\":2925:2947   */\n      eq\n        /* \"#utility.yul\":2905:2906   */\n      dup4\n        /* \"#utility.yul\":2898:2907   */\n      iszero\n        /* \"#utility.yul\":2878:2961   */\n      or\n        /* \"#utility.yul\":2855:2994   */\n      tag_67\n      jumpi\n        /* \"#utility.yul\":2974:2992   */\n      tag_68\n      tag_35\n      jump\t// in\n    tag_68:\n        /* \"#utility.yul\":2855:2994   */\n    tag_67:\n        /* \"#utility.yul\":2639:3001   */\n      pop\n        /* \"#utility.yul\":2591:3001   */\n      swap3\n      swap2\n      pop\n      pop\n      jump\t// out\n        /* \"#utility.yul\":3007:3201   */\n    tag_17:\n        /* \"#utility.yul\":3047:3051   */\n      0x00\n        /* \"#utility.yul\":3067:3087   */\n      tag_70\n        /* \"#utility.yul\":3085:3086   */\n      dup3\n        /* \"#utility.yul\":3067:3087   */\n      tag_27\n      jump\t// in\n    tag_70:\n        /* \"#utility.yul\":3062:3087   */\n      swap2\n      pop\n        /* \"#utility.yul\":3101:3121   */\n      tag_71\n        /* \"#utility.yul\":3119:3120   */\n      dup4\n        /* \"#utility.yul\":3101:3121   */\n      tag_27\n      jump\t// in\n    tag_71:\n        /* \"#utility.yul\":3096:3121   */\n      swap3\n      pop\n        /* \"#utility.yul\":3145:3146   */\n      dup3\n        /* \"#utility.yul\":3142:3143   */\n      dup3\n        /* \"#utility.yul\":3138:3147   */\n      sub\n        /* \"#utility.yul\":3130:3147   */\n      swap1\n      pop\n        /* \"#utility.yul\":3169:3170   */\n      dup2\n        /* \"#utility.yul\":3163:3167   */\n      dup2\n        /* \"#utility.yul\":3160:3171   */\n      gt\n        /* \"#utility.yul\":3157:3194   */\n      iszero\n      tag_72\n      jumpi\n        /* \"#utility.yul\":3174:3192   */\n      tag_73\n      tag_35\n      jump\t// in\n    tag_73:\n        /* \"#utility.yul\":3157:3194   */\n    tag_72:\n        /* \"#utility.yul\":3007:3201   */\n      swap3\n      swap2\n      pop\n      pop\n      jump\t// out\n        /* \"#utility.yul\":3207:3387   */\n    tag_20:\n        /* \"#utility.yul\":3255:3332   */\n      0x4e487b7100000000000000000000000000000000000000000000000000000000\n        /* \"#utility.yul\":3252:3253   */\n      0x00\n        /* \"#utility.yul\":3245:3333   */\n      mstore\n        /* \"#utility.yul\":3352:3356   */\n      0x01\n        /* \"#utility.yul\":3349:3350   */\n      0x04\n        /* \"#utility.yul\":3342:3357   */\n      mstore\n        /* \"#utility.yul\":3376:3380   */\n      0x24\n        /* \"#utility.yul\":3373:3374   */\n      0x00\n        /* \"#utility.yul\":3366:3381   */\n      revert\n\n    auxdata: 0xa26469706673582212204ec0475fa478e01751339fae219be87a87ddcc772c1565e010eff0e31ab3829964736f6c63430008190033\n}\n",
				"bytecode": {
					"linkReferences": {},
					"object": "6080604052348015600e575f80fd5b506103598061001c5f395ff3fe608060405234801561000f575f80fd5b5060043610610034575f3560e01c8063cfd2833714610038578063de29278914610054575b5f80fd5b610052600480360381019061004d9190610187565b610072565b005b61005c6100bd565b6040516100699190610235565b60405180910390f35b5f60f582846100819190610282565b61008b91906102c3565b905060fa81111561009f5761009e6102f6565b5b60015f806101000a81548160ff021916908315150217905550505050565b6060600115155f8054906101000a900460ff16151503610114576040518060400160405280601681526020017f74686520726573756c74206973206f766572666c6f7700000000000000000000815250905061014d565b6040518060400160405280600b81526020017f4e6f206f766572666f6c7700000000000000000000000000000000000000000081525090505b90565b5f80fd5b5f819050919050565b61016681610154565b8114610170575f80fd5b50565b5f813590506101818161015d565b92915050565b5f806040838503121561019d5761019c610150565b5b5f6101aa85828601610173565b92505060206101bb85828601610173565b9150509250929050565b5f81519050919050565b5f82825260208201905092915050565b8281835e5f83830152505050565b5f601f19601f8301169050919050565b5f610207826101c5565b61021181856101cf565b93506102218185602086016101df565b61022a816101ed565b840191505092915050565b5f6020820190508181035f83015261024d81846101fd565b905092915050565b7f4e487b71000000000000000000000000000000000000000000000000000000005f52601160045260245ffd5b5f61028c82610154565b915061029783610154565b92508282026102a581610154565b915082820484148315176102bc576102bb610255565b5b5092915050565b5f6102cd82610154565b91506102d883610154565b92508282039050818111156102f0576102ef610255565b5b92915050565b7f4e487b71000000000000000000000000000000000000000000000000000000005f52600160045260245ffdfea26469706673582212204ec0475fa478e01751339fae219be87a87ddcc772c1565e010eff0e31ab3829964736f6c63430008190033",
					"opcodes": "PUSH1 0x80 PUSH1 0x40 MSTORE CALLVALUE DUP1 ISZERO PUSH1 0xE JUMPI PUSH0 DUP1 REVERT JUMPDEST POP PUSH2 0x359 DUP1 PUSH2 0x1C PUSH0 CODECOPY PUSH0 RETURN INVALID PUSH1 0x80 PUSH1 0x40 MSTORE CALLVALUE DUP1 ISZERO PUSH2 0xF JUMPI PUSH0 DUP1 REVERT JUMPDEST POP PUSH1 0x4 CALLDATASIZE LT PUSH2 0x34 JUMPI PUSH0 CALLDATALOAD PUSH1 0xE0 SHR DUP1 PUSH4 0xCFD28337 EQ PUSH2 0x38 JUMPI DUP1 PUSH4 0xDE292789 EQ PUSH2 0x54 JUMPI JUMPDEST PUSH0 DUP1 REVERT JUMPDEST PUSH2 0x52 PUSH1 0x4 DUP1 CALLDATASIZE SUB DUP2 ADD SWAP1 PUSH2 0x4D SWAP2 SWAP1 PUSH2 0x187 JUMP JUMPDEST PUSH2 0x72 JUMP JUMPDEST STOP JUMPDEST PUSH2 0x5C PUSH2 0xBD JUMP JUMPDEST PUSH1 0x40 MLOAD PUSH2 0x69 SWAP2 SWAP1 PUSH2 0x235 JUMP JUMPDEST PUSH1 0x40 MLOAD DUP1 SWAP2 SUB SWAP1 RETURN JUMPDEST PUSH0 PUSH1 0xF5 DUP3 DUP5 PUSH2 0x81 SWAP2 SWAP1 PUSH2 0x282 JUMP JUMPDEST PUSH2 0x8B SWAP2 SWAP1 PUSH2 0x2C3 JUMP JUMPDEST SWAP1 POP PUSH1 0xFA DUP2 GT ISZERO PUSH2 0x9F JUMPI PUSH2 0x9E PUSH2 0x2F6 JUMP JUMPDEST JUMPDEST PUSH1 0x1 PUSH0 DUP1 PUSH2 0x100 EXP DUP2 SLOAD DUP2 PUSH1 0xFF MUL NOT AND SWAP1 DUP4 ISZERO ISZERO MUL OR SWAP1 SSTORE POP POP POP POP JUMP JUMPDEST PUSH1 0x60 PUSH1 0x1 ISZERO ISZERO PUSH0 DUP1 SLOAD SWAP1 PUSH2 0x100 EXP SWAP1 DIV PUSH1 0xFF AND ISZERO ISZERO SUB PUSH2 0x114 JUMPI PUSH1 0x40 MLOAD DUP1 PUSH1 0x40 ADD PUSH1 0x40 MSTORE DUP1 PUSH1 0x16 DUP2 MSTORE PUSH1 0x20 ADD PUSH32 0x74686520726573756C74206973206F766572666C6F7700000000000000000000 DUP2 MSTORE POP SWAP1 POP PUSH2 0x14D JUMP JUMPDEST PUSH1 0x40 MLOAD DUP1 PUSH1 0x40 ADD PUSH1 0x40 MSTORE DUP1 PUSH1 0xB DUP2 MSTORE PUSH1 0x20 ADD PUSH32 0x4E6F206F766572666F6C77000000000000000000000000000000000000000000 DUP2 MSTORE POP SWAP1 POP JUMPDEST SWAP1 JUMP JUMPDEST PUSH0 DUP1 REVERT JUMPDEST PUSH0 DUP2 SWAP1 POP SWAP2 SWAP1 POP JUMP JUMPDEST PUSH2 0x166 DUP2 PUSH2 0x154 JUMP JUMPDEST DUP2 EQ PUSH2 0x170 JUMPI PUSH0 DUP1 REVERT JUMPDEST POP JUMP JUMPDEST PUSH0 DUP2 CALLDATALOAD SWAP1 POP PUSH2 0x181 DUP2 PUSH2 0x15D JUMP JUMPDEST SWAP3 SWAP2 POP POP JUMP JUMPDEST PUSH0 DUP1 PUSH1 0x40 DUP4 DUP6 SUB SLT ISZERO PUSH2 0x19D JUMPI PUSH2 0x19C PUSH2 0x150 JUMP JUMPDEST JUMPDEST PUSH0 PUSH2 0x1AA DUP6 DUP3 DUP7 ADD PUSH2 0x173 JUMP JUMPDEST SWAP3 POP POP PUSH1 0x20 PUSH2 0x1BB DUP6 DUP3 DUP7 ADD PUSH2 0x173 JUMP JUMPDEST SWAP2 POP POP SWAP3 POP SWAP3 SWAP1 POP JUMP JUMPDEST PUSH0 DUP2 MLOAD SWAP1 POP SWAP2 SWAP1 POP JUMP JUMPDEST PUSH0 DUP3 DUP3 MSTORE PUSH1 0x20 DUP3 ADD SWAP1 POP SWAP3 SWAP2 POP POP JUMP JUMPDEST DUP3 DUP2 DUP4 MCOPY PUSH0 DUP4 DUP4 ADD MSTORE POP POP POP JUMP JUMPDEST PUSH0 PUSH1 0x1F NOT PUSH1 0x1F DUP4 ADD AND SWAP1 POP SWAP2 SWAP1 POP JUMP JUMPDEST PUSH0 PUSH2 0x207 DUP3 PUSH2 0x1C5 JUMP JUMPDEST PUSH2 0x211 DUP2 DUP6 PUSH2 0x1CF JUMP JUMPDEST SWAP4 POP PUSH2 0x221 DUP2 DUP6 PUSH1 0x20 DUP7 ADD PUSH2 0x1DF JUMP JUMPDEST PUSH2 0x22A DUP2 PUSH2 0x1ED JUMP JUMPDEST DUP5 ADD SWAP2 POP POP SWAP3 SWAP2 POP POP JUMP JUMPDEST PUSH0 PUSH1 0x20 DUP3 ADD SWAP1 POP DUP2 DUP2 SUB PUSH0 DUP4 ADD MSTORE PUSH2 0x24D DUP2 DUP5 PUSH2 0x1FD JUMP JUMPDEST SWAP1 POP SWAP3 SWAP2 POP POP JUMP JUMPDEST PUSH32 0x4E487B7100000000000000000000000000000000000000000000000000000000 PUSH0 MSTORE PUSH1 0x11 PUSH1 0x4 MSTORE PUSH1 0x24 PUSH0 REVERT JUMPDEST PUSH0 PUSH2 0x28C DUP3 PUSH2 0x154 JUMP JUMPDEST SWAP2 POP PUSH2 0x297 DUP4 PUSH2 0x154 JUMP JUMPDEST SWAP3 POP DUP3 DUP3 MUL PUSH2 0x2A5 DUP2 PUSH2 0x154 JUMP JUMPDEST SWAP2 POP DUP3 DUP3 DIV DUP5 EQ DUP4 ISZERO OR PUSH2 0x2BC JUMPI PUSH2 0x2BB PUSH2 0x255 JUMP JUMPDEST JUMPDEST POP SWAP3 SWAP2 POP POP JUMP JUMPDEST PUSH0 PUSH2 0x2CD DUP3 PUSH2 0x154 JUMP JUMPDEST SWAP2 POP PUSH2 0x2D8 DUP4 PUSH2 0x154 JUMP JUMPDEST SWAP3 POP DUP3 DUP3 SUB SWAP1 POP DUP2 DUP2 GT ISZERO PUSH2 0x2F0 JUMPI PUSH2 0x2EF PUSH2 0x255 JUMP JUMPDEST JUMPDEST SWAP3 SWAP2 POP POP JUMP JUMPDEST PUSH32 0x4E487B7100000000000000000000000000000000000000000000000000000000 PUSH0 MSTORE PUSH1 0x1 PUSH1 0x4 MSTORE PUSH1 0x24 PUSH0 REVERT INVALID LOG2 PUSH5 0x6970667358 0x22 SLT KECCAK256 0x4E 0xC0 SELFBALANCE PUSH0 LOG4 PUSH25 0xE01751339FAE219BE87A87DDCC772C1565E010EFF0E31AB382 SWAP10 PUSH5 0x736F6C6343 STOP ADDMOD NOT STOP CALLER "
				},
				"gasEstimates": {
					"creation": {
						"codeDepositCost": "171400",
						"executionCost": "212",
						"totalCost": "171612"
					},
					"external": {
						"CheckAssert(uint256,uint256)": "infinite",
						"getResult()": "infinite"
					}
				},
				"methodIdentifiers": {
					"CheckAssert(uint256,uint256)": "cfd28337",
					"getResult()": "de292789"
				}
			},
			"storageLayout": {
				"storage": [
					{
						"astId": 46,
						"contract": "ErrorHandling.sol:AssertStatement",
						"label": "result",
						"offset": 0,
						"slot": "0",
						"type": "t_bool"
					}
				],
				"types": {
					"t_bool": {
						"encoding": "inplace",
						"label": "bool",
						"numberOfBytes": "1"
					}
				}
			},
			"userdoc": {
				"kind": "user",
				"methods": {},
				"version": 1
			}
		}
	}
}