{
	"Array.sol": {
		"ArrayRemoveLastElement": {
			"abi": [
				{
					"inputs": [
						{
							"internalType": "uint256",
							"name": "",
							"type": "uint256"
						}
					],
					"name": "arr",
					"outputs": [
						{
							"internalType": "uint256",
							"name": "",
							"type": "uint256"
						}
					],
					"stateMutability": "view",
					"type": "function"
				},
				{
					"inputs": [
						{
							"internalType": "uint256",
							"name": "index",
							"type": "uint256"
						}
					],
					"name": "remove",
					"outputs": [],
					"stateMutability": "nonpayable",
					"type": "function"
				},
				{
					"inputs": [],
					"name": "test",
					"outputs": [],
					"stateMutability": "nonpayable",
					"type": "function"
				}
			],
			"devdoc": {
				"kind": "dev",
				"methods": {},
				"version": 1
			},
			"evm": {
				"assembly": "    /* \"Array.sol\":2253:2947  contract ArrayRemoveLastElement{ ... */\n  mstore(0x40, 0x80)\n  callvalue\n  dup1\n  iszero\n  tag_1\n  jumpi\n  0x00\n  dup1\n  revert\ntag_1:\n  pop\n  dataSize(sub_0)\n  dup1\n  dataOffset(sub_0)\n  0x00\n  codecopy\n  0x00\n  return\nstop\n\nsub_0: assembly {\n        /* \"Array.sol\":2253:2947  contract ArrayRemoveLastElement{ ... */\n      mstore(0x40, 0x80)\n      callvalue\n      dup1\n      iszero\n      tag_1\n      jumpi\n      0x00\n      dup1\n      revert\n    tag_1:\n      pop\n      jumpi(tag_2, lt(calldatasize, 0x04))\n      shr(0xe0, calldataload(0x00))\n      dup1\n      0x4cc82215\n      eq\n      tag_3\n      jumpi\n      dup1\n      0x71e5ee5f\n      eq\n      tag_4\n      jumpi\n      dup1\n      0xf8a8fd6d\n      eq\n      tag_5\n      jumpi\n    tag_2:\n      0x00\n      dup1\n      revert\n        /* \"Array.sol\":2318:2421  function remove(uint index) public {... */\n    tag_3:\n      tag_6\n      0x04\n      dup1\n      calldatasize\n      sub\n      dup2\n      add\n      swap1\n      tag_7\n      swap2\n      swap1\n      tag_8\n      jump\t// in\n    tag_7:\n      tag_9\n      jump\t// in\n    tag_6:\n      stop\n        /* \"Array.sol\":2291:2311  uint256[] public arr */\n    tag_4:\n      tag_10\n      0x04\n      dup1\n      calldatasize\n      sub\n      dup2\n      add\n      swap1\n      tag_11\n      swap2\n      swap1\n      tag_8\n      jump\t// in\n    tag_11:\n      tag_12\n      jump\t// in\n    tag_10:\n      mload(0x40)\n      tag_13\n      swap2\n      swap1\n      tag_14\n      jump\t// in\n    tag_13:\n      mload(0x40)\n      dup1\n      swap2\n      sub\n      swap1\n      return\n        /* \"Array.sol\":2427:2943  function test() public  {... */\n    tag_5:\n      tag_15\n      tag_16\n      jump\t// in\n    tag_15:\n      stop\n        /* \"Array.sol\":2318:2421  function remove(uint index) public {... */\n    tag_9:\n        /* \"Array.sol\":2376:2379  arr */\n      0x00\n        /* \"Array.sol\":2393:2394  1 */\n      0x01\n        /* \"Array.sol\":2380:2383  arr */\n      0x00\n        /* \"Array.sol\":2380:2390  arr.length */\n      dup1\n      sload\n      swap1\n      pop\n        /* \"Array.sol\":2380:2394  arr.length - 1 */\n      tag_18\n      swap2\n      swap1\n      tag_19\n      jump\t// in\n    tag_18:\n        /* \"Array.sol\":2376:2395  arr[arr.length - 1] */\n      dup2\n      sload\n      dup2\n      lt\n      tag_20\n      jumpi\n      tag_21\n      tag_22\n      jump\t// in\n    tag_21:\n    tag_20:\n      swap1\n      0x00\n      mstore\n      keccak256(0x00, 0x20)\n      add\n      sload\n        /* \"Array.sol\":2363:2366  arr */\n      0x00\n        /* \"Array.sol\":2367:2372  index */\n      dup3\n        /* \"Array.sol\":2363:2373  arr[index] */\n      dup2\n      sload\n      dup2\n      lt\n      tag_24\n      jumpi\n      tag_25\n      tag_22\n      jump\t// in\n    tag_25:\n    tag_24:\n      swap1\n      0x00\n      mstore\n      keccak256(0x00, 0x20)\n      add\n        /* \"Array.sol\":2363:2395  arr[index] = arr[arr.length - 1] */\n      dup2\n      swap1\n      sstore\n      pop\n        /* \"Array.sol\":2405:2408  arr */\n      0x00\n        /* \"Array.sol\":2405:2414  arr.pop() */\n      dup1\n      sload\n      dup1\n      tag_27\n      jumpi\n      tag_28\n      tag_29\n      jump\t// in\n    tag_28:\n    tag_27:\n      0x01\n      swap1\n      sub\n      dup2\n      dup2\n      swap1\n      0x00\n      mstore\n      keccak256(0x00, 0x20)\n      add\n      0x00\n      swap1\n      sstore\n      swap1\n      sstore\n        /* \"Array.sol\":2318:2421  function remove(uint index) public {... */\n      pop\n      jump\t// out\n        /* \"Array.sol\":2291:2311  uint256[] public arr */\n    tag_12:\n      0x00\n      dup2\n      dup2\n      sload\n      dup2\n      lt\n      tag_31\n      jumpi\n      0x00\n      dup1\n      revert\n    tag_31:\n      swap1\n      0x00\n      mstore\n      keccak256(0x00, 0x20)\n      add\n      0x00\n      swap2\n      pop\n      swap1\n      pop\n      sload\n      dup2\n      jump\t// out\n        /* \"Array.sol\":2427:2943  function test() public  {... */\n    tag_16:\n        /* \"Array.sol\":2461:2483  arr = [12,34,5,6,7,76] */\n      mload(0x40)\n      dup1\n      0xc0\n      add\n      0x40\n      mstore\n      dup1\n        /* \"Array.sol\":2468:2470  12 */\n      0x0c\n        /* \"Array.sol\":2461:2483  arr = [12,34,5,6,7,76] */\n      0xff\n      and\n      dup2\n      mstore\n      0x20\n      add\n        /* \"Array.sol\":2471:2473  34 */\n      0x22\n        /* \"Array.sol\":2461:2483  arr = [12,34,5,6,7,76] */\n      0xff\n      and\n      dup2\n      mstore\n      0x20\n      add\n        /* \"Array.sol\":2474:2475  5 */\n      0x05\n        /* \"Array.sol\":2461:2483  arr = [12,34,5,6,7,76] */\n      0xff\n      and\n      dup2\n      mstore\n      0x20\n      add\n        /* \"Array.sol\":2476:2477  6 */\n      0x06\n        /* \"Array.sol\":2461:2483  arr = [12,34,5,6,7,76] */\n      0xff\n      and\n      dup2\n      mstore\n      0x20\n      add\n        /* \"Array.sol\":2478:2479  7 */\n      0x07\n        /* \"Array.sol\":2461:2483  arr = [12,34,5,6,7,76] */\n      0xff\n      and\n      dup2\n      mstore\n      0x20\n      add\n        /* \"Array.sol\":2480:2482  76 */\n      0x4c\n        /* \"Array.sol\":2461:2483  arr = [12,34,5,6,7,76] */\n      0xff\n      and\n      dup2\n      mstore\n      pop\n        /* \"Array.sol\":2461:2464  arr */\n      0x00\n        /* \"Array.sol\":2461:2483  arr = [12,34,5,6,7,76] */\n      swap1\n      0x06\n      tag_34\n      swap3\n      swap2\n      swap1\n      tag_35\n      jump\t// in\n    tag_34:\n      pop\n        /* \"Array.sol\":2493:2502  remove(1) */\n      tag_36\n        /* \"Array.sol\":2500:2501  1 */\n      0x01\n        /* \"Array.sol\":2493:2499  remove */\n      tag_9\n        /* \"Array.sol\":2493:2502  remove(1) */\n      jump\t// in\n    tag_36:\n        /* \"Array.sol\":2558:2559  5 */\n      0x05\n        /* \"Array.sol\":2544:2547  arr */\n      0x00\n        /* \"Array.sol\":2544:2554  arr.length */\n      dup1\n      sload\n      swap1\n      pop\n        /* \"Array.sol\":2544:2559  arr.length == 5 */\n      eq\n        /* \"Array.sol\":2537:2560  assert(arr.length == 5) */\n      tag_37\n      jumpi\n      tag_38\n      tag_39\n      jump\t// in\n    tag_38:\n    tag_37:\n        /* \"Array.sol\":2587:2589  12 */\n      0x0c\n        /* \"Array.sol\":2577:2580  arr */\n      0x00\n        /* \"Array.sol\":2581:2582  0 */\n      dup1\n        /* \"Array.sol\":2577:2583  arr[0] */\n      dup2\n      sload\n      dup2\n      lt\n      tag_40\n      jumpi\n      tag_41\n      tag_22\n      jump\t// in\n    tag_41:\n    tag_40:\n      swap1\n      0x00\n      mstore\n      keccak256(0x00, 0x20)\n      add\n      sload\n        /* \"Array.sol\":2577:2589  arr[0] == 12 */\n      eq\n        /* \"Array.sol\":2570:2590  assert(arr[0] == 12) */\n      tag_43\n      jumpi\n      tag_44\n      tag_39\n      jump\t// in\n    tag_44:\n    tag_43:\n        /* \"Array.sol\":2617:2619  76 */\n      0x4c\n        /* \"Array.sol\":2607:2610  arr */\n      0x00\n        /* \"Array.sol\":2611:2612  1 */\n      0x01\n        /* \"Array.sol\":2607:2613  arr[1] */\n      dup2\n      sload\n      dup2\n      lt\n      tag_45\n      jumpi\n      tag_46\n      tag_22\n      jump\t// in\n    tag_46:\n    tag_45:\n      swap1\n      0x00\n      mstore\n      keccak256(0x00, 0x20)\n      add\n      sload\n        /* \"Array.sol\":2607:2619  arr[1] == 76 */\n      eq\n        /* \"Array.sol\":2600:2620  assert(arr[1] == 76) */\n      tag_48\n      jumpi\n      tag_49\n      tag_39\n      jump\t// in\n    tag_49:\n    tag_48:\n        /* \"Array.sol\":2647:2648  5 */\n      0x05\n        /* \"Array.sol\":2637:2640  arr */\n      0x00\n        /* \"Array.sol\":2641:2642  2 */\n      0x02\n        /* \"Array.sol\":2637:2643  arr[2] */\n      dup2\n      sload\n      dup2\n      lt\n      tag_50\n      jumpi\n      tag_51\n      tag_22\n      jump\t// in\n    tag_51:\n    tag_50:\n      swap1\n      0x00\n      mstore\n      keccak256(0x00, 0x20)\n      add\n      sload\n        /* \"Array.sol\":2637:2648  arr[2] == 5 */\n      eq\n        /* \"Array.sol\":2630:2649  assert(arr[2] == 5) */\n      tag_53\n      jumpi\n      tag_54\n      tag_39\n      jump\t// in\n    tag_54:\n    tag_53:\n        /* \"Array.sol\":2676:2677  6 */\n      0x06\n        /* \"Array.sol\":2666:2669  arr */\n      0x00\n        /* \"Array.sol\":2670:2671  3 */\n      0x03\n        /* \"Array.sol\":2666:2672  arr[3] */\n      dup2\n      sload\n      dup2\n      lt\n      tag_55\n      jumpi\n      tag_56\n      tag_22\n      jump\t// in\n    tag_56:\n    tag_55:\n      swap1\n      0x00\n      mstore\n      keccak256(0x00, 0x20)\n      add\n      sload\n        /* \"Array.sol\":2666:2677  arr[3] == 6 */\n      eq\n        /* \"Array.sol\":2659:2678  assert(arr[3] == 6) */\n      tag_58\n      jumpi\n      tag_59\n      tag_39\n      jump\t// in\n    tag_59:\n    tag_58:\n        /* \"Array.sol\":2705:2706  7 */\n      0x07\n        /* \"Array.sol\":2695:2698  arr */\n      0x00\n        /* \"Array.sol\":2699:2700  4 */\n      0x04\n        /* \"Array.sol\":2695:2701  arr[4] */\n      dup2\n      sload\n      dup2\n      lt\n      tag_60\n      jumpi\n      tag_61\n      tag_22\n      jump\t// in\n    tag_61:\n    tag_60:\n      swap1\n      0x00\n      mstore\n      keccak256(0x00, 0x20)\n      add\n      sload\n        /* \"Array.sol\":2695:2706  arr[4] == 7 */\n      eq\n        /* \"Array.sol\":2688:2707  assert(arr[4] == 7) */\n      tag_63\n      jumpi\n      tag_64\n      tag_39\n      jump\t// in\n    tag_64:\n    tag_63:\n        /* \"Array.sol\":2717:2726  remove(2) */\n      tag_65\n        /* \"Array.sol\":2724:2725  2 */\n      0x02\n        /* \"Array.sol\":2717:2723  remove */\n      tag_9\n        /* \"Array.sol\":2717:2726  remove(2) */\n      jump\t// in\n    tag_65:\n        /* \"Array.sol\":2780:2781  4 */\n      0x04\n        /* \"Array.sol\":2766:2769  arr */\n      0x00\n        /* \"Array.sol\":2766:2776  arr.length */\n      dup1\n      sload\n      swap1\n      pop\n        /* \"Array.sol\":2766:2781  arr.length == 4 */\n      eq\n        /* \"Array.sol\":2759:2782  assert(arr.length == 4) */\n      tag_66\n      jumpi\n      tag_67\n      tag_39\n      jump\t// in\n    tag_67:\n    tag_66:\n        /* \"Array.sol\":2809:2811  12 */\n      0x0c\n        /* \"Array.sol\":2799:2802  arr */\n      0x00\n        /* \"Array.sol\":2803:2804  0 */\n      dup1\n        /* \"Array.sol\":2799:2805  arr[0] */\n      dup2\n      sload\n      dup2\n      lt\n      tag_68\n      jumpi\n      tag_69\n      tag_22\n      jump\t// in\n    tag_69:\n    tag_68:\n      swap1\n      0x00\n      mstore\n      keccak256(0x00, 0x20)\n      add\n      sload\n        /* \"Array.sol\":2799:2811  arr[0] == 12 */\n      eq\n        /* \"Array.sol\":2792:2812  assert(arr[0] == 12) */\n      tag_71\n      jumpi\n      tag_72\n      tag_39\n      jump\t// in\n    tag_72:\n    tag_71:\n        /* \"Array.sol\":2839:2841  76 */\n      0x4c\n        /* \"Array.sol\":2829:2832  arr */\n      0x00\n        /* \"Array.sol\":2833:2834  1 */\n      0x01\n        /* \"Array.sol\":2829:2835  arr[1] */\n      dup2\n      sload\n      dup2\n      lt\n      tag_73\n      jumpi\n      tag_74\n      tag_22\n      jump\t// in\n    tag_74:\n    tag_73:\n      swap1\n      0x00\n      mstore\n      keccak256(0x00, 0x20)\n      add\n      sload\n        /* \"Array.sol\":2829:2841  arr[1] == 76 */\n      eq\n        /* \"Array.sol\":2822:2842  assert(arr[1] == 76) */\n      tag_76\n      jumpi\n      tag_77\n      tag_39\n      jump\t// in\n    tag_77:\n    tag_76:\n        /* \"Array.sol\":2869:2870  7 */\n      0x07\n        /* \"Array.sol\":2859:2862  arr */\n      0x00\n        /* \"Array.sol\":2863:2864  2 */\n      0x02\n        /* \"Array.sol\":2859:2865  arr[2] */\n      dup2\n      sload\n      dup2\n      lt\n      tag_78\n      jumpi\n      tag_79\n      tag_22\n      jump\t// in\n    tag_79:\n    tag_78:\n      swap1\n      0x00\n      mstore\n      keccak256(0x00, 0x20)\n      add\n      sload\n        /* \"Array.sol\":2859:2870  arr[2] == 7 */\n      eq\n        /* \"Array.sol\":2852:2871  assert(arr[2] == 7) */\n      tag_81\n      jumpi\n      tag_82\n      tag_39\n      jump\t// in\n    tag_82:\n    tag_81:\n        /* \"Array.sol\":2898:2899  6 */\n      0x06\n        /* \"Array.sol\":2888:2891  arr */\n      0x00\n        /* \"Array.sol\":2892:2893  3 */\n      0x03\n        /* \"Array.sol\":2888:2894  arr[3] */\n      dup2\n      sload\n      dup2\n      lt\n      tag_83\n      jumpi\n      tag_84\n      tag_22\n      jump\t// in\n    tag_84:\n    tag_83:\n      swap1\n      0x00\n      mstore\n      keccak256(0x00, 0x20)\n      add\n      sload\n        /* \"Array.sol\":2888:2899  arr[3] == 6 */\n      eq\n        /* \"Array.sol\":2881:2900  assert(arr[3] == 6) */\n      tag_86\n      jumpi\n      tag_87\n      tag_39\n      jump\t// in\n    tag_87:\n    tag_86:\n        /* \"Array.sol\":2427:2943  function test() public  {... */\n      jump\t// out\n    tag_35:\n      dup3\n      dup1\n      sload\n      dup3\n      dup3\n      sstore\n      swap1\n      0x00\n      mstore\n      keccak256(0x00, 0x20)\n      swap1\n      dup2\n      add\n      swap3\n      dup3\n      iszero\n      tag_88\n      jumpi\n      swap2\n      0x20\n      mul\n      dup3\n      add\n    tag_89:\n      dup3\n      dup2\n      gt\n      iszero\n      tag_90\n      jumpi\n      dup3\n      mload\n      dup3\n      swap1\n      0xff\n      and\n      swap1\n      sstore\n      swap2\n      0x20\n      add\n      swap2\n      swap1\n      0x01\n      add\n      swap1\n      jump(tag_89)\n    tag_90:\n    tag_88:\n      pop\n      swap1\n      pop\n      tag_91\n      swap2\n      swap1\n      tag_92\n      jump\t// in\n    tag_91:\n      pop\n      swap1\n      jump\t// out\n    tag_92:\n    tag_93:\n      dup1\n      dup3\n      gt\n      iszero\n      tag_94\n      jumpi\n      0x00\n      dup2\n      0x00\n      swap1\n      sstore\n      pop\n      0x01\n      add\n      jump(tag_93)\n    tag_94:\n      pop\n      swap1\n      jump\t// out\n        /* \"#utility.yul\":88:205   */\n    tag_96:\n        /* \"#utility.yul\":197:198   */\n      0x00\n        /* \"#utility.yul\":194:195   */\n      dup1\n        /* \"#utility.yul\":187:199   */\n      revert\n        /* \"#utility.yul\":334:411   */\n    tag_98:\n        /* \"#utility.yul\":371:378   */\n      0x00\n        /* \"#utility.yul\":400:405   */\n      dup2\n        /* \"#utility.yul\":389:405   */\n      swap1\n      pop\n        /* \"#utility.yul\":334:411   */\n      swap2\n      swap1\n      pop\n      jump\t// out\n        /* \"#utility.yul\":417:539   */\n    tag_99:\n        /* \"#utility.yul\":490:514   */\n      tag_109\n        /* \"#utility.yul\":508:513   */\n      dup2\n        /* \"#utility.yul\":490:514   */\n      tag_98\n      jump\t// in\n    tag_109:\n        /* \"#utility.yul\":483:488   */\n      dup2\n        /* \"#utility.yul\":480:515   */\n      eq\n        /* \"#utility.yul\":470:533   */\n      tag_110\n      jumpi\n        /* \"#utility.yul\":529:530   */\n      0x00\n        /* \"#utility.yul\":526:527   */\n      dup1\n        /* \"#utility.yul\":519:531   */\n      revert\n        /* \"#utility.yul\":470:533   */\n    tag_110:\n        /* \"#utility.yul\":417:539   */\n      pop\n      jump\t// out\n        /* \"#utility.yul\":545:684   */\n    tag_100:\n        /* \"#utility.yul\":591:596   */\n      0x00\n        /* \"#utility.yul\":629:635   */\n      dup2\n        /* \"#utility.yul\":616:636   */\n      calldataload\n        /* \"#utility.yul\":607:636   */\n      swap1\n      pop\n        /* \"#utility.yul\":645:678   */\n      tag_112\n        /* \"#utility.yul\":672:677   */\n      dup2\n        /* \"#utility.yul\":645:678   */\n      tag_99\n      jump\t// in\n    tag_112:\n        /* \"#utility.yul\":545:684   */\n      swap3\n      swap2\n      pop\n      pop\n      jump\t// out\n        /* \"#utility.yul\":690:1019   */\n    tag_8:\n        /* \"#utility.yul\":749:755   */\n      0x00\n        /* \"#utility.yul\":798:800   */\n      0x20\n        /* \"#utility.yul\":786:795   */\n      dup3\n        /* \"#utility.yul\":777:784   */\n      dup5\n        /* \"#utility.yul\":773:796   */\n      sub\n        /* \"#utility.yul\":769:801   */\n      slt\n        /* \"#utility.yul\":766:885   */\n      iszero\n      tag_114\n      jumpi\n        /* \"#utility.yul\":804:883   */\n      tag_115\n      tag_96\n      jump\t// in\n    tag_115:\n        /* \"#utility.yul\":766:885   */\n    tag_114:\n        /* \"#utility.yul\":924:925   */\n      0x00\n        /* \"#utility.yul\":949:1002   */\n      tag_116\n        /* \"#utility.yul\":994:1001   */\n      dup5\n        /* \"#utility.yul\":985:991   */\n      dup3\n        /* \"#utility.yul\":974:983   */\n      dup6\n        /* \"#utility.yul\":970:992   */\n      add\n        /* \"#utility.yul\":949:1002   */\n      tag_100\n      jump\t// in\n    tag_116:\n        /* \"#utility.yul\":939:1002   */\n      swap2\n      pop\n        /* \"#utility.yul\":895:1012   */\n      pop\n        /* \"#utility.yul\":690:1019   */\n      swap3\n      swap2\n      pop\n      pop\n      jump\t// out\n        /* \"#utility.yul\":1025:1143   */\n    tag_101:\n        /* \"#utility.yul\":1112:1136   */\n      tag_118\n        /* \"#utility.yul\":1130:1135   */\n      dup2\n        /* \"#utility.yul\":1112:1136   */\n      tag_98\n      jump\t// in\n    tag_118:\n        /* \"#utility.yul\":1107:1110   */\n      dup3\n        /* \"#utility.yul\":1100:1137   */\n      mstore\n        /* \"#utility.yul\":1025:1143   */\n      pop\n      pop\n      jump\t// out\n        /* \"#utility.yul\":1149:1371   */\n    tag_14:\n        /* \"#utility.yul\":1242:1246   */\n      0x00\n        /* \"#utility.yul\":1280:1282   */\n      0x20\n        /* \"#utility.yul\":1269:1278   */\n      dup3\n        /* \"#utility.yul\":1265:1283   */\n      add\n        /* \"#utility.yul\":1257:1283   */\n      swap1\n      pop\n        /* \"#utility.yul\":1293:1364   */\n      tag_120\n        /* \"#utility.yul\":1361:1362   */\n      0x00\n        /* \"#utility.yul\":1350:1359   */\n      dup4\n        /* \"#utility.yul\":1346:1363   */\n      add\n        /* \"#utility.yul\":1337:1343   */\n      dup5\n        /* \"#utility.yul\":1293:1364   */\n      tag_101\n      jump\t// in\n    tag_120:\n        /* \"#utility.yul\":1149:1371   */\n      swap3\n      swap2\n      pop\n      pop\n      jump\t// out\n        /* \"#utility.yul\":1377:1557   */\n    tag_102:\n        /* \"#utility.yul\":1425:1502   */\n      0x4e487b7100000000000000000000000000000000000000000000000000000000\n        /* \"#utility.yul\":1422:1423   */\n      0x00\n        /* \"#utility.yul\":1415:1503   */\n      mstore\n        /* \"#utility.yul\":1522:1526   */\n      0x11\n        /* \"#utility.yul\":1519:1520   */\n      0x04\n        /* \"#utility.yul\":1512:1527   */\n      mstore\n        /* \"#utility.yul\":1546:1550   */\n      0x24\n        /* \"#utility.yul\":1543:1544   */\n      0x00\n        /* \"#utility.yul\":1536:1551   */\n      revert\n        /* \"#utility.yul\":1563:1757   */\n    tag_19:\n        /* \"#utility.yul\":1603:1607   */\n      0x00\n        /* \"#utility.yul\":1623:1643   */\n      tag_123\n        /* \"#utility.yul\":1641:1642   */\n      dup3\n        /* \"#utility.yul\":1623:1643   */\n      tag_98\n      jump\t// in\n    tag_123:\n        /* \"#utility.yul\":1618:1643   */\n      swap2\n      pop\n        /* \"#utility.yul\":1657:1677   */\n      tag_124\n        /* \"#utility.yul\":1675:1676   */\n      dup4\n        /* \"#utility.yul\":1657:1677   */\n      tag_98\n      jump\t// in\n    tag_124:\n        /* \"#utility.yul\":1652:1677   */\n      swap3\n      pop\n        /* \"#utility.yul\":1701:1702   */\n      dup3\n        /* \"#utility.yul\":1698:1699   */\n      dup3\n        /* \"#utility.yul\":1694:1703   */\n      sub\n        /* \"#utility.yul\":1686:1703   */\n      swap1\n      pop\n        /* \"#utility.yul\":1725:1726   */\n      dup2\n        /* \"#utility.yul\":1719:1723   */\n      dup2\n        /* \"#utility.yul\":1716:1727   */\n      gt\n        /* \"#utility.yul\":1713:1750   */\n      iszero\n      tag_125\n      jumpi\n        /* \"#utility.yul\":1730:1748   */\n      tag_126\n      tag_102\n      jump\t// in\n    tag_126:\n        /* \"#utility.yul\":1713:1750   */\n    tag_125:\n        /* \"#utility.yul\":1563:1757   */\n      swap3\n      swap2\n      pop\n      pop\n      jump\t// out\n        /* \"#utility.yul\":1763:1943   */\n    tag_22:\n        /* \"#utility.yul\":1811:1888   */\n      0x4e487b7100000000000000000000000000000000000000000000000000000000\n        /* \"#utility.yul\":1808:1809   */\n      0x00\n        /* \"#utility.yul\":1801:1889   */\n      mstore\n        /* \"#utility.yul\":1908:1912   */\n      0x32\n        /* \"#utility.yul\":1905:1906   */\n      0x04\n        /* \"#utility.yul\":1898:1913   */\n      mstore\n        /* \"#utility.yul\":1932:1936   */\n      0x24\n        /* \"#utility.yul\":1929:1930   */\n      0x00\n        /* \"#utility.yul\":1922:1937   */\n      revert\n        /* \"#utility.yul\":1949:2129   */\n    tag_29:\n        /* \"#utility.yul\":1997:2074   */\n      0x4e487b7100000000000000000000000000000000000000000000000000000000\n        /* \"#utility.yul\":1994:1995   */\n      0x00\n        /* \"#utility.yul\":1987:2075   */\n      mstore\n        /* \"#utility.yul\":2094:2098   */\n      0x31\n        /* \"#utility.yul\":2091:2092   */\n      0x04\n        /* \"#utility.yul\":2084:2099   */\n      mstore\n        /* \"#utility.yul\":2118:2122   */\n      0x24\n        /* \"#utility.yul\":2115:2116   */\n      0x00\n        /* \"#utility.yul\":2108:2123   */\n      revert\n        /* \"#utility.yul\":2135:2315   */\n    tag_39:\n        /* \"#utility.yul\":2183:2260   */\n      0x4e487b7100000000000000000000000000000000000000000000000000000000\n        /* \"#utility.yul\":2180:2181   */\n      0x00\n        /* \"#utility.yul\":2173:2261   */\n      mstore\n        /* \"#utility.yul\":2280:2284   */\n      0x01\n        /* \"#utility.yul\":2277:2278   */\n      0x04\n        /* \"#utility.yul\":2270:2285   */\n      mstore\n        /* \"#utility.yul\":2304:2308   */\n      0x24\n        /* \"#utility.yul\":2301:2302   */\n      0x00\n        /* \"#utility.yul\":2294:2309   */\n      revert\n\n    auxdata: 0xa264697066735822122026cd7a9f01353366fe82d3b57e1498c76970c1643bbf5dbe59081fd3559d251264736f6c63430008190033\n}\n",
				"bytecode": {
					"linkReferences": {},
					"object": "6080604052348015600e575f80fd5b506105648061001c5f395ff3fe608060405234801561000f575f80fd5b506004361061003f575f3560e01c80634cc822151461004357806371e5ee5f1461005f578063f8a8fd6d1461008f575b5f80fd5b61005d600480360381019061005891906103f4565b610099565b005b610079600480360381019061007491906103f4565b61010b565b604051610086919061042e565b60405180910390f35b61009761012a565b005b5f60015f805490506100ab9190610474565b815481106100bc576100bb6104a7565b5b905f5260205f2001545f82815481106100d8576100d76104a7565b5b905f5260205f2001819055505f8054806100f5576100f46104d4565b5b600190038181905f5260205f20015f9055905550565b5f8181548110610119575f80fd5b905f5260205f20015f915090505481565b6040518060c00160405280600c60ff168152602001602260ff168152602001600560ff168152602001600660ff168152602001600760ff168152602001604c60ff168152505f90600661017e929190610352565b506101896001610099565b60055f805490501461019e5761019d610501565b5b600c5f80815481106101b3576101b26104a7565b5b905f5260205f200154146101ca576101c9610501565b5b604c5f6001815481106101e0576101df6104a7565b5b905f5260205f200154146101f7576101f6610501565b5b60055f60028154811061020d5761020c6104a7565b5b905f5260205f2001541461022457610223610501565b5b60065f60038154811061023a576102396104a7565b5b905f5260205f2001541461025157610250610501565b5b60075f600481548110610267576102666104a7565b5b905f5260205f2001541461027e5761027d610501565b5b6102886002610099565b60045f805490501461029d5761029c610501565b5b600c5f80815481106102b2576102b16104a7565b5b905f5260205f200154146102c9576102c8610501565b5b604c5f6001815481106102df576102de6104a7565b5b905f5260205f200154146102f6576102f5610501565b5b60075f60028154811061030c5761030b6104a7565b5b905f5260205f2001541461032357610322610501565b5b60065f600381548110610339576103386104a7565b5b905f5260205f200154146103505761034f610501565b5b565b828054828255905f5260205f20908101928215610391579160200282015b82811115610390578251829060ff16905591602001919060010190610370565b5b50905061039e91906103a2565b5090565b5b808211156103b9575f815f9055506001016103a3565b5090565b5f80fd5b5f819050919050565b6103d3816103c1565b81146103dd575f80fd5b50565b5f813590506103ee816103ca565b92915050565b5f60208284031215610409576104086103bd565b5b5f610416848285016103e0565b91505092915050565b610428816103c1565b82525050565b5f6020820190506104415f83018461041f565b92915050565b7f4e487b71000000000000000000000000000000000000000000000000000000005f52601160045260245ffd5b5f61047e826103c1565b9150610489836103c1565b92508282039050818111156104a1576104a0610447565b5b92915050565b7f4e487b71000000000000000000000000000000000000000000000000000000005f52603260045260245ffd5b7f4e487b71000000000000000000000000000000000000000000000000000000005f52603160045260245ffd5b7f4e487b71000000000000000000000000000000000000000000000000000000005f52600160045260245ffdfea264697066735822122026cd7a9f01353366fe82d3b57e1498c76970c1643bbf5dbe59081fd3559d251264736f6c63430008190033",
					"opcodes": "PUSH1 0x80 PUSH1 0x40 MSTORE CALLVALUE DUP1 ISZERO PUSH1 0xE JUMPI PUSH0 DUP1 REVERT JUMPDEST POP PUSH2 0x564 DUP1 PUSH2 0x1C PUSH0 CODECOPY PUSH0 RETURN INVALID PUSH1 0x80 PUSH1 0x40 MSTORE CALLVALUE DUP1 ISZERO PUSH2 0xF JUMPI PUSH0 DUP1 REVERT JUMPDEST POP PUSH1 0x4 CALLDATASIZE LT PUSH2 0x3F JUMPI PUSH0 CALLDATALOAD PUSH1 0xE0 SHR DUP1 PUSH4 0x4CC82215 EQ PUSH2 0x43 JUMPI DUP1 PUSH4 0x71E5EE5F EQ PUSH2 0x5F JUMPI DUP1 PUSH4 0xF8A8FD6D EQ PUSH2 0x8F JUMPI JUMPDEST PUSH0 DUP1 REVERT JUMPDEST PUSH2 0x5D PUSH1 0x4 DUP1 CALLDATASIZE SUB DUP2 ADD SWAP1 PUSH2 0x58 SWAP2 SWAP1 PUSH2 0x3F4 JUMP JUMPDEST PUSH2 0x99 JUMP JUMPDEST STOP JUMPDEST PUSH2 0x79 PUSH1 0x4 DUP1 CALLDATASIZE SUB DUP2 ADD SWAP1 PUSH2 0x74 SWAP2 SWAP1 PUSH2 0x3F4 JUMP JUMPDEST PUSH2 0x10B JUMP JUMPDEST PUSH1 0x40 MLOAD PUSH2 0x86 SWAP2 SWAP1 PUSH2 0x42E JUMP JUMPDEST PUSH1 0x40 MLOAD DUP1 SWAP2 SUB SWAP1 RETURN JUMPDEST PUSH2 0x97 PUSH2 0x12A JUMP JUMPDEST STOP JUMPDEST PUSH0 PUSH1 0x1 PUSH0 DUP1 SLOAD SWAP1 POP PUSH2 0xAB SWAP2 SWAP1 PUSH2 0x474 JUMP JUMPDEST DUP2 SLOAD DUP2 LT PUSH2 0xBC JUMPI PUSH2 0xBB PUSH2 0x4A7 JUMP JUMPDEST JUMPDEST SWAP1 PUSH0 MSTORE PUSH1 0x20 PUSH0 KECCAK256 ADD SLOAD PUSH0 DUP3 DUP2 SLOAD DUP2 LT PUSH2 0xD8 JUMPI PUSH2 0xD7 PUSH2 0x4A7 JUMP JUMPDEST JUMPDEST SWAP1 PUSH0 MSTORE PUSH1 0x20 PUSH0 KECCAK256 ADD DUP2 SWAP1 SSTORE POP PUSH0 DUP1 SLOAD DUP1 PUSH2 0xF5 JUMPI PUSH2 0xF4 PUSH2 0x4D4 JUMP JUMPDEST JUMPDEST PUSH1 0x1 SWAP1 SUB DUP2 DUP2 SWAP1 PUSH0 MSTORE PUSH1 0x20 PUSH0 KECCAK256 ADD PUSH0 SWAP1 SSTORE SWAP1 SSTORE POP JUMP JUMPDEST PUSH0 DUP2 DUP2 SLOAD DUP2 LT PUSH2 0x119 JUMPI PUSH0 DUP1 REVERT JUMPDEST SWAP1 PUSH0 MSTORE PUSH1 0x20 PUSH0 KECCAK256 ADD PUSH0 SWAP2 POP SWAP1 POP SLOAD DUP2 JUMP JUMPDEST PUSH1 0x40 MLOAD DUP1 PUSH1 0xC0 ADD PUSH1 0x40 MSTORE DUP1 PUSH1 0xC PUSH1 0xFF AND DUP2 MSTORE PUSH1 0x20 ADD PUSH1 0x22 PUSH1 0xFF AND DUP2 MSTORE PUSH1 0x20 ADD PUSH1 0x5 PUSH1 0xFF AND DUP2 MSTORE PUSH1 0x20 ADD PUSH1 0x6 PUSH1 0xFF AND DUP2 MSTORE PUSH1 0x20 ADD PUSH1 0x7 PUSH1 0xFF AND DUP2 MSTORE PUSH1 0x20 ADD PUSH1 0x4C PUSH1 0xFF AND DUP2 MSTORE POP PUSH0 SWAP1 PUSH1 0x6 PUSH2 0x17E SWAP3 SWAP2 SWAP1 PUSH2 0x352 JUMP JUMPDEST POP PUSH2 0x189 PUSH1 0x1 PUSH2 0x99 JUMP JUMPDEST PUSH1 0x5 PUSH0 DUP1 SLOAD SWAP1 POP EQ PUSH2 0x19E JUMPI PUSH2 0x19D PUSH2 0x501 JUMP JUMPDEST JUMPDEST PUSH1 0xC PUSH0 DUP1 DUP2 SLOAD DUP2 LT PUSH2 0x1B3 JUMPI PUSH2 0x1B2 PUSH2 0x4A7 JUMP JUMPDEST JUMPDEST SWAP1 PUSH0 MSTORE PUSH1 0x20 PUSH0 KECCAK256 ADD SLOAD EQ PUSH2 0x1CA JUMPI PUSH2 0x1C9 PUSH2 0x501 JUMP JUMPDEST JUMPDEST PUSH1 0x4C PUSH0 PUSH1 0x1 DUP2 SLOAD DUP2 LT PUSH2 0x1E0 JUMPI PUSH2 0x1DF PUSH2 0x4A7 JUMP JUMPDEST JUMPDEST SWAP1 PUSH0 MSTORE PUSH1 0x20 PUSH0 KECCAK256 ADD SLOAD EQ PUSH2 0x1F7 JUMPI PUSH2 0x1F6 PUSH2 0x501 JUMP JUMPDEST JUMPDEST PUSH1 0x5 PUSH0 PUSH1 0x2 DUP2 SLOAD DUP2 LT PUSH2 0x20D JUMPI PUSH2 0x20C PUSH2 0x4A7 JUMP JUMPDEST JUMPDEST SWAP1 PUSH0 MSTORE PUSH1 0x20 PUSH0 KECCAK256 ADD SLOAD EQ PUSH2 0x224 JUMPI PUSH2 0x223 PUSH2 0x501 JUMP JUMPDEST JUMPDEST PUSH1 0x6 PUSH0 PUSH1 0x3 DUP2 SLOAD DUP2 LT PUSH2 0x23A JUMPI PUSH2 0x239 PUSH2 0x4A7 JUMP JUMPDEST JUMPDEST SWAP1 PUSH0 MSTORE PUSH1 0x20 PUSH0 KECCAK256 ADD SLOAD EQ PUSH2 0x251 JUMPI PUSH2 0x250 PUSH2 0x501 JUMP JUMPDEST JUMPDEST PUSH1 0x7 PUSH0 PUSH1 0x4 DUP2 SLOAD DUP2 LT PUSH2 0x267 JUMPI PUSH2 0x266 PUSH2 0x4A7 JUMP JUMPDEST JUMPDEST SWAP1 PUSH0 MSTORE PUSH1 0x20 PUSH0 KECCAK256 ADD SLOAD EQ PUSH2 0x27E JUMPI PUSH2 0x27D PUSH2 0x501 JUMP JUMPDEST JUMPDEST PUSH2 0x288 PUSH1 0x2 PUSH2 0x99 JUMP JUMPDEST PUSH1 0x4 PUSH0 DUP1 SLOAD SWAP1 POP EQ PUSH2 0x29D JUMPI PUSH2 0x29C PUSH2 0x501 JUMP JUMPDEST JUMPDEST PUSH1 0xC PUSH0 DUP1 DUP2 SLOAD DUP2 LT PUSH2 0x2B2 JUMPI PUSH2 0x2B1 PUSH2 0x4A7 JUMP JUMPDEST JUMPDEST SWAP1 PUSH0 MSTORE PUSH1 0x20 PUSH0 KECCAK256 ADD SLOAD EQ PUSH2 0x2C9 JUMPI PUSH2 0x2C8 PUSH2 0x501 JUMP JUMPDEST JUMPDEST PUSH1 0x4C PUSH0 PUSH1 0x1 DUP2 SLOAD DUP2 LT PUSH2 0x2DF JUMPI PUSH2 0x2DE PUSH2 0x4A7 JUMP JUMPDEST JUMPDEST SWAP1 PUSH0 MSTORE PUSH1 0x20 PUSH0 KECCAK256 ADD SLOAD EQ PUSH2 0x2F6 JUMPI PUSH2 0x2F5 PUSH2 0x501 JUMP JUMPDEST JUMPDEST PUSH1 0x7 PUSH0 PUSH1 0x2 DUP2 SLOAD DUP2 LT PUSH2 0x30C JUMPI PUSH2 0x30B PUSH2 0x4A7 JUMP JUMPDEST JUMPDEST SWAP1 PUSH0 MSTORE PUSH1 0x20 PUSH0 KECCAK256 ADD SLOAD EQ PUSH2 0x323 JUMPI PUSH2 0x322 PUSH2 0x501 JUMP JUMPDEST JUMPDEST PUSH1 0x6 PUSH0 PUSH1 0x3 DUP2 SLOAD DUP2 LT PUSH2 0x339 JUMPI PUSH2 0x338 PUSH2 0x4A7 JUMP JUMPDEST JUMPDEST SWAP1 PUSH0 MSTORE PUSH1 0x20 PUSH0 KECCAK256 ADD SLOAD EQ PUSH2 0x350 JUMPI PUSH2 0x34F PUSH2 0x501 JUMP JUMPDEST JUMPDEST JUMP JUMPDEST DUP3 DUP1 SLOAD DUP3 DUP3 SSTORE SWAP1 PUSH0 MSTORE PUSH1 0x20 PUSH0 KECCAK256 SWAP1 DUP2 ADD SWAP3 DUP3 ISZERO PUSH2 0x391 JUMPI SWAP2 PUSH1 0x20 MUL DUP3 ADD JUMPDEST DUP3 DUP2 GT ISZERO PUSH2 0x390 JUMPI DUP3 MLOAD DUP3 SWAP1 PUSH1 0xFF AND SWAP1 SSTORE SWAP2 PUSH1 0x20 ADD SWAP2 SWAP1 PUSH1 0x1 ADD SWAP1 PUSH2 0x370 JUMP JUMPDEST JUMPDEST POP SWAP1 POP PUSH2 0x39E SWAP2 SWAP1 PUSH2 0x3A2 JUMP JUMPDEST POP SWAP1 JUMP JUMPDEST JUMPDEST DUP1 DUP3 GT ISZERO PUSH2 0x3B9 JUMPI PUSH0 DUP2 PUSH0 SWAP1 SSTORE POP PUSH1 0x1 ADD PUSH2 0x3A3 JUMP JUMPDEST POP SWAP1 JUMP JUMPDEST PUSH0 DUP1 REVERT JUMPDEST PUSH0 DUP2 SWAP1 POP SWAP2 SWAP1 POP JUMP JUMPDEST PUSH2 0x3D3 DUP2 PUSH2 0x3C1 JUMP JUMPDEST DUP2 EQ PUSH2 0x3DD JUMPI PUSH0 DUP1 REVERT JUMPDEST POP JUMP JUMPDEST PUSH0 DUP2 CALLDATALOAD SWAP1 POP PUSH2 0x3EE DUP2 PUSH2 0x3CA JUMP JUMPDEST SWAP3 SWAP2 POP POP JUMP JUMPDEST PUSH0 PUSH1 0x20 DUP3 DUP5 SUB SLT ISZERO PUSH2 0x409 JUMPI PUSH2 0x408 PUSH2 0x3BD JUMP JUMPDEST JUMPDEST PUSH0 PUSH2 0x416 DUP5 DUP3 DUP6 ADD PUSH2 0x3E0 JUMP JUMPDEST SWAP2 POP POP SWAP3 SWAP2 POP POP JUMP JUMPDEST PUSH2 0x428 DUP2 PUSH2 0x3C1 JUMP JUMPDEST DUP3 MSTORE POP POP JUMP JUMPDEST PUSH0 PUSH1 0x20 DUP3 ADD SWAP1 POP PUSH2 0x441 PUSH0 DUP4 ADD DUP5 PUSH2 0x41F JUMP JUMPDEST SWAP3 SWAP2 POP POP JUMP JUMPDEST PUSH32 0x4E487B7100000000000000000000000000000000000000000000000000000000 PUSH0 MSTORE PUSH1 0x11 PUSH1 0x4 MSTORE PUSH1 0x24 PUSH0 REVERT JUMPDEST PUSH0 PUSH2 0x47E DUP3 PUSH2 0x3C1 JUMP JUMPDEST SWAP2 POP PUSH2 0x489 DUP4 PUSH2 0x3C1 JUMP JUMPDEST SWAP3 POP DUP3 DUP3 SUB SWAP1 POP DUP2 DUP2 GT ISZERO PUSH2 0x4A1 JUMPI PUSH2 0x4A0 PUSH2 0x447 JUMP JUMPDEST JUMPDEST SWAP3 SWAP2 POP POP JUMP JUMPDEST PUSH32 0x4E487B7100000000000000000000000000000000000000000000000000000000 PUSH0 MSTORE PUSH1 0x32 PUSH1 0x4 MSTORE PUSH1 0x24 PUSH0 REVERT JUMPDEST PUSH32 0x4E487B7100000000000000000000000000000000000000000000000000000000 PUSH0 MSTORE PUSH1 0x31 PUSH1 0x4 MSTORE PUSH1 0x24 PUSH0 REVERT JUMPDEST PUSH32 0x4E487B7100000000000000000000000000000000000000000000000000000000 PUSH0 MSTORE PUSH1 0x1 PUSH1 0x4 MSTORE PUSH1 0x24 PUSH0 REVERT INVALID LOG2 PUSH5 0x6970667358 0x22 SLT KECCAK256 0x26 0xCD PUSH27 0x9F01353366FE82D3B57E1498C76970C1643BBF5DBE59081FD3559D 0x25 SLT PUSH5 0x736F6C6343 STOP ADDMOD NOT STOP CALLER "
				},
				"gasEstimates": {
					"creation": {
						"codeDepositCost": "276000",
						"executionCost": "316",
						"totalCost": "276316"
					},
					"external": {
						"arr(uint256)": "infinite",
						"remove(uint256)": "infinite",
						"test()": "infinite"
					}
				},
				"methodIdentifiers": {
					"arr(uint256)": "71e5ee5f",
					"remove(uint256)": "4cc82215",
					"test()": "f8a8fd6d"
				}
			},
			"storageLayout": {
				"storage": [
					{
						"astId": 181,
						"contract": "Array.sol:ArrayRemoveLastElement",
						"label": "arr",
						"offset": 0,
						"slot": "0",
						"type": "t_array(t_uint256)dyn_storage"
					}
				],
				"types": {
					"t_array(t_uint256)dyn_storage": {
						"base": "t_uint256",
						"encoding": "dynamic_array",
						"label": "uint256[]",
						"numberOfBytes": "32"
					},
					"t_uint256": {
						"encoding": "inplace",
						"label": "uint256",
						"numberOfBytes": "32"
					}
				}
			},
			"userdoc": {
				"kind": "user",
				"methods": {},
				"version": 1
			}
		}
	}
}