{
	"Pure.sol": {
		"Pure": {
			"abi": [
				{
					"inputs": [],
					"name": "getData",
					"outputs": [
						{
							"internalType": "uint256",
							"name": "",
							"type": "uint256"
						},
						{
							"internalType": "uint256",
							"name": "",
							"type": "uint256"
						}
					],
					"stateMutability": "pure",
					"type": "function"
				}
			],
			"devdoc": {
				"kind": "dev",
				"methods": {},
				"version": 1
			},
			"evm": {
				"assembly": "    /* \"Pure.sol\":65:393  contract Pure {... */\n  mstore(0x40, 0x80)\n    /* \"Pure.sol\":101:103  34 */\n  0x22\n    /* \"Pure.sol\":86:103  uint256 num1 = 34 */\n  0x00\n  sstore\n    /* \"Pure.sol\":125:127  10 */\n  0x0a\n    /* \"Pure.sol\":110:127  uint256 num2 = 10 */\n  0x01\n  sstore\n    /* \"Pure.sol\":65:393  contract Pure {... */\n  callvalue\n  dup1\n  iszero\n  tag_1\n  jumpi\n  0x00\n  dup1\n  revert\ntag_1:\n  pop\n  dataSize(sub_0)\n  dup1\n  dataOffset(sub_0)\n  0x00\n  codecopy\n  0x00\n  return\nstop\n\nsub_0: assembly {\n        /* \"Pure.sol\":65:393  contract Pure {... */\n      mstore(0x40, 0x80)\n      callvalue\n      dup1\n      iszero\n      tag_1\n      jumpi\n      0x00\n      dup1\n      revert\n    tag_1:\n      pop\n      jumpi(tag_2, lt(calldatasize, 0x04))\n      shr(0xe0, calldataload(0x00))\n      dup1\n      0x3bc5de30\n      eq\n      tag_3\n      jumpi\n    tag_2:\n      0x00\n      dup1\n      revert\n        /* \"Pure.sol\":136:390  function getData() public pure returns (uint256 ,  uint256) {... */\n    tag_3:\n      tag_4\n      tag_5\n      jump\t// in\n    tag_4:\n      mload(0x40)\n      tag_6\n      swap3\n      swap2\n      swap1\n      tag_7\n      jump\t// in\n    tag_6:\n      mload(0x40)\n      dup1\n      swap2\n      sub\n      swap1\n      return\n    tag_5:\n        /* \"Pure.sol\":176:183  uint256 */\n      0x00\n        /* \"Pure.sol\":187:194  uint256 */\n      dup1\n        /* \"Pure.sol\":207:221  uint256 muNum1 */\n      0x00\n        /* \"Pure.sol\":224:226  40 */\n      0x28\n        /* \"Pure.sol\":207:226  uint256 muNum1 = 40 */\n      swap1\n      pop\n        /* \"Pure.sol\":237:251  uint256 muNum2 */\n      0x00\n        /* \"Pure.sol\":254:256  56 */\n      0x38\n        /* \"Pure.sol\":237:256  uint256 muNum2 = 56 */\n      swap1\n      pop\n        /* \"Pure.sol\":269:285  uint256 products */\n      0x00\n        /* \"Pure.sol\":297:303  muNum2 */\n      dup2\n        /* \"Pure.sol\":288:294  muNum1 */\n      dup4\n        /* \"Pure.sol\":288:303  muNum1 + muNum2 */\n      tag_9\n      swap2\n      swap1\n      tag_10\n      jump\t// in\n    tag_9:\n        /* \"Pure.sol\":269:303  uint256 products = muNum1 + muNum2 */\n      swap1\n      pop\n        /* \"Pure.sol\":314:328  uint256 totals */\n      0x00\n        /* \"Pure.sol\":340:346  muNum2 */\n      dup3\n        /* \"Pure.sol\":331:337  muNum1 */\n      dup5\n        /* \"Pure.sol\":331:346  muNum1 * muNum2 */\n      tag_11\n      swap2\n      swap1\n      tag_12\n      jump\t// in\n    tag_11:\n        /* \"Pure.sol\":314:346  uint256 totals = muNum1 * muNum2 */\n      swap1\n      pop\n        /* \"Pure.sol\":365:373  products */\n      dup2\n        /* \"Pure.sol\":375:381  totals */\n      dup2\n        /* \"Pure.sol\":357:382  return (products, totals) */\n      swap6\n      pop\n      swap6\n      pop\n      pop\n      pop\n      pop\n      pop\n        /* \"Pure.sol\":136:390  function getData() public pure returns (uint256 ,  uint256) {... */\n      swap1\n      swap2\n      jump\t// out\n        /* \"#utility.yul\":7:84   */\n    tag_13:\n        /* \"#utility.yul\":44:51   */\n      0x00\n        /* \"#utility.yul\":73:78   */\n      dup2\n        /* \"#utility.yul\":62:78   */\n      swap1\n      pop\n        /* \"#utility.yul\":7:84   */\n      swap2\n      swap1\n      pop\n      jump\t// out\n        /* \"#utility.yul\":90:208   */\n    tag_14:\n        /* \"#utility.yul\":177:201   */\n      tag_19\n        /* \"#utility.yul\":195:200   */\n      dup2\n        /* \"#utility.yul\":177:201   */\n      tag_13\n      jump\t// in\n    tag_19:\n        /* \"#utility.yul\":172:175   */\n      dup3\n        /* \"#utility.yul\":165:202   */\n      mstore\n        /* \"#utility.yul\":90:208   */\n      pop\n      pop\n      jump\t// out\n        /* \"#utility.yul\":214:546   */\n    tag_7:\n        /* \"#utility.yul\":335:339   */\n      0x00\n        /* \"#utility.yul\":373:375   */\n      0x40\n        /* \"#utility.yul\":362:371   */\n      dup3\n        /* \"#utility.yul\":358:376   */\n      add\n        /* \"#utility.yul\":350:376   */\n      swap1\n      pop\n        /* \"#utility.yul\":386:457   */\n      tag_21\n        /* \"#utility.yul\":454:455   */\n      0x00\n        /* \"#utility.yul\":443:452   */\n      dup4\n        /* \"#utility.yul\":439:456   */\n      add\n        /* \"#utility.yul\":430:436   */\n      dup6\n        /* \"#utility.yul\":386:457   */\n      tag_14\n      jump\t// in\n    tag_21:\n        /* \"#utility.yul\":467:539   */\n      tag_22\n        /* \"#utility.yul\":535:537   */\n      0x20\n        /* \"#utility.yul\":524:533   */\n      dup4\n        /* \"#utility.yul\":520:538   */\n      add\n        /* \"#utility.yul\":511:517   */\n      dup5\n        /* \"#utility.yul\":467:539   */\n      tag_14\n      jump\t// in\n    tag_22:\n        /* \"#utility.yul\":214:546   */\n      swap4\n      swap3\n      pop\n      pop\n      pop\n      jump\t// out\n        /* \"#utility.yul\":552:732   */\n    tag_15:\n        /* \"#utility.yul\":600:677   */\n      0x4e487b7100000000000000000000000000000000000000000000000000000000\n        /* \"#utility.yul\":597:598   */\n      0x00\n        /* \"#utility.yul\":590:678   */\n      mstore\n        /* \"#utility.yul\":697:701   */\n      0x11\n        /* \"#utility.yul\":694:695   */\n      0x04\n        /* \"#utility.yul\":687:702   */\n      mstore\n        /* \"#utility.yul\":721:725   */\n      0x24\n        /* \"#utility.yul\":718:719   */\n      0x00\n        /* \"#utility.yul\":711:726   */\n      revert\n        /* \"#utility.yul\":738:929   */\n    tag_10:\n        /* \"#utility.yul\":778:781   */\n      0x00\n        /* \"#utility.yul\":797:817   */\n      tag_25\n        /* \"#utility.yul\":815:816   */\n      dup3\n        /* \"#utility.yul\":797:817   */\n      tag_13\n      jump\t// in\n    tag_25:\n        /* \"#utility.yul\":792:817   */\n      swap2\n      pop\n        /* \"#utility.yul\":831:851   */\n      tag_26\n        /* \"#utility.yul\":849:850   */\n      dup4\n        /* \"#utility.yul\":831:851   */\n      tag_13\n      jump\t// in\n    tag_26:\n        /* \"#utility.yul\":826:851   */\n      swap3\n      pop\n        /* \"#utility.yul\":874:875   */\n      dup3\n        /* \"#utility.yul\":871:872   */\n      dup3\n        /* \"#utility.yul\":867:876   */\n      add\n        /* \"#utility.yul\":860:876   */\n      swap1\n      pop\n        /* \"#utility.yul\":895:898   */\n      dup1\n        /* \"#utility.yul\":892:893   */\n      dup3\n        /* \"#utility.yul\":889:899   */\n      gt\n        /* \"#utility.yul\":886:922   */\n      iszero\n      tag_27\n      jumpi\n        /* \"#utility.yul\":902:920   */\n      tag_28\n      tag_15\n      jump\t// in\n    tag_28:\n        /* \"#utility.yul\":886:922   */\n    tag_27:\n        /* \"#utility.yul\":738:929   */\n      swap3\n      swap2\n      pop\n      pop\n      jump\t// out\n        /* \"#utility.yul\":935:1345   */\n    tag_12:\n        /* \"#utility.yul\":975:982   */\n      0x00\n        /* \"#utility.yul\":998:1018   */\n      tag_30\n        /* \"#utility.yul\":1016:1017   */\n      dup3\n        /* \"#utility.yul\":998:1018   */\n      tag_13\n      jump\t// in\n    tag_30:\n        /* \"#utility.yul\":993:1018   */\n      swap2\n      pop\n        /* \"#utility.yul\":1032:1052   */\n      tag_31\n        /* \"#utility.yul\":1050:1051   */\n      dup4\n        /* \"#utility.yul\":1032:1052   */\n      tag_13\n      jump\t// in\n    tag_31:\n        /* \"#utility.yul\":1027:1052   */\n      swap3\n      pop\n        /* \"#utility.yul\":1087:1088   */\n      dup3\n        /* \"#utility.yul\":1084:1085   */\n      dup3\n        /* \"#utility.yul\":1080:1089   */\n      mul\n        /* \"#utility.yul\":1109:1139   */\n      tag_32\n        /* \"#utility.yul\":1127:1138   */\n      dup2\n        /* \"#utility.yul\":1109:1139   */\n      tag_13\n      jump\t// in\n    tag_32:\n        /* \"#utility.yul\":1098:1139   */\n      swap2\n      pop\n        /* \"#utility.yul\":1288:1289   */\n      dup3\n        /* \"#utility.yul\":1279:1286   */\n      dup3\n        /* \"#utility.yul\":1275:1290   */\n      div\n        /* \"#utility.yul\":1272:1273   */\n      dup5\n        /* \"#utility.yul\":1269:1291   */\n      eq\n        /* \"#utility.yul\":1249:1250   */\n      dup4\n        /* \"#utility.yul\":1242:1251   */\n      iszero\n        /* \"#utility.yul\":1222:1305   */\n      or\n        /* \"#utility.yul\":1199:1338   */\n      tag_33\n      jumpi\n        /* \"#utility.yul\":1318:1336   */\n      tag_34\n      tag_15\n      jump\t// in\n    tag_34:\n        /* \"#utility.yul\":1199:1338   */\n    tag_33:\n        /* \"#utility.yul\":983:1345   */\n      pop\n        /* \"#utility.yul\":935:1345   */\n      swap3\n      swap2\n      pop\n      pop\n      jump\t// out\n\n    auxdata: 0xa2646970667358221220fb5fd53032cecf546d7dde1671625400d58104a4b2ffe879bad03fab8e397b7164736f6c63430008190033\n}\n",
				"bytecode": {
					"linkReferences": {},
					"object": "608060405260225f55600a6001553480156017575f80fd5b5061019a806100255f395ff3fe608060405234801561000f575f80fd5b5060043610610029575f3560e01c80633bc5de301461002d575b5f80fd5b61003561004c565b60405161004392919061009c565b60405180910390f35b5f805f602890505f603890505f818361006591906100f0565b90505f82846100749190610123565b9050818195509550505050509091565b5f819050919050565b61009681610084565b82525050565b5f6040820190506100af5f83018561008d565b6100bc602083018461008d565b9392505050565b7f4e487b71000000000000000000000000000000000000000000000000000000005f52601160045260245ffd5b5f6100fa82610084565b915061010583610084565b925082820190508082111561011d5761011c6100c3565b5b92915050565b5f61012d82610084565b915061013883610084565b925082820261014681610084565b9150828204841483151761015d5761015c6100c3565b5b509291505056fea2646970667358221220fb5fd53032cecf546d7dde1671625400d58104a4b2ffe879bad03fab8e397b7164736f6c63430008190033",
					"opcodes": "PUSH1 0x80 PUSH1 0x40 MSTORE PUSH1 0x22 PUSH0 SSTORE PUSH1 0xA PUSH1 0x1 SSTORE CALLVALUE DUP1 ISZERO PUSH1 0x17 JUMPI PUSH0 DUP1 REVERT JUMPDEST POP PUSH2 0x19A DUP1 PUSH2 0x25 PUSH0 CODECOPY PUSH0 RETURN INVALID PUSH1 0x80 PUSH1 0x40 MSTORE CALLVALUE DUP1 ISZERO PUSH2 0xF JUMPI PUSH0 DUP1 REVERT JUMPDEST POP PUSH1 0x4 CALLDATASIZE LT PUSH2 0x29 JUMPI PUSH0 CALLDATALOAD PUSH1 0xE0 SHR DUP1 PUSH4 0x3BC5DE30 EQ PUSH2 0x2D JUMPI JUMPDEST PUSH0 DUP1 REVERT JUMPDEST PUSH2 0x35 PUSH2 0x4C JUMP JUMPDEST PUSH1 0x40 MLOAD PUSH2 0x43 SWAP3 SWAP2 SWAP1 PUSH2 0x9C JUMP JUMPDEST PUSH1 0x40 MLOAD DUP1 SWAP2 SUB SWAP1 RETURN JUMPDEST PUSH0 DUP1 PUSH0 PUSH1 0x28 SWAP1 POP PUSH0 PUSH1 0x38 SWAP1 POP PUSH0 DUP2 DUP4 PUSH2 0x65 SWAP2 SWAP1 PUSH2 0xF0 JUMP JUMPDEST SWAP1 POP PUSH0 DUP3 DUP5 PUSH2 0x74 SWAP2 SWAP1 PUSH2 0x123 JUMP JUMPDEST SWAP1 POP DUP2 DUP2 SWAP6 POP SWAP6 POP POP POP POP POP SWAP1 SWAP2 JUMP JUMPDEST PUSH0 DUP2 SWAP1 POP SWAP2 SWAP1 POP JUMP JUMPDEST PUSH2 0x96 DUP2 PUSH2 0x84 JUMP JUMPDEST DUP3 MSTORE POP POP JUMP JUMPDEST PUSH0 PUSH1 0x40 DUP3 ADD SWAP1 POP PUSH2 0xAF PUSH0 DUP4 ADD DUP6 PUSH2 0x8D JUMP JUMPDEST PUSH2 0xBC PUSH1 0x20 DUP4 ADD DUP5 PUSH2 0x8D JUMP JUMPDEST SWAP4 SWAP3 POP POP POP JUMP JUMPDEST PUSH32 0x4E487B7100000000000000000000000000000000000000000000000000000000 PUSH0 MSTORE PUSH1 0x11 PUSH1 0x4 MSTORE PUSH1 0x24 PUSH0 REVERT JUMPDEST PUSH0 PUSH2 0xFA DUP3 PUSH2 0x84 JUMP JUMPDEST SWAP2 POP PUSH2 0x105 DUP4 PUSH2 0x84 JUMP JUMPDEST SWAP3 POP DUP3 DUP3 ADD SWAP1 POP DUP1 DUP3 GT ISZERO PUSH2 0x11D JUMPI PUSH2 0x11C PUSH2 0xC3 JUMP JUMPDEST JUMPDEST SWAP3 SWAP2 POP POP JUMP JUMPDEST PUSH0 PUSH2 0x12D DUP3 PUSH2 0x84 JUMP JUMPDEST SWAP2 POP PUSH2 0x138 DUP4 PUSH2 0x84 JUMP JUMPDEST SWAP3 POP DUP3 DUP3 MUL PUSH2 0x146 DUP2 PUSH2 0x84 JUMP JUMPDEST SWAP2 POP DUP3 DUP3 DIV DUP5 EQ DUP4 ISZERO OR PUSH2 0x15D JUMPI PUSH2 0x15C PUSH2 0xC3 JUMP JUMPDEST JUMPDEST POP SWAP3 SWAP2 POP POP JUMP INVALID LOG2 PUSH5 0x6970667358 0x22 SLT KECCAK256 0xFB PUSH0 0xD5 ADDRESS ORIGIN 0xCE 0xCF SLOAD PUSH14 0x7DDE1671625400D58104A4B2FFE8 PUSH26 0xBAD03FAB8E397B7164736F6C6343000819003300000000000000 "
				},
				"gasEstimates": {
					"creation": {
						"codeDepositCost": "82000",
						"executionCost": "44338",
						"totalCost": "126338"
					},
					"external": {
						"getData()": "infinite"
					}
				},
				"methodIdentifiers": {
					"getData()": "3bc5de30"
				}
			},
			"storageLayout": {
				"storage": [
					{
						"astId": 4,
						"contract": "Pure.sol:Pure",
						"label": "num1",
						"offset": 0,
						"slot": "0",
						"type": "t_uint256"
					},
					{
						"astId": 7,
						"contract": "Pure.sol:Pure",
						"label": "num2",
						"offset": 0,
						"slot": "1",
						"type": "t_uint256"
					}
				],
				"types": {
					"t_uint256": {
						"encoding": "inplace",
						"label": "uint256",
						"numberOfBytes": "32"
					}
				}
			},
			"userdoc": {
				"kind": "user",
				"methods": {},
				"version": 1
			}
		}
	}
}