{
	"Stracts/Stracts.sol": {
		"Todes": {
			"abi": [
				{
					"inputs": [
						{
							"internalType": "string",
							"name": "_text",
							"type": "string"
						}
					],
					"name": "create",
					"outputs": [],
					"stateMutability": "nonpayable",
					"type": "function"
				},
				{
					"inputs": [
						{
							"internalType": "uint256",
							"name": "_index",
							"type": "uint256"
						}
					],
					"name": "get",
					"outputs": [
						{
							"internalType": "string",
							"name": "text",
							"type": "string"
						},
						{
							"internalType": "bool",
							"name": "completed",
							"type": "bool"
						}
					],
					"stateMutability": "view",
					"type": "function"
				},
				{
					"inputs": [
						{
							"internalType": "uint256",
							"name": "",
							"type": "uint256"
						}
					],
					"name": "todos",
					"outputs": [
						{
							"internalType": "string",
							"name": "text",
							"type": "string"
						},
						{
							"internalType": "bool",
							"name": "completed",
							"type": "bool"
						}
					],
					"stateMutability": "view",
					"type": "function"
				},
				{
					"inputs": [
						{
							"internalType": "uint256",
							"name": "_index",
							"type": "uint256"
						}
					],
					"name": "toggleCompleted",
					"outputs": [],
					"stateMutability": "nonpayable",
					"type": "function"
				},
				{
					"inputs": [
						{
							"internalType": "uint256",
							"name": "_index",
							"type": "uint256"
						},
						{
							"internalType": "string",
							"name": "_text",
							"type": "string"
						}
					],
					"name": "updateText",
					"outputs": [],
					"stateMutability": "nonpayable",
					"type": "function"
				}
			],
			"devdoc": {
				"kind": "dev",
				"methods": {},
				"version": 1
			},
			"evm": {
				"assembly": "    /* \"Stracts/Stracts.sol\":59:1354  contract Todes {... */\n  mstore(0x40, 0x80)\n  callvalue\n  dup1\n  iszero\n  tag_1\n  jumpi\n  0x00\n  dup1\n  revert\ntag_1:\n  pop\n  dataSize(sub_0)\n  dup1\n  dataOffset(sub_0)\n  0x00\n  codecopy\n  0x00\n  return\nstop\n\nsub_0: assembly {\n        /* \"Stracts/Stracts.sol\":59:1354  contract Todes {... */\n      mstore(0x40, 0x80)\n      callvalue\n      dup1\n      iszero\n      tag_1\n      jumpi\n      0x00\n      dup1\n      revert\n    tag_1:\n      pop\n      jumpi(tag_2, lt(calldatasize, 0x04))\n      shr(0xe0, calldataload(0x00))\n      dup1\n      0x455f5024\n      eq\n      tag_3\n      jumpi\n      dup1\n      0x9507d39a\n      eq\n      tag_4\n      jumpi\n      dup1\n      0xb6a46b3b\n      eq\n      tag_5\n      jumpi\n      dup1\n      0xbc8bc2b4\n      eq\n      tag_6\n      jumpi\n      dup1\n      0xcd111614\n      eq\n      tag_7\n      jumpi\n    tag_2:\n      0x00\n      dup1\n      revert\n        /* \"Stracts/Stracts.sol\":1212:1352  function toggleCompleted(uint256 _index) public {... */\n    tag_3:\n      tag_8\n      0x04\n      dup1\n      calldatasize\n      sub\n      dup2\n      add\n      swap1\n      tag_9\n      swap2\n      swap1\n      tag_10\n      jump\t// in\n    tag_9:\n      tag_11\n      jump\t// in\n    tag_8:\n      stop\n        /* \"Stracts/Stracts.sol\":803:1011  function get(uint256 _index)... */\n    tag_4:\n      tag_12\n      0x04\n      dup1\n      calldatasize\n      sub\n      dup2\n      add\n      swap1\n      tag_13\n      swap2\n      swap1\n      tag_10\n      jump\t// in\n    tag_13:\n      tag_14\n      jump\t// in\n    tag_12:\n      mload(0x40)\n      tag_15\n      swap3\n      swap2\n      swap1\n      tag_16\n      jump\t// in\n    tag_15:\n      mload(0x40)\n      dup1\n      swap2\n      sub\n      swap1\n      return\n        /* \"Stracts/Stracts.sol\":210:688  function create(string memory _text) public {... */\n    tag_5:\n      tag_17\n      0x04\n      dup1\n      calldatasize\n      sub\n      dup2\n      add\n      swap1\n      tag_18\n      swap2\n      swap1\n      tag_19\n      jump\t// in\n    tag_18:\n      tag_20\n      jump\t// in\n    tag_17:\n      stop\n        /* \"Stracts/Stracts.sol\":184:203  Todo[] public todos */\n    tag_6:\n      tag_21\n      0x04\n      dup1\n      calldatasize\n      sub\n      dup2\n      add\n      swap1\n      tag_22\n      swap2\n      swap1\n      tag_10\n      jump\t// in\n    tag_22:\n      tag_23\n      jump\t// in\n    tag_21:\n      mload(0x40)\n      tag_24\n      swap3\n      swap2\n      swap1\n      tag_16\n      jump\t// in\n    tag_24:\n      mload(0x40)\n      dup1\n      swap2\n      sub\n      swap1\n      return\n        /* \"Stracts/Stracts.sol\":1036:1179  function updateText(uint256 _index, string calldata _text) public {... */\n    tag_7:\n      tag_25\n      0x04\n      dup1\n      calldatasize\n      sub\n      dup2\n      add\n      swap1\n      tag_26\n      swap2\n      swap1\n      tag_27\n      jump\t// in\n    tag_26:\n      tag_28\n      jump\t// in\n    tag_25:\n      stop\n        /* \"Stracts/Stracts.sol\":1212:1352  function toggleCompleted(uint256 _index) public {... */\n    tag_11:\n        /* \"Stracts/Stracts.sol\":1270:1287  Todo storage todo */\n      0x00\n        /* \"Stracts/Stracts.sol\":1290:1295  todos */\n      dup1\n        /* \"Stracts/Stracts.sol\":1296:1302  _index */\n      dup3\n        /* \"Stracts/Stracts.sol\":1290:1303  todos[_index] */\n      dup2\n      sload\n      dup2\n      lt\n      tag_30\n      jumpi\n      tag_31\n      tag_32\n      jump\t// in\n    tag_31:\n    tag_30:\n      swap1\n      0x00\n      mstore\n      keccak256(0x00, 0x20)\n      swap1\n      0x02\n      mul\n      add\n        /* \"Stracts/Stracts.sol\":1270:1303  Todo storage todo = todos[_index] */\n      swap1\n      pop\n        /* \"Stracts/Stracts.sol\":1331:1335  todo */\n      dup1\n        /* \"Stracts/Stracts.sol\":1331:1345  todo.completed */\n      0x01\n      add\n      0x00\n      swap1\n      sload\n      swap1\n      0x0100\n      exp\n      swap1\n      div\n      0xff\n      and\n        /* \"Stracts/Stracts.sol\":1330:1345  !todo.completed */\n      iszero\n        /* \"Stracts/Stracts.sol\":1313:1317  todo */\n      dup2\n        /* \"Stracts/Stracts.sol\":1313:1327  todo.completed */\n      0x01\n      add\n      0x00\n        /* \"Stracts/Stracts.sol\":1313:1345  todo.completed = !todo.completed */\n      0x0100\n      exp\n      dup2\n      sload\n      dup2\n      0xff\n      mul\n      not\n      and\n      swap1\n      dup4\n      iszero\n      iszero\n      mul\n      or\n      swap1\n      sstore\n      pop\n        /* \"Stracts/Stracts.sol\":1260:1352  {... */\n      pop\n        /* \"Stracts/Stracts.sol\":1212:1352  function toggleCompleted(uint256 _index) public {... */\n      pop\n      jump\t// out\n        /* \"Stracts/Stracts.sol\":803:1011  function get(uint256 _index)... */\n    tag_14:\n        /* \"Stracts/Stracts.sol\":877:895  string memory text */\n      0x60\n        /* \"Stracts/Stracts.sol\":897:911  bool completed */\n      0x00\n        /* \"Stracts/Stracts.sol\":927:944  Todo storage todo */\n      dup1\n        /* \"Stracts/Stracts.sol\":947:952  todos */\n      0x00\n        /* \"Stracts/Stracts.sol\":953:959  _index */\n      dup5\n        /* \"Stracts/Stracts.sol\":947:960  todos[_index] */\n      dup2\n      sload\n      dup2\n      lt\n      tag_35\n      jumpi\n      tag_36\n      tag_32\n      jump\t// in\n    tag_36:\n    tag_35:\n      swap1\n      0x00\n      mstore\n      keccak256(0x00, 0x20)\n      swap1\n      0x02\n      mul\n      add\n        /* \"Stracts/Stracts.sol\":927:960  Todo storage todo = todos[_index] */\n      swap1\n      pop\n        /* \"Stracts/Stracts.sol\":978:982  todo */\n      dup1\n        /* \"Stracts/Stracts.sol\":978:987  todo.text */\n      0x00\n      add\n        /* \"Stracts/Stracts.sol\":989:993  todo */\n      dup2\n        /* \"Stracts/Stracts.sol\":989:1003  todo.completed */\n      0x01\n      add\n      0x00\n      swap1\n      sload\n      swap1\n      0x0100\n      exp\n      swap1\n      div\n      0xff\n      and\n        /* \"Stracts/Stracts.sol\":970:1004  return (todo.text, todo.completed) */\n      dup2\n      dup1\n      sload\n      tag_38\n      swap1\n      tag_39\n      jump\t// in\n    tag_38:\n      dup1\n      0x1f\n      add\n      0x20\n      dup1\n      swap2\n      div\n      mul\n      0x20\n      add\n      mload(0x40)\n      swap1\n      dup2\n      add\n      0x40\n      mstore\n      dup1\n      swap3\n      swap2\n      swap1\n      dup2\n      dup2\n      mstore\n      0x20\n      add\n      dup3\n      dup1\n      sload\n      tag_40\n      swap1\n      tag_39\n      jump\t// in\n    tag_40:\n      dup1\n      iszero\n      tag_41\n      jumpi\n      dup1\n      0x1f\n      lt\n      tag_42\n      jumpi\n      0x0100\n      dup1\n      dup4\n      sload\n      div\n      mul\n      dup4\n      mstore\n      swap2\n      0x20\n      add\n      swap2\n      jump(tag_41)\n    tag_42:\n      dup3\n      add\n      swap2\n      swap1\n      0x00\n      mstore\n      keccak256(0x00, 0x20)\n      swap1\n    tag_43:\n      dup2\n      sload\n      dup2\n      mstore\n      swap1\n      0x01\n      add\n      swap1\n      0x20\n      add\n      dup1\n      dup4\n      gt\n      tag_43\n      jumpi\n      dup3\n      swap1\n      sub\n      0x1f\n      and\n      dup3\n      add\n      swap2\n    tag_41:\n      pop\n      pop\n      pop\n      pop\n      pop\n      swap2\n      pop\n      swap3\n      pop\n      swap3\n      pop\n      pop\n        /* \"Stracts/Stracts.sol\":803:1011  function get(uint256 _index)... */\n      swap2\n      pop\n      swap2\n      jump\t// out\n        /* \"Stracts/Stracts.sol\":210:688  function create(string memory _text) public {... */\n    tag_20:\n        /* \"Stracts/Stracts.sol\":349:354  todos */\n      0x00\n        /* \"Stracts/Stracts.sol\":360:378  Todo(_text, false) */\n      mload(0x40)\n      dup1\n      0x40\n      add\n      0x40\n      mstore\n      dup1\n        /* \"Stracts/Stracts.sol\":365:370  _text */\n      dup4\n        /* \"Stracts/Stracts.sol\":360:378  Todo(_text, false) */\n      dup2\n      mstore\n      0x20\n      add\n        /* \"Stracts/Stracts.sol\":372:377  false */\n      0x00\n        /* \"Stracts/Stracts.sol\":360:378  Todo(_text, false) */\n      iszero\n      iszero\n      dup2\n      mstore\n      pop\n        /* \"Stracts/Stracts.sol\":349:379  todos.push(Todo(_text, false)) */\n      swap1\n      dup1\n      0x01\n      dup2\n      sload\n      add\n      dup1\n      dup3\n      sstore\n      dup1\n      swap2\n      pop\n      pop\n      0x01\n      swap1\n      sub\n      swap1\n      0x00\n      mstore\n      keccak256(0x00, 0x20)\n      swap1\n      0x02\n      mul\n      add\n      0x00\n      swap1\n      swap2\n      swap1\n      swap2\n      swap1\n      swap2\n      pop\n      0x00\n      dup3\n      add\n      mload\n      dup2\n      0x00\n      add\n      swap1\n      dup2\n      tag_46\n      swap2\n      swap1\n      tag_47\n      jump\t// in\n    tag_46:\n      pop\n      0x20\n      dup3\n      add\n      mload\n      dup2\n      0x01\n      add\n      exp(0x0100, 0x00)\n      dup2\n      sload\n      dup2\n      0xff\n      mul\n      not\n      and\n      swap1\n      dup4\n      iszero\n      iszero\n      mul\n      or\n      swap1\n      sstore\n      pop\n      pop\n      pop\n        /* \"Stracts/Stracts.sol\":210:688  function create(string memory _text) public {... */\n      pop\n      jump\t// out\n        /* \"Stracts/Stracts.sol\":184:203  Todo[] public todos */\n    tag_23:\n      0x00\n      dup2\n      dup2\n      sload\n      dup2\n      lt\n      tag_48\n      jumpi\n      0x00\n      dup1\n      revert\n    tag_48:\n      swap1\n      0x00\n      mstore\n      keccak256(0x00, 0x20)\n      swap1\n      0x02\n      mul\n      add\n      0x00\n      swap2\n      pop\n      swap1\n      pop\n      dup1\n      0x00\n      add\n      dup1\n      sload\n      tag_50\n      swap1\n      tag_39\n      jump\t// in\n    tag_50:\n      dup1\n      0x1f\n      add\n      0x20\n      dup1\n      swap2\n      div\n      mul\n      0x20\n      add\n      mload(0x40)\n      swap1\n      dup2\n      add\n      0x40\n      mstore\n      dup1\n      swap3\n      swap2\n      swap1\n      dup2\n      dup2\n      mstore\n      0x20\n      add\n      dup3\n      dup1\n      sload\n      tag_51\n      swap1\n      tag_39\n      jump\t// in\n    tag_51:\n      dup1\n      iszero\n      tag_52\n      jumpi\n      dup1\n      0x1f\n      lt\n      tag_53\n      jumpi\n      0x0100\n      dup1\n      dup4\n      sload\n      div\n      mul\n      dup4\n      mstore\n      swap2\n      0x20\n      add\n      swap2\n      jump(tag_52)\n    tag_53:\n      dup3\n      add\n      swap2\n      swap1\n      0x00\n      mstore\n      keccak256(0x00, 0x20)\n      swap1\n    tag_54:\n      dup2\n      sload\n      dup2\n      mstore\n      swap1\n      0x01\n      add\n      swap1\n      0x20\n      add\n      dup1\n      dup4\n      gt\n      tag_54\n      jumpi\n      dup3\n      swap1\n      sub\n      0x1f\n      and\n      dup3\n      add\n      swap2\n    tag_52:\n      pop\n      pop\n      pop\n      pop\n      pop\n      swap1\n      dup1\n      0x01\n      add\n      0x00\n      swap1\n      sload\n      swap1\n      0x0100\n      exp\n      swap1\n      div\n      0xff\n      and\n      swap1\n      pop\n      dup3\n      jump\t// out\n        /* \"Stracts/Stracts.sol\":1036:1179  function updateText(uint256 _index, string calldata _text) public {... */\n    tag_28:\n        /* \"Stracts/Stracts.sol\":1112:1129  Todo storage todo */\n      0x00\n        /* \"Stracts/Stracts.sol\":1132:1137  todos */\n      dup1\n        /* \"Stracts/Stracts.sol\":1138:1144  _index */\n      dup5\n        /* \"Stracts/Stracts.sol\":1132:1145  todos[_index] */\n      dup2\n      sload\n      dup2\n      lt\n      tag_56\n      jumpi\n      tag_57\n      tag_32\n      jump\t// in\n    tag_57:\n    tag_56:\n      swap1\n      0x00\n      mstore\n      keccak256(0x00, 0x20)\n      swap1\n      0x02\n      mul\n      add\n        /* \"Stracts/Stracts.sol\":1112:1145  Todo storage todo = todos[_index] */\n      swap1\n      pop\n        /* \"Stracts/Stracts.sol\":1167:1172  _text */\n      dup3\n      dup3\n        /* \"Stracts/Stracts.sol\":1155:1159  todo */\n      dup3\n        /* \"Stracts/Stracts.sol\":1155:1164  todo.text */\n      0x00\n      add\n        /* \"Stracts/Stracts.sol\":1155:1172  todo.text = _text */\n      swap2\n      dup3\n      tag_59\n      swap3\n      swap2\n      swap1\n      tag_60\n      jump\t// in\n    tag_59:\n      pop\n        /* \"Stracts/Stracts.sol\":1102:1179  {... */\n      pop\n        /* \"Stracts/Stracts.sol\":1036:1179  function updateText(uint256 _index, string calldata _text) public {... */\n      pop\n      pop\n      pop\n      jump\t// out\n        /* \"#utility.yul\":7:82   */\n    tag_61:\n        /* \"#utility.yul\":40:46   */\n      0x00\n        /* \"#utility.yul\":73:75   */\n      0x40\n        /* \"#utility.yul\":67:76   */\n      mload\n        /* \"#utility.yul\":57:76   */\n      swap1\n      pop\n        /* \"#utility.yul\":7:82   */\n      swap1\n      jump\t// out\n        /* \"#utility.yul\":88:205   */\n    tag_62:\n        /* \"#utility.yul\":197:198   */\n      0x00\n        /* \"#utility.yul\":194:195   */\n      dup1\n        /* \"#utility.yul\":187:199   */\n      revert\n        /* \"#utility.yul\":211:328   */\n    tag_63:\n        /* \"#utility.yul\":320:321   */\n      0x00\n        /* \"#utility.yul\":317:318   */\n      dup1\n        /* \"#utility.yul\":310:322   */\n      revert\n        /* \"#utility.yul\":334:411   */\n    tag_64:\n        /* \"#utility.yul\":371:378   */\n      0x00\n        /* \"#utility.yul\":400:405   */\n      dup2\n        /* \"#utility.yul\":389:405   */\n      swap1\n      pop\n        /* \"#utility.yul\":334:411   */\n      swap2\n      swap1\n      pop\n      jump\t// out\n        /* \"#utility.yul\":417:539   */\n    tag_65:\n        /* \"#utility.yul\":490:514   */\n      tag_109\n        /* \"#utility.yul\":508:513   */\n      dup2\n        /* \"#utility.yul\":490:514   */\n      tag_64\n      jump\t// in\n    tag_109:\n        /* \"#utility.yul\":483:488   */\n      dup2\n        /* \"#utility.yul\":480:515   */\n      eq\n        /* \"#utility.yul\":470:533   */\n      tag_110\n      jumpi\n        /* \"#utility.yul\":529:530   */\n      0x00\n        /* \"#utility.yul\":526:527   */\n      dup1\n        /* \"#utility.yul\":519:531   */\n      revert\n        /* \"#utility.yul\":470:533   */\n    tag_110:\n        /* \"#utility.yul\":417:539   */\n      pop\n      jump\t// out\n        /* \"#utility.yul\":545:684   */\n    tag_66:\n        /* \"#utility.yul\":591:596   */\n      0x00\n        /* \"#utility.yul\":629:635   */\n      dup2\n        /* \"#utility.yul\":616:636   */\n      calldataload\n        /* \"#utility.yul\":607:636   */\n      swap1\n      pop\n        /* \"#utility.yul\":645:678   */\n      tag_112\n        /* \"#utility.yul\":672:677   */\n      dup2\n        /* \"#utility.yul\":645:678   */\n      tag_65\n      jump\t// in\n    tag_112:\n        /* \"#utility.yul\":545:684   */\n      swap3\n      swap2\n      pop\n      pop\n      jump\t// out\n        /* \"#utility.yul\":690:1019   */\n    tag_10:\n        /* \"#utility.yul\":749:755   */\n      0x00\n        /* \"#utility.yul\":798:800   */\n      0x20\n        /* \"#utility.yul\":786:795   */\n      dup3\n        /* \"#utility.yul\":777:784   */\n      dup5\n        /* \"#utility.yul\":773:796   */\n      sub\n        /* \"#utility.yul\":769:801   */\n      slt\n        /* \"#utility.yul\":766:885   */\n      iszero\n      tag_114\n      jumpi\n        /* \"#utility.yul\":804:883   */\n      tag_115\n      tag_62\n      jump\t// in\n    tag_115:\n        /* \"#utility.yul\":766:885   */\n    tag_114:\n        /* \"#utility.yul\":924:925   */\n      0x00\n        /* \"#utility.yul\":949:1002   */\n      tag_116\n        /* \"#utility.yul\":994:1001   */\n      dup5\n        /* \"#utility.yul\":985:991   */\n      dup3\n        /* \"#utility.yul\":974:983   */\n      dup6\n        /* \"#utility.yul\":970:992   */\n      add\n        /* \"#utility.yul\":949:1002   */\n      tag_66\n      jump\t// in\n    tag_116:\n        /* \"#utility.yul\":939:1002   */\n      swap2\n      pop\n        /* \"#utility.yul\":895:1012   */\n      pop\n        /* \"#utility.yul\":690:1019   */\n      swap3\n      swap2\n      pop\n      pop\n      jump\t// out\n        /* \"#utility.yul\":1025:1124   */\n    tag_67:\n        /* \"#utility.yul\":1077:1083   */\n      0x00\n        /* \"#utility.yul\":1111:1116   */\n      dup2\n        /* \"#utility.yul\":1105:1117   */\n      mload\n        /* \"#utility.yul\":1095:1117   */\n      swap1\n      pop\n        /* \"#utility.yul\":1025:1124   */\n      swap2\n      swap1\n      pop\n      jump\t// out\n        /* \"#utility.yul\":1130:1299   */\n    tag_68:\n        /* \"#utility.yul\":1214:1225   */\n      0x00\n        /* \"#utility.yul\":1248:1254   */\n      dup3\n        /* \"#utility.yul\":1243:1246   */\n      dup3\n        /* \"#utility.yul\":1236:1255   */\n      mstore\n        /* \"#utility.yul\":1288:1292   */\n      0x20\n        /* \"#utility.yul\":1283:1286   */\n      dup3\n        /* \"#utility.yul\":1279:1293   */\n      add\n        /* \"#utility.yul\":1264:1293   */\n      swap1\n      pop\n        /* \"#utility.yul\":1130:1299   */\n      swap3\n      swap2\n      pop\n      pop\n      jump\t// out\n        /* \"#utility.yul\":1305:1444   */\n    tag_69:\n        /* \"#utility.yul\":1394:1400   */\n      dup3\n        /* \"#utility.yul\":1389:1392   */\n      dup2\n        /* \"#utility.yul\":1384:1387   */\n      dup4\n        /* \"#utility.yul\":1378:1401   */\n      mcopy\n        /* \"#utility.yul\":1435:1436   */\n      0x00\n        /* \"#utility.yul\":1426:1432   */\n      dup4\n        /* \"#utility.yul\":1421:1424   */\n      dup4\n        /* \"#utility.yul\":1417:1433   */\n      add\n        /* \"#utility.yul\":1410:1437   */\n      mstore\n        /* \"#utility.yul\":1305:1444   */\n      pop\n      pop\n      pop\n      jump\t// out\n        /* \"#utility.yul\":1450:1552   */\n    tag_70:\n        /* \"#utility.yul\":1491:1497   */\n      0x00\n        /* \"#utility.yul\":1542:1544   */\n      0x1f\n        /* \"#utility.yul\":1538:1545   */\n      not\n        /* \"#utility.yul\":1533:1535   */\n      0x1f\n        /* \"#utility.yul\":1526:1531   */\n      dup4\n        /* \"#utility.yul\":1522:1536   */\n      add\n        /* \"#utility.yul\":1518:1546   */\n      and\n        /* \"#utility.yul\":1508:1546   */\n      swap1\n      pop\n        /* \"#utility.yul\":1450:1552   */\n      swap2\n      swap1\n      pop\n      jump\t// out\n        /* \"#utility.yul\":1558:1935   */\n    tag_71:\n        /* \"#utility.yul\":1646:1649   */\n      0x00\n        /* \"#utility.yul\":1674:1713   */\n      tag_122\n        /* \"#utility.yul\":1707:1712   */\n      dup3\n        /* \"#utility.yul\":1674:1713   */\n      tag_67\n      jump\t// in\n    tag_122:\n        /* \"#utility.yul\":1729:1800   */\n      tag_123\n        /* \"#utility.yul\":1793:1799   */\n      dup2\n        /* \"#utility.yul\":1788:1791   */\n      dup6\n        /* \"#utility.yul\":1729:1800   */\n      tag_68\n      jump\t// in\n    tag_123:\n        /* \"#utility.yul\":1722:1800   */\n      swap4\n      pop\n        /* \"#utility.yul\":1809:1874   */\n      tag_124\n        /* \"#utility.yul\":1867:1873   */\n      dup2\n        /* \"#utility.yul\":1862:1865   */\n      dup6\n        /* \"#utility.yul\":1855:1859   */\n      0x20\n        /* \"#utility.yul\":1848:1853   */\n      dup7\n        /* \"#utility.yul\":1844:1860   */\n      add\n        /* \"#utility.yul\":1809:1874   */\n      tag_69\n      jump\t// in\n    tag_124:\n        /* \"#utility.yul\":1899:1928   */\n      tag_125\n        /* \"#utility.yul\":1921:1927   */\n      dup2\n        /* \"#utility.yul\":1899:1928   */\n      tag_70\n      jump\t// in\n    tag_125:\n        /* \"#utility.yul\":1894:1897   */\n      dup5\n        /* \"#utility.yul\":1890:1929   */\n      add\n        /* \"#utility.yul\":1883:1929   */\n      swap2\n      pop\n        /* \"#utility.yul\":1650:1935   */\n      pop\n        /* \"#utility.yul\":1558:1935   */\n      swap3\n      swap2\n      pop\n      pop\n      jump\t// out\n        /* \"#utility.yul\":1941:2031   */\n    tag_72:\n        /* \"#utility.yul\":1975:1982   */\n      0x00\n        /* \"#utility.yul\":2018:2023   */\n      dup2\n        /* \"#utility.yul\":2011:2024   */\n      iszero\n        /* \"#utility.yul\":2004:2025   */\n      iszero\n        /* \"#utility.yul\":1993:2025   */\n      swap1\n      pop\n        /* \"#utility.yul\":1941:2031   */\n      swap2\n      swap1\n      pop\n      jump\t// out\n        /* \"#utility.yul\":2037:2146   */\n    tag_73:\n        /* \"#utility.yul\":2118:2139   */\n      tag_128\n        /* \"#utility.yul\":2133:2138   */\n      dup2\n        /* \"#utility.yul\":2118:2139   */\n      tag_72\n      jump\t// in\n    tag_128:\n        /* \"#utility.yul\":2113:2116   */\n      dup3\n        /* \"#utility.yul\":2106:2140   */\n      mstore\n        /* \"#utility.yul\":2037:2146   */\n      pop\n      pop\n      jump\t// out\n        /* \"#utility.yul\":2152:2563   */\n    tag_16:\n        /* \"#utility.yul\":2287:2291   */\n      0x00\n        /* \"#utility.yul\":2325:2327   */\n      0x40\n        /* \"#utility.yul\":2314:2323   */\n      dup3\n        /* \"#utility.yul\":2310:2328   */\n      add\n        /* \"#utility.yul\":2302:2328   */\n      swap1\n      pop\n        /* \"#utility.yul\":2374:2383   */\n      dup2\n        /* \"#utility.yul\":2368:2372   */\n      dup2\n        /* \"#utility.yul\":2364:2384   */\n      sub\n        /* \"#utility.yul\":2360:2361   */\n      0x00\n        /* \"#utility.yul\":2349:2358   */\n      dup4\n        /* \"#utility.yul\":2345:2362   */\n      add\n        /* \"#utility.yul\":2338:2385   */\n      mstore\n        /* \"#utility.yul\":2402:2480   */\n      tag_130\n        /* \"#utility.yul\":2475:2479   */\n      dup2\n        /* \"#utility.yul\":2466:2472   */\n      dup6\n        /* \"#utility.yul\":2402:2480   */\n      tag_71\n      jump\t// in\n    tag_130:\n        /* \"#utility.yul\":2394:2480   */\n      swap1\n      pop\n        /* \"#utility.yul\":2490:2556   */\n      tag_131\n        /* \"#utility.yul\":2552:2554   */\n      0x20\n        /* \"#utility.yul\":2541:2550   */\n      dup4\n        /* \"#utility.yul\":2537:2555   */\n      add\n        /* \"#utility.yul\":2528:2534   */\n      dup5\n        /* \"#utility.yul\":2490:2556   */\n      tag_73\n      jump\t// in\n    tag_131:\n        /* \"#utility.yul\":2152:2563   */\n      swap4\n      swap3\n      pop\n      pop\n      pop\n      jump\t// out\n        /* \"#utility.yul\":2569:2686   */\n    tag_74:\n        /* \"#utility.yul\":2678:2679   */\n      0x00\n        /* \"#utility.yul\":2675:2676   */\n      dup1\n        /* \"#utility.yul\":2668:2680   */\n      revert\n        /* \"#utility.yul\":2692:2809   */\n    tag_75:\n        /* \"#utility.yul\":2801:2802   */\n      0x00\n        /* \"#utility.yul\":2798:2799   */\n      dup1\n        /* \"#utility.yul\":2791:2803   */\n      revert\n        /* \"#utility.yul\":2815:2995   */\n    tag_76:\n        /* \"#utility.yul\":2863:2940   */\n      0x4e487b7100000000000000000000000000000000000000000000000000000000\n        /* \"#utility.yul\":2860:2861   */\n      0x00\n        /* \"#utility.yul\":2853:2941   */\n      mstore\n        /* \"#utility.yul\":2960:2964   */\n      0x41\n        /* \"#utility.yul\":2957:2958   */\n      0x04\n        /* \"#utility.yul\":2950:2965   */\n      mstore\n        /* \"#utility.yul\":2984:2988   */\n      0x24\n        /* \"#utility.yul\":2981:2982   */\n      0x00\n        /* \"#utility.yul\":2974:2989   */\n      revert\n        /* \"#utility.yul\":3001:3282   */\n    tag_77:\n        /* \"#utility.yul\":3084:3111   */\n      tag_136\n        /* \"#utility.yul\":3106:3110   */\n      dup3\n        /* \"#utility.yul\":3084:3111   */\n      tag_70\n      jump\t// in\n    tag_136:\n        /* \"#utility.yul\":3076:3082   */\n      dup2\n        /* \"#utility.yul\":3072:3112   */\n      add\n        /* \"#utility.yul\":3214:3220   */\n      dup2\n        /* \"#utility.yul\":3202:3212   */\n      dup2\n        /* \"#utility.yul\":3199:3221   */\n      lt\n        /* \"#utility.yul\":3178:3196   */\n      0xffffffffffffffff\n        /* \"#utility.yul\":3166:3176   */\n      dup3\n        /* \"#utility.yul\":3163:3197   */\n      gt\n        /* \"#utility.yul\":3160:3222   */\n      or\n        /* \"#utility.yul\":3157:3245   */\n      iszero\n      tag_137\n      jumpi\n        /* \"#utility.yul\":3225:3243   */\n      tag_138\n      tag_76\n      jump\t// in\n    tag_138:\n        /* \"#utility.yul\":3157:3245   */\n    tag_137:\n        /* \"#utility.yul\":3265:3275   */\n      dup1\n        /* \"#utility.yul\":3261:3263   */\n      0x40\n        /* \"#utility.yul\":3254:3276   */\n      mstore\n        /* \"#utility.yul\":3044:3282   */\n      pop\n        /* \"#utility.yul\":3001:3282   */\n      pop\n      pop\n      jump\t// out\n        /* \"#utility.yul\":3288:3417   */\n    tag_78:\n        /* \"#utility.yul\":3322:3328   */\n      0x00\n        /* \"#utility.yul\":3349:3369   */\n      tag_140\n      tag_61\n      jump\t// in\n    tag_140:\n        /* \"#utility.yul\":3339:3369   */\n      swap1\n      pop\n        /* \"#utility.yul\":3378:3411   */\n      tag_141\n        /* \"#utility.yul\":3406:3410   */\n      dup3\n        /* \"#utility.yul\":3398:3404   */\n      dup3\n        /* \"#utility.yul\":3378:3411   */\n      tag_77\n      jump\t// in\n    tag_141:\n        /* \"#utility.yul\":3288:3417   */\n      swap2\n      swap1\n      pop\n      jump\t// out\n        /* \"#utility.yul\":3423:3731   */\n    tag_79:\n        /* \"#utility.yul\":3485:3489   */\n      0x00\n        /* \"#utility.yul\":3575:3593   */\n      0xffffffffffffffff\n        /* \"#utility.yul\":3567:3573   */\n      dup3\n        /* \"#utility.yul\":3564:3594   */\n      gt\n        /* \"#utility.yul\":3561:3617   */\n      iszero\n      tag_143\n      jumpi\n        /* \"#utility.yul\":3597:3615   */\n      tag_144\n      tag_76\n      jump\t// in\n    tag_144:\n        /* \"#utility.yul\":3561:3617   */\n    tag_143:\n        /* \"#utility.yul\":3635:3664   */\n      tag_145\n        /* \"#utility.yul\":3657:3663   */\n      dup3\n        /* \"#utility.yul\":3635:3664   */\n      tag_70\n      jump\t// in\n    tag_145:\n        /* \"#utility.yul\":3627:3664   */\n      swap1\n      pop\n        /* \"#utility.yul\":3719:3723   */\n      0x20\n        /* \"#utility.yul\":3713:3717   */\n      dup2\n        /* \"#utility.yul\":3709:3724   */\n      add\n        /* \"#utility.yul\":3701:3724   */\n      swap1\n      pop\n        /* \"#utility.yul\":3423:3731   */\n      swap2\n      swap1\n      pop\n      jump\t// out\n        /* \"#utility.yul\":3737:3885   */\n    tag_80:\n        /* \"#utility.yul\":3835:3841   */\n      dup3\n        /* \"#utility.yul\":3830:3833   */\n      dup2\n        /* \"#utility.yul\":3825:3828   */\n      dup4\n        /* \"#utility.yul\":3812:3842   */\n      calldatacopy\n        /* \"#utility.yul\":3876:3877   */\n      0x00\n        /* \"#utility.yul\":3867:3873   */\n      dup4\n        /* \"#utility.yul\":3862:3865   */\n      dup4\n        /* \"#utility.yul\":3858:3874   */\n      add\n        /* \"#utility.yul\":3851:3878   */\n      mstore\n        /* \"#utility.yul\":3737:3885   */\n      pop\n      pop\n      pop\n      jump\t// out\n        /* \"#utility.yul\":3891:4316   */\n    tag_81:\n        /* \"#utility.yul\":3969:3974   */\n      0x00\n        /* \"#utility.yul\":3994:4060   */\n      tag_148\n        /* \"#utility.yul\":4010:4059   */\n      tag_149\n        /* \"#utility.yul\":4052:4058   */\n      dup5\n        /* \"#utility.yul\":4010:4059   */\n      tag_79\n      jump\t// in\n    tag_149:\n        /* \"#utility.yul\":3994:4060   */\n      tag_78\n      jump\t// in\n    tag_148:\n        /* \"#utility.yul\":3985:4060   */\n      swap1\n      pop\n        /* \"#utility.yul\":4083:4089   */\n      dup3\n        /* \"#utility.yul\":4076:4081   */\n      dup2\n        /* \"#utility.yul\":4069:4090   */\n      mstore\n        /* \"#utility.yul\":4121:4125   */\n      0x20\n        /* \"#utility.yul\":4114:4119   */\n      dup2\n        /* \"#utility.yul\":4110:4126   */\n      add\n        /* \"#utility.yul\":4159:4162   */\n      dup5\n        /* \"#utility.yul\":4150:4156   */\n      dup5\n        /* \"#utility.yul\":4145:4148   */\n      dup5\n        /* \"#utility.yul\":4141:4157   */\n      add\n        /* \"#utility.yul\":4138:4163   */\n      gt\n        /* \"#utility.yul\":4135:4247   */\n      iszero\n      tag_150\n      jumpi\n        /* \"#utility.yul\":4166:4245   */\n      tag_151\n      tag_75\n      jump\t// in\n    tag_151:\n        /* \"#utility.yul\":4135:4247   */\n    tag_150:\n        /* \"#utility.yul\":4256:4310   */\n      tag_152\n        /* \"#utility.yul\":4303:4309   */\n      dup5\n        /* \"#utility.yul\":4298:4301   */\n      dup3\n        /* \"#utility.yul\":4293:4296   */\n      dup6\n        /* \"#utility.yul\":4256:4310   */\n      tag_80\n      jump\t// in\n    tag_152:\n        /* \"#utility.yul\":3975:4316   */\n      pop\n        /* \"#utility.yul\":3891:4316   */\n      swap4\n      swap3\n      pop\n      pop\n      pop\n      jump\t// out\n        /* \"#utility.yul\":4336:4676   */\n    tag_82:\n        /* \"#utility.yul\":4392:4397   */\n      0x00\n        /* \"#utility.yul\":4441:4444   */\n      dup3\n        /* \"#utility.yul\":4434:4438   */\n      0x1f\n        /* \"#utility.yul\":4426:4432   */\n      dup4\n        /* \"#utility.yul\":4422:4439   */\n      add\n        /* \"#utility.yul\":4418:4445   */\n      slt\n        /* \"#utility.yul\":4408:4530   */\n      tag_154\n      jumpi\n        /* \"#utility.yul\":4449:4528   */\n      tag_155\n      tag_74\n      jump\t// in\n    tag_155:\n        /* \"#utility.yul\":4408:4530   */\n    tag_154:\n        /* \"#utility.yul\":4566:4572   */\n      dup2\n        /* \"#utility.yul\":4553:4573   */\n      calldataload\n        /* \"#utility.yul\":4591:4670   */\n      tag_156\n        /* \"#utility.yul\":4666:4669   */\n      dup5\n        /* \"#utility.yul\":4658:4664   */\n      dup3\n        /* \"#utility.yul\":4651:4655   */\n      0x20\n        /* \"#utility.yul\":4643:4649   */\n      dup7\n        /* \"#utility.yul\":4639:4656   */\n      add\n        /* \"#utility.yul\":4591:4670   */\n      tag_81\n      jump\t// in\n    tag_156:\n        /* \"#utility.yul\":4582:4670   */\n      swap2\n      pop\n        /* \"#utility.yul\":4398:4676   */\n      pop\n        /* \"#utility.yul\":4336:4676   */\n      swap3\n      swap2\n      pop\n      pop\n      jump\t// out\n        /* \"#utility.yul\":4682:5191   */\n    tag_19:\n        /* \"#utility.yul\":4751:4757   */\n      0x00\n        /* \"#utility.yul\":4800:4802   */\n      0x20\n        /* \"#utility.yul\":4788:4797   */\n      dup3\n        /* \"#utility.yul\":4779:4786   */\n      dup5\n        /* \"#utility.yul\":4775:4798   */\n      sub\n        /* \"#utility.yul\":4771:4803   */\n      slt\n        /* \"#utility.yul\":4768:4887   */\n      iszero\n      tag_158\n      jumpi\n        /* \"#utility.yul\":4806:4885   */\n      tag_159\n      tag_62\n      jump\t// in\n    tag_159:\n        /* \"#utility.yul\":4768:4887   */\n    tag_158:\n        /* \"#utility.yul\":4954:4955   */\n      0x00\n        /* \"#utility.yul\":4943:4952   */\n      dup3\n        /* \"#utility.yul\":4939:4956   */\n      add\n        /* \"#utility.yul\":4926:4957   */\n      calldataload\n        /* \"#utility.yul\":4984:5002   */\n      0xffffffffffffffff\n        /* \"#utility.yul\":4976:4982   */\n      dup2\n        /* \"#utility.yul\":4973:5003   */\n      gt\n        /* \"#utility.yul\":4970:5087   */\n      iszero\n      tag_160\n      jumpi\n        /* \"#utility.yul\":5006:5085   */\n      tag_161\n      tag_63\n      jump\t// in\n    tag_161:\n        /* \"#utility.yul\":4970:5087   */\n    tag_160:\n        /* \"#utility.yul\":5111:5174   */\n      tag_162\n        /* \"#utility.yul\":5166:5173   */\n      dup5\n        /* \"#utility.yul\":5157:5163   */\n      dup3\n        /* \"#utility.yul\":5146:5155   */\n      dup6\n        /* \"#utility.yul\":5142:5164   */\n      add\n        /* \"#utility.yul\":5111:5174   */\n      tag_82\n      jump\t// in\n    tag_162:\n        /* \"#utility.yul\":5101:5174   */\n      swap2\n      pop\n        /* \"#utility.yul\":4897:5184   */\n      pop\n        /* \"#utility.yul\":4682:5191   */\n      swap3\n      swap2\n      pop\n      pop\n      jump\t// out\n        /* \"#utility.yul\":5197:5314   */\n    tag_83:\n        /* \"#utility.yul\":5306:5307   */\n      0x00\n        /* \"#utility.yul\":5303:5304   */\n      dup1\n        /* \"#utility.yul\":5296:5308   */\n      revert\n        /* \"#utility.yul\":5320:5437   */\n    tag_84:\n        /* \"#utility.yul\":5429:5430   */\n      0x00\n        /* \"#utility.yul\":5426:5427   */\n      dup1\n        /* \"#utility.yul\":5419:5431   */\n      revert\n        /* \"#utility.yul\":5457:6010   */\n    tag_85:\n        /* \"#utility.yul\":5515:5523   */\n      0x00\n        /* \"#utility.yul\":5525:5531   */\n      dup1\n        /* \"#utility.yul\":5575:5578   */\n      dup4\n        /* \"#utility.yul\":5568:5572   */\n      0x1f\n        /* \"#utility.yul\":5560:5566   */\n      dup5\n        /* \"#utility.yul\":5556:5573   */\n      add\n        /* \"#utility.yul\":5552:5579   */\n      slt\n        /* \"#utility.yul\":5542:5664   */\n      tag_166\n      jumpi\n        /* \"#utility.yul\":5583:5662   */\n      tag_167\n      tag_74\n      jump\t// in\n    tag_167:\n        /* \"#utility.yul\":5542:5664   */\n    tag_166:\n        /* \"#utility.yul\":5696:5702   */\n      dup3\n        /* \"#utility.yul\":5683:5703   */\n      calldataload\n        /* \"#utility.yul\":5673:5703   */\n      swap1\n      pop\n        /* \"#utility.yul\":5726:5744   */\n      0xffffffffffffffff\n        /* \"#utility.yul\":5718:5724   */\n      dup2\n        /* \"#utility.yul\":5715:5745   */\n      gt\n        /* \"#utility.yul\":5712:5829   */\n      iszero\n      tag_168\n      jumpi\n        /* \"#utility.yul\":5748:5827   */\n      tag_169\n      tag_83\n      jump\t// in\n    tag_169:\n        /* \"#utility.yul\":5712:5829   */\n    tag_168:\n        /* \"#utility.yul\":5862:5866   */\n      0x20\n        /* \"#utility.yul\":5854:5860   */\n      dup4\n        /* \"#utility.yul\":5850:5867   */\n      add\n        /* \"#utility.yul\":5838:5867   */\n      swap2\n      pop\n        /* \"#utility.yul\":5916:5919   */\n      dup4\n        /* \"#utility.yul\":5908:5912   */\n      0x01\n        /* \"#utility.yul\":5900:5906   */\n      dup3\n        /* \"#utility.yul\":5896:5913   */\n      mul\n        /* \"#utility.yul\":5886:5894   */\n      dup4\n        /* \"#utility.yul\":5882:5914   */\n      add\n        /* \"#utility.yul\":5879:5920   */\n      gt\n        /* \"#utility.yul\":5876:6004   */\n      iszero\n      tag_170\n      jumpi\n        /* \"#utility.yul\":5923:6002   */\n      tag_171\n      tag_84\n      jump\t// in\n    tag_171:\n        /* \"#utility.yul\":5876:6004   */\n    tag_170:\n        /* \"#utility.yul\":5457:6010   */\n      swap3\n      pop\n      swap3\n      swap1\n      pop\n      jump\t// out\n        /* \"#utility.yul\":6016:6690   */\n    tag_27:\n        /* \"#utility.yul\":6096:6102   */\n      0x00\n        /* \"#utility.yul\":6104:6110   */\n      dup1\n        /* \"#utility.yul\":6112:6118   */\n      0x00\n        /* \"#utility.yul\":6161:6163   */\n      0x40\n        /* \"#utility.yul\":6149:6158   */\n      dup5\n        /* \"#utility.yul\":6140:6147   */\n      dup7\n        /* \"#utility.yul\":6136:6159   */\n      sub\n        /* \"#utility.yul\":6132:6164   */\n      slt\n        /* \"#utility.yul\":6129:6248   */\n      iszero\n      tag_173\n      jumpi\n        /* \"#utility.yul\":6167:6246   */\n      tag_174\n      tag_62\n      jump\t// in\n    tag_174:\n        /* \"#utility.yul\":6129:6248   */\n    tag_173:\n        /* \"#utility.yul\":6287:6288   */\n      0x00\n        /* \"#utility.yul\":6312:6365   */\n      tag_175\n        /* \"#utility.yul\":6357:6364   */\n      dup7\n        /* \"#utility.yul\":6348:6354   */\n      dup3\n        /* \"#utility.yul\":6337:6346   */\n      dup8\n        /* \"#utility.yul\":6333:6355   */\n      add\n        /* \"#utility.yul\":6312:6365   */\n      tag_66\n      jump\t// in\n    tag_175:\n        /* \"#utility.yul\":6302:6365   */\n      swap4\n      pop\n        /* \"#utility.yul\":6258:6375   */\n      pop\n        /* \"#utility.yul\":6442:6444   */\n      0x20\n        /* \"#utility.yul\":6431:6440   */\n      dup5\n        /* \"#utility.yul\":6427:6445   */\n      add\n        /* \"#utility.yul\":6414:6446   */\n      calldataload\n        /* \"#utility.yul\":6473:6491   */\n      0xffffffffffffffff\n        /* \"#utility.yul\":6465:6471   */\n      dup2\n        /* \"#utility.yul\":6462:6492   */\n      gt\n        /* \"#utility.yul\":6459:6576   */\n      iszero\n      tag_176\n      jumpi\n        /* \"#utility.yul\":6495:6574   */\n      tag_177\n      tag_63\n      jump\t// in\n    tag_177:\n        /* \"#utility.yul\":6459:6576   */\n    tag_176:\n        /* \"#utility.yul\":6608:6673   */\n      tag_178\n        /* \"#utility.yul\":6665:6672   */\n      dup7\n        /* \"#utility.yul\":6656:6662   */\n      dup3\n        /* \"#utility.yul\":6645:6654   */\n      dup8\n        /* \"#utility.yul\":6641:6663   */\n      add\n        /* \"#utility.yul\":6608:6673   */\n      tag_85\n      jump\t// in\n    tag_178:\n        /* \"#utility.yul\":6590:6673   */\n      swap3\n      pop\n      swap3\n      pop\n        /* \"#utility.yul\":6385:6683   */\n      pop\n        /* \"#utility.yul\":6016:6690   */\n      swap3\n      pop\n      swap3\n      pop\n      swap3\n      jump\t// out\n        /* \"#utility.yul\":6696:6876   */\n    tag_32:\n        /* \"#utility.yul\":6744:6821   */\n      0x4e487b7100000000000000000000000000000000000000000000000000000000\n        /* \"#utility.yul\":6741:6742   */\n      0x00\n        /* \"#utility.yul\":6734:6822   */\n      mstore\n        /* \"#utility.yul\":6841:6845   */\n      0x32\n        /* \"#utility.yul\":6838:6839   */\n      0x04\n        /* \"#utility.yul\":6831:6846   */\n      mstore\n        /* \"#utility.yul\":6865:6869   */\n      0x24\n        /* \"#utility.yul\":6862:6863   */\n      0x00\n        /* \"#utility.yul\":6855:6870   */\n      revert\n        /* \"#utility.yul\":6882:7062   */\n    tag_86:\n        /* \"#utility.yul\":6930:7007   */\n      0x4e487b7100000000000000000000000000000000000000000000000000000000\n        /* \"#utility.yul\":6927:6928   */\n      0x00\n        /* \"#utility.yul\":6920:7008   */\n      mstore\n        /* \"#utility.yul\":7027:7031   */\n      0x22\n        /* \"#utility.yul\":7024:7025   */\n      0x04\n        /* \"#utility.yul\":7017:7032   */\n      mstore\n        /* \"#utility.yul\":7051:7055   */\n      0x24\n        /* \"#utility.yul\":7048:7049   */\n      0x00\n        /* \"#utility.yul\":7041:7056   */\n      revert\n        /* \"#utility.yul\":7068:7388   */\n    tag_39:\n        /* \"#utility.yul\":7112:7118   */\n      0x00\n        /* \"#utility.yul\":7149:7150   */\n      0x02\n        /* \"#utility.yul\":7143:7147   */\n      dup3\n        /* \"#utility.yul\":7139:7151   */\n      div\n        /* \"#utility.yul\":7129:7151   */\n      swap1\n      pop\n        /* \"#utility.yul\":7196:7197   */\n      0x01\n        /* \"#utility.yul\":7190:7194   */\n      dup3\n        /* \"#utility.yul\":7186:7198   */\n      and\n        /* \"#utility.yul\":7217:7235   */\n      dup1\n        /* \"#utility.yul\":7207:7288   */\n      tag_182\n      jumpi\n        /* \"#utility.yul\":7273:7277   */\n      0x7f\n        /* \"#utility.yul\":7265:7271   */\n      dup3\n        /* \"#utility.yul\":7261:7278   */\n      and\n        /* \"#utility.yul\":7251:7278   */\n      swap2\n      pop\n        /* \"#utility.yul\":7207:7288   */\n    tag_182:\n        /* \"#utility.yul\":7335:7337   */\n      0x20\n        /* \"#utility.yul\":7327:7333   */\n      dup3\n        /* \"#utility.yul\":7324:7338   */\n      lt\n        /* \"#utility.yul\":7304:7322   */\n      dup2\n        /* \"#utility.yul\":7301:7339   */\n      sub\n        /* \"#utility.yul\":7298:7382   */\n      tag_183\n      jumpi\n        /* \"#utility.yul\":7354:7372   */\n      tag_184\n      tag_86\n      jump\t// in\n    tag_184:\n        /* \"#utility.yul\":7298:7382   */\n    tag_183:\n        /* \"#utility.yul\":7119:7388   */\n      pop\n        /* \"#utility.yul\":7068:7388   */\n      swap2\n      swap1\n      pop\n      jump\t// out\n        /* \"#utility.yul\":7394:7535   */\n    tag_87:\n        /* \"#utility.yul\":7443:7447   */\n      0x00\n        /* \"#utility.yul\":7466:7469   */\n      dup2\n        /* \"#utility.yul\":7458:7469   */\n      swap1\n      pop\n        /* \"#utility.yul\":7489:7492   */\n      dup2\n        /* \"#utility.yul\":7486:7487   */\n      0x00\n        /* \"#utility.yul\":7479:7493   */\n      mstore\n        /* \"#utility.yul\":7523:7527   */\n      0x20\n        /* \"#utility.yul\":7520:7521   */\n      0x00\n        /* \"#utility.yul\":7510:7528   */\n      keccak256\n        /* \"#utility.yul\":7502:7528   */\n      swap1\n      pop\n        /* \"#utility.yul\":7394:7535   */\n      swap2\n      swap1\n      pop\n      jump\t// out\n        /* \"#utility.yul\":7541:7634   */\n    tag_88:\n        /* \"#utility.yul\":7578:7584   */\n      0x00\n        /* \"#utility.yul\":7625:7627   */\n      0x20\n        /* \"#utility.yul\":7620:7622   */\n      0x1f\n        /* \"#utility.yul\":7613:7618   */\n      dup4\n        /* \"#utility.yul\":7609:7623   */\n      add\n        /* \"#utility.yul\":7605:7628   */\n      div\n        /* \"#utility.yul\":7595:7628   */\n      swap1\n      pop\n        /* \"#utility.yul\":7541:7634   */\n      swap2\n      swap1\n      pop\n      jump\t// out\n        /* \"#utility.yul\":7640:7747   */\n    tag_89:\n        /* \"#utility.yul\":7684:7692   */\n      0x00\n        /* \"#utility.yul\":7734:7739   */\n      dup3\n        /* \"#utility.yul\":7728:7732   */\n      dup3\n        /* \"#utility.yul\":7724:7740   */\n      shl\n        /* \"#utility.yul\":7703:7740   */\n      swap1\n      pop\n        /* \"#utility.yul\":7640:7747   */\n      swap3\n      swap2\n      pop\n      pop\n      jump\t// out\n        /* \"#utility.yul\":7753:8146   */\n    tag_90:\n        /* \"#utility.yul\":7822:7828   */\n      0x00\n        /* \"#utility.yul\":7872:7873   */\n      0x08\n        /* \"#utility.yul\":7860:7870   */\n      dup4\n        /* \"#utility.yul\":7856:7874   */\n      mul\n        /* \"#utility.yul\":7895:7992   */\n      tag_189\n        /* \"#utility.yul\":7925:7991   */\n      0xffffffffffffffffffffffffffffffffffffffffffffffffffffffffffffffff\n        /* \"#utility.yul\":7914:7923   */\n      dup3\n        /* \"#utility.yul\":7895:7992   */\n      tag_89\n      jump\t// in\n    tag_189:\n        /* \"#utility.yul\":8013:8052   */\n      tag_190\n        /* \"#utility.yul\":8043:8051   */\n      dup7\n        /* \"#utility.yul\":8032:8041   */\n      dup4\n        /* \"#utility.yul\":8013:8052   */\n      tag_89\n      jump\t// in\n    tag_190:\n        /* \"#utility.yul\":8001:8052   */\n      swap6\n      pop\n        /* \"#utility.yul\":8085:8089   */\n      dup1\n        /* \"#utility.yul\":8081:8090   */\n      not\n        /* \"#utility.yul\":8074:8079   */\n      dup5\n        /* \"#utility.yul\":8070:8091   */\n      and\n        /* \"#utility.yul\":8061:8091   */\n      swap4\n      pop\n        /* \"#utility.yul\":8134:8138   */\n      dup1\n        /* \"#utility.yul\":8124:8132   */\n      dup7\n        /* \"#utility.yul\":8120:8139   */\n      and\n        /* \"#utility.yul\":8113:8118   */\n      dup5\n        /* \"#utility.yul\":8110:8140   */\n      or\n        /* \"#utility.yul\":8100:8140   */\n      swap3\n      pop\n        /* \"#utility.yul\":7829:8146   */\n      pop\n      pop\n        /* \"#utility.yul\":7753:8146   */\n      swap4\n      swap3\n      pop\n      pop\n      pop\n      jump\t// out\n        /* \"#utility.yul\":8152:8212   */\n    tag_91:\n        /* \"#utility.yul\":8180:8183   */\n      0x00\n        /* \"#utility.yul\":8201:8206   */\n      dup2\n        /* \"#utility.yul\":8194:8206   */\n      swap1\n      pop\n        /* \"#utility.yul\":8152:8212   */\n      swap2\n      swap1\n      pop\n      jump\t// out\n        /* \"#utility.yul\":8218:8360   */\n    tag_92:\n        /* \"#utility.yul\":8268:8277   */\n      0x00\n        /* \"#utility.yul\":8301:8354   */\n      tag_193\n        /* \"#utility.yul\":8319:8353   */\n      tag_194\n        /* \"#utility.yul\":8328:8352   */\n      tag_195\n        /* \"#utility.yul\":8346:8351   */\n      dup5\n        /* \"#utility.yul\":8328:8352   */\n      tag_64\n      jump\t// in\n    tag_195:\n        /* \"#utility.yul\":8319:8353   */\n      tag_91\n      jump\t// in\n    tag_194:\n        /* \"#utility.yul\":8301:8354   */\n      tag_64\n      jump\t// in\n    tag_193:\n        /* \"#utility.yul\":8288:8354   */\n      swap1\n      pop\n        /* \"#utility.yul\":8218:8360   */\n      swap2\n      swap1\n      pop\n      jump\t// out\n        /* \"#utility.yul\":8366:8441   */\n    tag_93:\n        /* \"#utility.yul\":8409:8412   */\n      0x00\n        /* \"#utility.yul\":8430:8435   */\n      dup2\n        /* \"#utility.yul\":8423:8435   */\n      swap1\n      pop\n        /* \"#utility.yul\":8366:8441   */\n      swap2\n      swap1\n      pop\n      jump\t// out\n        /* \"#utility.yul\":8447:8716   */\n    tag_94:\n        /* \"#utility.yul\":8557:8596   */\n      tag_198\n        /* \"#utility.yul\":8588:8595   */\n      dup4\n        /* \"#utility.yul\":8557:8596   */\n      tag_92\n      jump\t// in\n    tag_198:\n        /* \"#utility.yul\":8618:8709   */\n      tag_199\n        /* \"#utility.yul\":8667:8708   */\n      tag_200\n        /* \"#utility.yul\":8691:8707   */\n      dup3\n        /* \"#utility.yul\":8667:8708   */\n      tag_93\n      jump\t// in\n    tag_200:\n        /* \"#utility.yul\":8659:8665   */\n      dup5\n        /* \"#utility.yul\":8652:8656   */\n      dup5\n        /* \"#utility.yul\":8646:8657   */\n      sload\n        /* \"#utility.yul\":8618:8709   */\n      tag_90\n      jump\t// in\n    tag_199:\n        /* \"#utility.yul\":8612:8616   */\n      dup3\n        /* \"#utility.yul\":8605:8710   */\n      sstore\n        /* \"#utility.yul\":8523:8716   */\n      pop\n        /* \"#utility.yul\":8447:8716   */\n      pop\n      pop\n      pop\n      jump\t// out\n        /* \"#utility.yul\":8722:8795   */\n    tag_95:\n        /* \"#utility.yul\":8767:8770   */\n      0x00\n        /* \"#utility.yul\":8722:8795   */\n      swap1\n      jump\t// out\n        /* \"#utility.yul\":8801:8990   */\n    tag_96:\n        /* \"#utility.yul\":8878:8910   */\n      tag_203\n      tag_95\n      jump\t// in\n    tag_203:\n        /* \"#utility.yul\":8919:8984   */\n      tag_204\n        /* \"#utility.yul\":8977:8983   */\n      dup2\n        /* \"#utility.yul\":8969:8975   */\n      dup5\n        /* \"#utility.yul\":8963:8967   */\n      dup5\n        /* \"#utility.yul\":8919:8984   */\n      tag_94\n      jump\t// in\n    tag_204:\n        /* \"#utility.yul\":8854:8990   */\n      pop\n        /* \"#utility.yul\":8801:8990   */\n      pop\n      pop\n      jump\t// out\n        /* \"#utility.yul\":8996:9182   */\n    tag_97:\n        /* \"#utility.yul\":9056:9176   */\n    tag_206:\n        /* \"#utility.yul\":9073:9076   */\n      dup2\n        /* \"#utility.yul\":9066:9071   */\n      dup2\n        /* \"#utility.yul\":9063:9077   */\n      lt\n        /* \"#utility.yul\":9056:9176   */\n      iszero\n      tag_208\n      jumpi\n        /* \"#utility.yul\":9127:9166   */\n      tag_209\n        /* \"#utility.yul\":9164:9165   */\n      0x00\n        /* \"#utility.yul\":9157:9162   */\n      dup3\n        /* \"#utility.yul\":9127:9166   */\n      tag_96\n      jump\t// in\n    tag_209:\n        /* \"#utility.yul\":9100:9101   */\n      0x01\n        /* \"#utility.yul\":9093:9098   */\n      dup2\n        /* \"#utility.yul\":9089:9102   */\n      add\n        /* \"#utility.yul\":9080:9102   */\n      swap1\n      pop\n        /* \"#utility.yul\":9056:9176   */\n      jump(tag_206)\n    tag_208:\n        /* \"#utility.yul\":8996:9182   */\n      pop\n      pop\n      jump\t// out\n        /* \"#utility.yul\":9188:9731   */\n    tag_98:\n        /* \"#utility.yul\":9289:9291   */\n      0x1f\n        /* \"#utility.yul\":9284:9287   */\n      dup3\n        /* \"#utility.yul\":9281:9292   */\n      gt\n        /* \"#utility.yul\":9278:9724   */\n      iszero\n      tag_211\n      jumpi\n        /* \"#utility.yul\":9323:9361   */\n      tag_212\n        /* \"#utility.yul\":9355:9360   */\n      dup2\n        /* \"#utility.yul\":9323:9361   */\n      tag_87\n      jump\t// in\n    tag_212:\n        /* \"#utility.yul\":9407:9436   */\n      tag_213\n        /* \"#utility.yul\":9425:9435   */\n      dup5\n        /* \"#utility.yul\":9407:9436   */\n      tag_88\n      jump\t// in\n    tag_213:\n        /* \"#utility.yul\":9397:9405   */\n      dup2\n        /* \"#utility.yul\":9393:9437   */\n      add\n        /* \"#utility.yul\":9590:9592   */\n      0x20\n        /* \"#utility.yul\":9578:9588   */\n      dup6\n        /* \"#utility.yul\":9575:9593   */\n      lt\n        /* \"#utility.yul\":9572:9621   */\n      iszero\n      tag_214\n      jumpi\n        /* \"#utility.yul\":9611:9619   */\n      dup2\n        /* \"#utility.yul\":9596:9619   */\n      swap1\n      pop\n        /* \"#utility.yul\":9572:9621   */\n    tag_214:\n        /* \"#utility.yul\":9634:9714   */\n      tag_215\n        /* \"#utility.yul\":9690:9712   */\n      tag_216\n        /* \"#utility.yul\":9708:9711   */\n      dup6\n        /* \"#utility.yul\":9690:9712   */\n      tag_88\n      jump\t// in\n    tag_216:\n        /* \"#utility.yul\":9680:9688   */\n      dup4\n        /* \"#utility.yul\":9676:9713   */\n      add\n        /* \"#utility.yul\":9663:9674   */\n      dup3\n        /* \"#utility.yul\":9634:9714   */\n      tag_97\n      jump\t// in\n    tag_215:\n        /* \"#utility.yul\":9293:9724   */\n      pop\n      pop\n        /* \"#utility.yul\":9278:9724   */\n    tag_211:\n        /* \"#utility.yul\":9188:9731   */\n      pop\n      pop\n      pop\n      jump\t// out\n        /* \"#utility.yul\":9737:9854   */\n    tag_99:\n        /* \"#utility.yul\":9791:9799   */\n      0x00\n        /* \"#utility.yul\":9841:9846   */\n      dup3\n        /* \"#utility.yul\":9835:9839   */\n      dup3\n        /* \"#utility.yul\":9831:9847   */\n      shr\n        /* \"#utility.yul\":9810:9847   */\n      swap1\n      pop\n        /* \"#utility.yul\":9737:9854   */\n      swap3\n      swap2\n      pop\n      pop\n      jump\t// out\n        /* \"#utility.yul\":9860:10029   */\n    tag_100:\n        /* \"#utility.yul\":9904:9910   */\n      0x00\n        /* \"#utility.yul\":9937:9988   */\n      tag_219\n        /* \"#utility.yul\":9985:9986   */\n      0x00\n        /* \"#utility.yul\":9981:9987   */\n      not\n        /* \"#utility.yul\":9973:9978   */\n      dup5\n        /* \"#utility.yul\":9970:9971   */\n      0x08\n        /* \"#utility.yul\":9966:9979   */\n      mul\n        /* \"#utility.yul\":9937:9988   */\n      tag_99\n      jump\t// in\n    tag_219:\n        /* \"#utility.yul\":9933:9989   */\n      not\n        /* \"#utility.yul\":10018:10022   */\n      dup1\n        /* \"#utility.yul\":10012:10016   */\n      dup4\n        /* \"#utility.yul\":10008:10023   */\n      and\n        /* \"#utility.yul\":9998:10023   */\n      swap2\n      pop\n        /* \"#utility.yul\":9911:10029   */\n      pop\n        /* \"#utility.yul\":9860:10029   */\n      swap3\n      swap2\n      pop\n      pop\n      jump\t// out\n        /* \"#utility.yul\":10034:10329   */\n    tag_101:\n        /* \"#utility.yul\":10110:10114   */\n      0x00\n        /* \"#utility.yul\":10256:10285   */\n      tag_221\n        /* \"#utility.yul\":10281:10284   */\n      dup4\n        /* \"#utility.yul\":10275:10279   */\n      dup4\n        /* \"#utility.yul\":10256:10285   */\n      tag_100\n      jump\t// in\n    tag_221:\n        /* \"#utility.yul\":10248:10285   */\n      swap2\n      pop\n        /* \"#utility.yul\":10318:10321   */\n      dup3\n        /* \"#utility.yul\":10315:10316   */\n      0x02\n        /* \"#utility.yul\":10311:10322   */\n      mul\n        /* \"#utility.yul\":10305:10309   */\n      dup3\n        /* \"#utility.yul\":10302:10323   */\n      or\n        /* \"#utility.yul\":10294:10323   */\n      swap1\n      pop\n        /* \"#utility.yul\":10034:10329   */\n      swap3\n      swap2\n      pop\n      pop\n      jump\t// out\n        /* \"#utility.yul\":10334:11729   */\n    tag_47:\n        /* \"#utility.yul\":10451:10488   */\n      tag_223\n        /* \"#utility.yul\":10484:10487   */\n      dup3\n        /* \"#utility.yul\":10451:10488   */\n      tag_67\n      jump\t// in\n    tag_223:\n        /* \"#utility.yul\":10553:10571   */\n      0xffffffffffffffff\n        /* \"#utility.yul\":10545:10551   */\n      dup2\n        /* \"#utility.yul\":10542:10572   */\n      gt\n        /* \"#utility.yul\":10539:10595   */\n      iszero\n      tag_224\n      jumpi\n        /* \"#utility.yul\":10575:10593   */\n      tag_225\n      tag_76\n      jump\t// in\n    tag_225:\n        /* \"#utility.yul\":10539:10595   */\n    tag_224:\n        /* \"#utility.yul\":10619:10657   */\n      tag_226\n        /* \"#utility.yul\":10651:10655   */\n      dup3\n        /* \"#utility.yul\":10645:10656   */\n      sload\n        /* \"#utility.yul\":10619:10657   */\n      tag_39\n      jump\t// in\n    tag_226:\n        /* \"#utility.yul\":10704:10771   */\n      tag_227\n        /* \"#utility.yul\":10764:10770   */\n      dup3\n        /* \"#utility.yul\":10756:10762   */\n      dup3\n        /* \"#utility.yul\":10750:10754   */\n      dup6\n        /* \"#utility.yul\":10704:10771   */\n      tag_98\n      jump\t// in\n    tag_227:\n        /* \"#utility.yul\":10798:10799   */\n      0x00\n        /* \"#utility.yul\":10822:10826   */\n      0x20\n        /* \"#utility.yul\":10809:10826   */\n      swap1\n      pop\n        /* \"#utility.yul\":10854:10856   */\n      0x1f\n        /* \"#utility.yul\":10846:10852   */\n      dup4\n        /* \"#utility.yul\":10843:10857   */\n      gt\n        /* \"#utility.yul\":10871:10872   */\n      0x01\n        /* \"#utility.yul\":10866:11484   */\n      dup2\n      eq\n      tag_229\n      jumpi\n        /* \"#utility.yul\":11528:11529   */\n      0x00\n        /* \"#utility.yul\":11545:11551   */\n      dup5\n        /* \"#utility.yul\":11542:11619   */\n      iszero\n      tag_230\n      jumpi\n        /* \"#utility.yul\":11594:11603   */\n      dup3\n        /* \"#utility.yul\":11589:11592   */\n      dup8\n        /* \"#utility.yul\":11585:11604   */\n      add\n        /* \"#utility.yul\":11579:11605   */\n      mload\n        /* \"#utility.yul\":11570:11605   */\n      swap1\n      pop\n        /* \"#utility.yul\":11542:11619   */\n    tag_230:\n        /* \"#utility.yul\":11645:11712   */\n      tag_231\n        /* \"#utility.yul\":11705:11711   */\n      dup6\n        /* \"#utility.yul\":11698:11703   */\n      dup3\n        /* \"#utility.yul\":11645:11712   */\n      tag_101\n      jump\t// in\n    tag_231:\n        /* \"#utility.yul\":11639:11643   */\n      dup7\n        /* \"#utility.yul\":11632:11713   */\n      sstore\n        /* \"#utility.yul\":11501:11723   */\n      pop\n        /* \"#utility.yul\":10836:11723   */\n      jump(tag_228)\n        /* \"#utility.yul\":10866:11484   */\n    tag_229:\n        /* \"#utility.yul\":10918:10922   */\n      0x1f\n        /* \"#utility.yul\":10914:10923   */\n      not\n        /* \"#utility.yul\":10906:10912   */\n      dup5\n        /* \"#utility.yul\":10902:10924   */\n      and\n        /* \"#utility.yul\":10952:10989   */\n      tag_232\n        /* \"#utility.yul\":10984:10988   */\n      dup7\n        /* \"#utility.yul\":10952:10989   */\n      tag_87\n      jump\t// in\n    tag_232:\n        /* \"#utility.yul\":11011:11012   */\n      0x00\n        /* \"#utility.yul\":11025:11233   */\n    tag_233:\n        /* \"#utility.yul\":11039:11046   */\n      dup3\n        /* \"#utility.yul\":11036:11037   */\n      dup2\n        /* \"#utility.yul\":11033:11047   */\n      lt\n        /* \"#utility.yul\":11025:11233   */\n      iszero\n      tag_235\n      jumpi\n        /* \"#utility.yul\":11118:11127   */\n      dup5\n        /* \"#utility.yul\":11113:11116   */\n      dup10\n        /* \"#utility.yul\":11109:11128   */\n      add\n        /* \"#utility.yul\":11103:11129   */\n      mload\n        /* \"#utility.yul\":11095:11101   */\n      dup3\n        /* \"#utility.yul\":11088:11130   */\n      sstore\n        /* \"#utility.yul\":11169:11170   */\n      0x01\n        /* \"#utility.yul\":11161:11167   */\n      dup3\n        /* \"#utility.yul\":11157:11171   */\n      add\n        /* \"#utility.yul\":11147:11171   */\n      swap2\n      pop\n        /* \"#utility.yul\":11216:11218   */\n      0x20\n        /* \"#utility.yul\":11205:11214   */\n      dup6\n        /* \"#utility.yul\":11201:11219   */\n      add\n        /* \"#utility.yul\":11188:11219   */\n      swap5\n      pop\n        /* \"#utility.yul\":11062:11066   */\n      0x20\n        /* \"#utility.yul\":11059:11060   */\n      dup2\n        /* \"#utility.yul\":11055:11067   */\n      add\n        /* \"#utility.yul\":11050:11067   */\n      swap1\n      pop\n        /* \"#utility.yul\":11025:11233   */\n      jump(tag_233)\n    tag_235:\n        /* \"#utility.yul\":11261:11267   */\n      dup7\n        /* \"#utility.yul\":11252:11259   */\n      dup4\n        /* \"#utility.yul\":11249:11268   */\n      lt\n        /* \"#utility.yul\":11246:11425   */\n      iszero\n      tag_236\n      jumpi\n        /* \"#utility.yul\":11319:11328   */\n      dup5\n        /* \"#utility.yul\":11314:11317   */\n      dup10\n        /* \"#utility.yul\":11310:11329   */\n      add\n        /* \"#utility.yul\":11304:11330   */\n      mload\n        /* \"#utility.yul\":11362:11410   */\n      tag_237\n        /* \"#utility.yul\":11404:11408   */\n      0x1f\n        /* \"#utility.yul\":11396:11402   */\n      dup10\n        /* \"#utility.yul\":11392:11409   */\n      and\n        /* \"#utility.yul\":11381:11390   */\n      dup3\n        /* \"#utility.yul\":11362:11410   */\n      tag_100\n      jump\t// in\n    tag_237:\n        /* \"#utility.yul\":11354:11360   */\n      dup4\n        /* \"#utility.yul\":11347:11411   */\n      sstore\n        /* \"#utility.yul\":11269:11425   */\n      pop\n        /* \"#utility.yul\":11246:11425   */\n    tag_236:\n        /* \"#utility.yul\":11471:11472   */\n      0x01\n        /* \"#utility.yul\":11467:11468   */\n      0x02\n        /* \"#utility.yul\":11459:11465   */\n      dup9\n        /* \"#utility.yul\":11455:11469   */\n      mul\n        /* \"#utility.yul\":11451:11473   */\n      add\n        /* \"#utility.yul\":11445:11449   */\n      dup9\n        /* \"#utility.yul\":11438:11474   */\n      sstore\n        /* \"#utility.yul\":10873:11484   */\n      pop\n      pop\n      pop\n        /* \"#utility.yul\":10836:11723   */\n    tag_228:\n      pop\n        /* \"#utility.yul\":10426:11729   */\n      pop\n      pop\n      pop\n        /* \"#utility.yul\":10334:11729   */\n      pop\n      pop\n      jump\t// out\n        /* \"#utility.yul\":11735:11832   */\n    tag_102:\n        /* \"#utility.yul\":11794:11800   */\n      0x00\n        /* \"#utility.yul\":11822:11825   */\n      dup3\n        /* \"#utility.yul\":11812:11825   */\n      swap1\n      pop\n        /* \"#utility.yul\":11735:11832   */\n      swap3\n      swap2\n      pop\n      pop\n      jump\t// out\n        /* \"#utility.yul\":11838:13241   */\n    tag_60:\n        /* \"#utility.yul\":11962:12006   */\n      tag_240\n        /* \"#utility.yul\":12002:12005   */\n      dup4\n        /* \"#utility.yul\":11997:12000   */\n      dup4\n        /* \"#utility.yul\":11962:12006   */\n      tag_102\n      jump\t// in\n    tag_240:\n        /* \"#utility.yul\":12071:12089   */\n      0xffffffffffffffff\n        /* \"#utility.yul\":12063:12069   */\n      dup2\n        /* \"#utility.yul\":12060:12090   */\n      gt\n        /* \"#utility.yul\":12057:12113   */\n      iszero\n      tag_241\n      jumpi\n        /* \"#utility.yul\":12093:12111   */\n      tag_242\n      tag_76\n      jump\t// in\n    tag_242:\n        /* \"#utility.yul\":12057:12113   */\n    tag_241:\n        /* \"#utility.yul\":12137:12175   */\n      tag_243\n        /* \"#utility.yul\":12169:12173   */\n      dup3\n        /* \"#utility.yul\":12163:12174   */\n      sload\n        /* \"#utility.yul\":12137:12175   */\n      tag_39\n      jump\t// in\n    tag_243:\n        /* \"#utility.yul\":12222:12289   */\n      tag_244\n        /* \"#utility.yul\":12282:12288   */\n      dup3\n        /* \"#utility.yul\":12274:12280   */\n      dup3\n        /* \"#utility.yul\":12268:12272   */\n      dup6\n        /* \"#utility.yul\":12222:12289   */\n      tag_98\n      jump\t// in\n    tag_244:\n        /* \"#utility.yul\":12316:12317   */\n      0x00\n        /* \"#utility.yul\":12345:12347   */\n      0x1f\n        /* \"#utility.yul\":12337:12343   */\n      dup4\n        /* \"#utility.yul\":12334:12348   */\n      gt\n        /* \"#utility.yul\":12362:12363   */\n      0x01\n        /* \"#utility.yul\":12357:12989   */\n      dup2\n      eq\n      tag_246\n      jumpi\n        /* \"#utility.yul\":13033:13034   */\n      0x00\n        /* \"#utility.yul\":13050:13056   */\n      dup5\n        /* \"#utility.yul\":13047:13131   */\n      iszero\n      tag_247\n      jumpi\n        /* \"#utility.yul\":13106:13115   */\n      dup3\n        /* \"#utility.yul\":13101:13104   */\n      dup8\n        /* \"#utility.yul\":13097:13116   */\n      add\n        /* \"#utility.yul\":13084:13117   */\n      calldataload\n        /* \"#utility.yul\":13075:13117   */\n      swap1\n      pop\n        /* \"#utility.yul\":13047:13131   */\n    tag_247:\n        /* \"#utility.yul\":13157:13224   */\n      tag_248\n        /* \"#utility.yul\":13217:13223   */\n      dup6\n        /* \"#utility.yul\":13210:13215   */\n      dup3\n        /* \"#utility.yul\":13157:13224   */\n      tag_101\n      jump\t// in\n    tag_248:\n        /* \"#utility.yul\":13151:13155   */\n      dup7\n        /* \"#utility.yul\":13144:13225   */\n      sstore\n        /* \"#utility.yul\":13006:13235   */\n      pop\n        /* \"#utility.yul\":12327:13235   */\n      jump(tag_245)\n        /* \"#utility.yul\":12357:12989   */\n    tag_246:\n        /* \"#utility.yul\":12409:12413   */\n      0x1f\n        /* \"#utility.yul\":12405:12414   */\n      not\n        /* \"#utility.yul\":12397:12403   */\n      dup5\n        /* \"#utility.yul\":12393:12415   */\n      and\n        /* \"#utility.yul\":12443:12480   */\n      tag_249\n        /* \"#utility.yul\":12475:12479   */\n      dup7\n        /* \"#utility.yul\":12443:12480   */\n      tag_87\n      jump\t// in\n    tag_249:\n        /* \"#utility.yul\":12502:12503   */\n      0x00\n        /* \"#utility.yul\":12516:12731   */\n    tag_250:\n        /* \"#utility.yul\":12530:12537   */\n      dup3\n        /* \"#utility.yul\":12527:12528   */\n      dup2\n        /* \"#utility.yul\":12524:12538   */\n      lt\n        /* \"#utility.yul\":12516:12731   */\n      iszero\n      tag_252\n      jumpi\n        /* \"#utility.yul\":12616:12625   */\n      dup5\n        /* \"#utility.yul\":12611:12614   */\n      dup10\n        /* \"#utility.yul\":12607:12626   */\n      add\n        /* \"#utility.yul\":12594:12627   */\n      calldataload\n        /* \"#utility.yul\":12586:12592   */\n      dup3\n        /* \"#utility.yul\":12579:12628   */\n      sstore\n        /* \"#utility.yul\":12667:12668   */\n      0x01\n        /* \"#utility.yul\":12659:12665   */\n      dup3\n        /* \"#utility.yul\":12655:12669   */\n      add\n        /* \"#utility.yul\":12645:12669   */\n      swap2\n      pop\n        /* \"#utility.yul\":12714:12716   */\n      0x20\n        /* \"#utility.yul\":12703:12712   */\n      dup6\n        /* \"#utility.yul\":12699:12717   */\n      add\n        /* \"#utility.yul\":12686:12717   */\n      swap5\n      pop\n        /* \"#utility.yul\":12553:12557   */\n      0x20\n        /* \"#utility.yul\":12550:12551   */\n      dup2\n        /* \"#utility.yul\":12546:12558   */\n      add\n        /* \"#utility.yul\":12541:12558   */\n      swap1\n      pop\n        /* \"#utility.yul\":12516:12731   */\n      jump(tag_250)\n    tag_252:\n        /* \"#utility.yul\":12759:12765   */\n      dup7\n        /* \"#utility.yul\":12750:12757   */\n      dup4\n        /* \"#utility.yul\":12747:12766   */\n      lt\n        /* \"#utility.yul\":12744:12930   */\n      iszero\n      tag_253\n      jumpi\n        /* \"#utility.yul\":12824:12833   */\n      dup5\n        /* \"#utility.yul\":12819:12822   */\n      dup10\n        /* \"#utility.yul\":12815:12834   */\n      add\n        /* \"#utility.yul\":12802:12835   */\n      calldataload\n        /* \"#utility.yul\":12867:12915   */\n      tag_254\n        /* \"#utility.yul\":12909:12913   */\n      0x1f\n        /* \"#utility.yul\":12901:12907   */\n      dup10\n        /* \"#utility.yul\":12897:12914   */\n      and\n        /* \"#utility.yul\":12886:12895   */\n      dup3\n        /* \"#utility.yul\":12867:12915   */\n      tag_100\n      jump\t// in\n    tag_254:\n        /* \"#utility.yul\":12859:12865   */\n      dup4\n        /* \"#utility.yul\":12852:12916   */\n      sstore\n        /* \"#utility.yul\":12767:12930   */\n      pop\n        /* \"#utility.yul\":12744:12930   */\n    tag_253:\n        /* \"#utility.yul\":12976:12977   */\n      0x01\n        /* \"#utility.yul\":12972:12973   */\n      0x02\n        /* \"#utility.yul\":12964:12970   */\n      dup9\n        /* \"#utility.yul\":12960:12974   */\n      mul\n        /* \"#utility.yul\":12956:12978   */\n      add\n        /* \"#utility.yul\":12950:12954   */\n      dup9\n        /* \"#utility.yul\":12943:12979   */\n      sstore\n        /* \"#utility.yul\":12364:12989   */\n      pop\n      pop\n      pop\n        /* \"#utility.yul\":12327:13235   */\n    tag_245:\n      pop\n        /* \"#utility.yul\":11937:13241   */\n      pop\n      pop\n      pop\n        /* \"#utility.yul\":11838:13241   */\n      pop\n      pop\n      pop\n      jump\t// out\n\n    auxdata: 0xa264697066735822122033f4d9908bbe115cf3cf4e6cf0ca4497348b1ce81d63952f196f66b04695dae264736f6c63430008190033\n}\n",
				"bytecode": {
					"linkReferences": {},
					"object": "6080604052348015600e575f80fd5b50610af68061001c5f395ff3fe608060405234801561000f575f80fd5b5060043610610055575f3560e01c8063455f5024146100595780639507d39a14610075578063b6a46b3b146100a6578063bc8bc2b4146100c2578063cd111614146100f3575b5f80fd5b610073600480360381019061006e91906103e3565b61010f565b005b61008f600480360381019061008a91906103e3565b610161565b60405161009d929190610498565b60405180910390f35b6100c060048036038101906100bb91906105f2565b61022e565b005b6100dc60048036038101906100d791906103e3565b6102a4565b6040516100ea929190610498565b60405180910390f35b61010d60048036038101906101089190610696565b610364565b005b5f808281548110610123576101226106f3565b5b905f5260205f2090600202019050806001015f9054906101000a900460ff1615816001015f6101000a81548160ff0219169083151502179055505050565b60605f805f8481548110610178576101776106f3565b5b905f5260205f2090600202019050805f01816001015f9054906101000a900460ff168180546101a69061074d565b80601f01602080910402602001604051908101604052809291908181526020018280546101d29061074d565b801561021d5780601f106101f45761010080835404028352916020019161021d565b820191905f5260205f20905b81548152906001019060200180831161020057829003601f168201915b505050505091509250925050915091565b5f60405180604001604052808381526020015f1515815250908060018154018082558091505060019003905f5260205f2090600202015f909190919091505f820151815f01908161027f919061091a565b506020820151816001015f6101000a81548160ff021916908315150217905550505050565b5f81815481106102b2575f80fd5b905f5260205f2090600202015f91509050805f0180546102d19061074d565b80601f01602080910402602001604051908101604052809291908181526020018280546102fd9061074d565b80156103485780601f1061031f57610100808354040283529160200191610348565b820191905f5260205f20905b81548152906001019060200180831161032b57829003601f168201915b505050505090806001015f9054906101000a900460ff16905082565b5f808481548110610378576103776106f3565b5b905f5260205f20906002020190508282825f0191826103989291906109f3565b5050505050565b5f604051905090565b5f80fd5b5f80fd5b5f819050919050565b6103c2816103b0565b81146103cc575f80fd5b50565b5f813590506103dd816103b9565b92915050565b5f602082840312156103f8576103f76103a8565b5b5f610405848285016103cf565b91505092915050565b5f81519050919050565b5f82825260208201905092915050565b8281835e5f83830152505050565b5f601f19601f8301169050919050565b5f6104508261040e565b61045a8185610418565b935061046a818560208601610428565b61047381610436565b840191505092915050565b5f8115159050919050565b6104928161047e565b82525050565b5f6040820190508181035f8301526104b08185610446565b90506104bf6020830184610489565b9392505050565b5f80fd5b5f80fd5b7f4e487b71000000000000000000000000000000000000000000000000000000005f52604160045260245ffd5b61050482610436565b810181811067ffffffffffffffff82111715610523576105226104ce565b5b80604052505050565b5f61053561039f565b905061054182826104fb565b919050565b5f67ffffffffffffffff8211156105605761055f6104ce565b5b61056982610436565b9050602081019050919050565b828183375f83830152505050565b5f61059661059184610546565b61052c565b9050828152602081018484840111156105b2576105b16104ca565b5b6105bd848285610576565b509392505050565b5f82601f8301126105d9576105d86104c6565b5b81356105e9848260208601610584565b91505092915050565b5f60208284031215610607576106066103a8565b5b5f82013567ffffffffffffffff811115610624576106236103ac565b5b610630848285016105c5565b91505092915050565b5f80fd5b5f80fd5b5f8083601f840112610656576106556104c6565b5b8235905067ffffffffffffffff81111561067357610672610639565b5b60208301915083600182028301111561068f5761068e61063d565b5b9250929050565b5f805f604084860312156106ad576106ac6103a8565b5b5f6106ba868287016103cf565b935050602084013567ffffffffffffffff8111156106db576106da6103ac565b5b6106e786828701610641565b92509250509250925092565b7f4e487b71000000000000000000000000000000000000000000000000000000005f52603260045260245ffd5b7f4e487b71000000000000000000000000000000000000000000000000000000005f52602260045260245ffd5b5f600282049050600182168061076457607f821691505b60208210810361077757610776610720565b5b50919050565b5f819050815f5260205f209050919050565b5f6020601f8301049050919050565b5f82821b905092915050565b5f600883026107d97fffffffffffffffffffffffffffffffffffffffffffffffffffffffffffffffff8261079e565b6107e3868361079e565b95508019841693508086168417925050509392505050565b5f819050919050565b5f61081e610819610814846103b0565b6107fb565b6103b0565b9050919050565b5f819050919050565b61083783610804565b61084b61084382610825565b8484546107aa565b825550505050565b5f90565b61085f610853565b61086a81848461082e565b505050565b5b8181101561088d576108825f82610857565b600181019050610870565b5050565b601f8211156108d2576108a38161077d565b6108ac8461078f565b810160208510156108bb578190505b6108cf6108c78561078f565b83018261086f565b50505b505050565b5f82821c905092915050565b5f6108f25f19846008026108d7565b1980831691505092915050565b5f61090a83836108e3565b9150826002028217905092915050565b6109238261040e565b67ffffffffffffffff81111561093c5761093b6104ce565b5b610946825461074d565b610951828285610891565b5f60209050601f831160018114610982575f8415610970578287015190505b61097a85826108ff565b8655506109e1565b601f1984166109908661077d565b5f5b828110156109b757848901518255600182019150602085019450602081019050610992565b868310156109d457848901516109d0601f8916826108e3565b8355505b6001600288020188555050505b505050505050565b5f82905092915050565b6109fd83836109e9565b67ffffffffffffffff811115610a1657610a156104ce565b5b610a20825461074d565b610a2b828285610891565b5f601f831160018114610a58575f8415610a46578287013590505b610a5085826108ff565b865550610ab7565b601f198416610a668661077d565b5f5b82811015610a8d57848901358255600182019150602085019450602081019050610a68565b86831015610aaa5784890135610aa6601f8916826108e3565b8355505b6001600288020188555050505b5050505050505056fea264697066735822122033f4d9908bbe115cf3cf4e6cf0ca4497348b1ce81d63952f196f66b04695dae264736f6c63430008190033",
					"opcodes": "PUSH1 0x80 PUSH1 0x40 MSTORE CALLVALUE DUP1 ISZERO PUSH1 0xE JUMPI PUSH0 DUP1 REVERT JUMPDEST POP PUSH2 0xAF6 DUP1 PUSH2 0x1C PUSH0 CODECOPY PUSH0 RETURN INVALID PUSH1 0x80 PUSH1 0x40 MSTORE CALLVALUE DUP1 ISZERO PUSH2 0xF JUMPI PUSH0 DUP1 REVERT JUMPDEST POP PUSH1 0x4 CALLDATASIZE LT PUSH2 0x55 JUMPI PUSH0 CALLDATALOAD PUSH1 0xE0 SHR DUP1 PUSH4 0x455F5024 EQ PUSH2 0x59 JUMPI DUP1 PUSH4 0x9507D39A EQ PUSH2 0x75 JUMPI DUP1 PUSH4 0xB6A46B3B EQ PUSH2 0xA6 JUMPI DUP1 PUSH4 0xBC8BC2B4 EQ PUSH2 0xC2 JUMPI DUP1 PUSH4 0xCD111614 EQ PUSH2 0xF3 JUMPI JUMPDEST PUSH0 DUP1 REVERT JUMPDEST PUSH2 0x73 PUSH1 0x4 DUP1 CALLDATASIZE SUB DUP2 ADD SWAP1 PUSH2 0x6E SWAP2 SWAP1 PUSH2 0x3E3 JUMP JUMPDEST PUSH2 0x10F JUMP JUMPDEST STOP JUMPDEST PUSH2 0x8F PUSH1 0x4 DUP1 CALLDATASIZE SUB DUP2 ADD SWAP1 PUSH2 0x8A SWAP2 SWAP1 PUSH2 0x3E3 JUMP JUMPDEST PUSH2 0x161 JUMP JUMPDEST PUSH1 0x40 MLOAD PUSH2 0x9D SWAP3 SWAP2 SWAP1 PUSH2 0x498 JUMP JUMPDEST PUSH1 0x40 MLOAD DUP1 SWAP2 SUB SWAP1 RETURN JUMPDEST PUSH2 0xC0 PUSH1 0x4 DUP1 CALLDATASIZE SUB DUP2 ADD SWAP1 PUSH2 0xBB SWAP2 SWAP1 PUSH2 0x5F2 JUMP JUMPDEST PUSH2 0x22E JUMP JUMPDEST STOP JUMPDEST PUSH2 0xDC PUSH1 0x4 DUP1 CALLDATASIZE SUB DUP2 ADD SWAP1 PUSH2 0xD7 SWAP2 SWAP1 PUSH2 0x3E3 JUMP JUMPDEST PUSH2 0x2A4 JUMP JUMPDEST PUSH1 0x40 MLOAD PUSH2 0xEA SWAP3 SWAP2 SWAP1 PUSH2 0x498 JUMP JUMPDEST PUSH1 0x40 MLOAD DUP1 SWAP2 SUB SWAP1 RETURN JUMPDEST PUSH2 0x10D PUSH1 0x4 DUP1 CALLDATASIZE SUB DUP2 ADD SWAP1 PUSH2 0x108 SWAP2 SWAP1 PUSH2 0x696 JUMP JUMPDEST PUSH2 0x364 JUMP JUMPDEST STOP JUMPDEST PUSH0 DUP1 DUP3 DUP2 SLOAD DUP2 LT PUSH2 0x123 JUMPI PUSH2 0x122 PUSH2 0x6F3 JUMP JUMPDEST JUMPDEST SWAP1 PUSH0 MSTORE PUSH1 0x20 PUSH0 KECCAK256 SWAP1 PUSH1 0x2 MUL ADD SWAP1 POP DUP1 PUSH1 0x1 ADD PUSH0 SWAP1 SLOAD SWAP1 PUSH2 0x100 EXP SWAP1 DIV PUSH1 0xFF AND ISZERO DUP2 PUSH1 0x1 ADD PUSH0 PUSH2 0x100 EXP DUP2 SLOAD DUP2 PUSH1 0xFF MUL NOT AND SWAP1 DUP4 ISZERO ISZERO MUL OR SWAP1 SSTORE POP POP POP JUMP JUMPDEST PUSH1 0x60 PUSH0 DUP1 PUSH0 DUP5 DUP2 SLOAD DUP2 LT PUSH2 0x178 JUMPI PUSH2 0x177 PUSH2 0x6F3 JUMP JUMPDEST JUMPDEST SWAP1 PUSH0 MSTORE PUSH1 0x20 PUSH0 KECCAK256 SWAP1 PUSH1 0x2 MUL ADD SWAP1 POP DUP1 PUSH0 ADD DUP2 PUSH1 0x1 ADD PUSH0 SWAP1 SLOAD SWAP1 PUSH2 0x100 EXP SWAP1 DIV PUSH1 0xFF AND DUP2 DUP1 SLOAD PUSH2 0x1A6 SWAP1 PUSH2 0x74D JUMP JUMPDEST DUP1 PUSH1 0x1F ADD PUSH1 0x20 DUP1 SWAP2 DIV MUL PUSH1 0x20 ADD PUSH1 0x40 MLOAD SWAP1 DUP2 ADD PUSH1 0x40 MSTORE DUP1 SWAP3 SWAP2 SWAP1 DUP2 DUP2 MSTORE PUSH1 0x20 ADD DUP3 DUP1 SLOAD PUSH2 0x1D2 SWAP1 PUSH2 0x74D JUMP JUMPDEST DUP1 ISZERO PUSH2 0x21D JUMPI DUP1 PUSH1 0x1F LT PUSH2 0x1F4 JUMPI PUSH2 0x100 DUP1 DUP4 SLOAD DIV MUL DUP4 MSTORE SWAP2 PUSH1 0x20 ADD SWAP2 PUSH2 0x21D JUMP JUMPDEST DUP3 ADD SWAP2 SWAP1 PUSH0 MSTORE PUSH1 0x20 PUSH0 KECCAK256 SWAP1 JUMPDEST DUP2 SLOAD DUP2 MSTORE SWAP1 PUSH1 0x1 ADD SWAP1 PUSH1 0x20 ADD DUP1 DUP4 GT PUSH2 0x200 JUMPI DUP3 SWAP1 SUB PUSH1 0x1F AND DUP3 ADD SWAP2 JUMPDEST POP POP POP POP POP SWAP2 POP SWAP3 POP SWAP3 POP POP SWAP2 POP SWAP2 JUMP JUMPDEST PUSH0 PUSH1 0x40 MLOAD DUP1 PUSH1 0x40 ADD PUSH1 0x40 MSTORE DUP1 DUP4 DUP2 MSTORE PUSH1 0x20 ADD PUSH0 ISZERO ISZERO DUP2 MSTORE POP SWAP1 DUP1 PUSH1 0x1 DUP2 SLOAD ADD DUP1 DUP3 SSTORE DUP1 SWAP2 POP POP PUSH1 0x1 SWAP1 SUB SWAP1 PUSH0 MSTORE PUSH1 0x20 PUSH0 KECCAK256 SWAP1 PUSH1 0x2 MUL ADD PUSH0 SWAP1 SWAP2 SWAP1 SWAP2 SWAP1 SWAP2 POP PUSH0 DUP3 ADD MLOAD DUP2 PUSH0 ADD SWAP1 DUP2 PUSH2 0x27F SWAP2 SWAP1 PUSH2 0x91A JUMP JUMPDEST POP PUSH1 0x20 DUP3 ADD MLOAD DUP2 PUSH1 0x1 ADD PUSH0 PUSH2 0x100 EXP DUP2 SLOAD DUP2 PUSH1 0xFF MUL NOT AND SWAP1 DUP4 ISZERO ISZERO MUL OR SWAP1 SSTORE POP POP POP POP JUMP JUMPDEST PUSH0 DUP2 DUP2 SLOAD DUP2 LT PUSH2 0x2B2 JUMPI PUSH0 DUP1 REVERT JUMPDEST SWAP1 PUSH0 MSTORE PUSH1 0x20 PUSH0 KECCAK256 SWAP1 PUSH1 0x2 MUL ADD PUSH0 SWAP2 POP SWAP1 POP DUP1 PUSH0 ADD DUP1 SLOAD PUSH2 0x2D1 SWAP1 PUSH2 0x74D JUMP JUMPDEST DUP1 PUSH1 0x1F ADD PUSH1 0x20 DUP1 SWAP2 DIV MUL PUSH1 0x20 ADD PUSH1 0x40 MLOAD SWAP1 DUP2 ADD PUSH1 0x40 MSTORE DUP1 SWAP3 SWAP2 SWAP1 DUP2 DUP2 MSTORE PUSH1 0x20 ADD DUP3 DUP1 SLOAD PUSH2 0x2FD SWAP1 PUSH2 0x74D JUMP JUMPDEST DUP1 ISZERO PUSH2 0x348 JUMPI DUP1 PUSH1 0x1F LT PUSH2 0x31F JUMPI PUSH2 0x100 DUP1 DUP4 SLOAD DIV MUL DUP4 MSTORE SWAP2 PUSH1 0x20 ADD SWAP2 PUSH2 0x348 JUMP JUMPDEST DUP3 ADD SWAP2 SWAP1 PUSH0 MSTORE PUSH1 0x20 PUSH0 KECCAK256 SWAP1 JUMPDEST DUP2 SLOAD DUP2 MSTORE SWAP1 PUSH1 0x1 ADD SWAP1 PUSH1 0x20 ADD DUP1 DUP4 GT PUSH2 0x32B JUMPI DUP3 SWAP1 SUB PUSH1 0x1F AND DUP3 ADD SWAP2 JUMPDEST POP POP POP POP POP SWAP1 DUP1 PUSH1 0x1 ADD PUSH0 SWAP1 SLOAD SWAP1 PUSH2 0x100 EXP SWAP1 DIV PUSH1 0xFF AND SWAP1 POP DUP3 JUMP JUMPDEST PUSH0 DUP1 DUP5 DUP2 SLOAD DUP2 LT PUSH2 0x378 JUMPI PUSH2 0x377 PUSH2 0x6F3 JUMP JUMPDEST JUMPDEST SWAP1 PUSH0 MSTORE PUSH1 0x20 PUSH0 KECCAK256 SWAP1 PUSH1 0x2 MUL ADD SWAP1 POP DUP3 DUP3 DUP3 PUSH0 ADD SWAP2 DUP3 PUSH2 0x398 SWAP3 SWAP2 SWAP1 PUSH2 0x9F3 JUMP JUMPDEST POP POP POP POP POP JUMP JUMPDEST PUSH0 PUSH1 0x40 MLOAD SWAP1 POP SWAP1 JUMP JUMPDEST PUSH0 DUP1 REVERT JUMPDEST PUSH0 DUP1 REVERT JUMPDEST PUSH0 DUP2 SWAP1 POP SWAP2 SWAP1 POP JUMP JUMPDEST PUSH2 0x3C2 DUP2 PUSH2 0x3B0 JUMP JUMPDEST DUP2 EQ PUSH2 0x3CC JUMPI PUSH0 DUP1 REVERT JUMPDEST POP JUMP JUMPDEST PUSH0 DUP2 CALLDATALOAD SWAP1 POP PUSH2 0x3DD DUP2 PUSH2 0x3B9 JUMP JUMPDEST SWAP3 SWAP2 POP POP JUMP JUMPDEST PUSH0 PUSH1 0x20 DUP3 DUP5 SUB SLT ISZERO PUSH2 0x3F8 JUMPI PUSH2 0x3F7 PUSH2 0x3A8 JUMP JUMPDEST JUMPDEST PUSH0 PUSH2 0x405 DUP5 DUP3 DUP6 ADD PUSH2 0x3CF JUMP JUMPDEST SWAP2 POP POP SWAP3 SWAP2 POP POP JUMP JUMPDEST PUSH0 DUP2 MLOAD SWAP1 POP SWAP2 SWAP1 POP JUMP JUMPDEST PUSH0 DUP3 DUP3 MSTORE PUSH1 0x20 DUP3 ADD SWAP1 POP SWAP3 SWAP2 POP POP JUMP JUMPDEST DUP3 DUP2 DUP4 MCOPY PUSH0 DUP4 DUP4 ADD MSTORE POP POP POP JUMP JUMPDEST PUSH0 PUSH1 0x1F NOT PUSH1 0x1F DUP4 ADD AND SWAP1 POP SWAP2 SWAP1 POP JUMP JUMPDEST PUSH0 PUSH2 0x450 DUP3 PUSH2 0x40E JUMP JUMPDEST PUSH2 0x45A DUP2 DUP6 PUSH2 0x418 JUMP JUMPDEST SWAP4 POP PUSH2 0x46A DUP2 DUP6 PUSH1 0x20 DUP7 ADD PUSH2 0x428 JUMP JUMPDEST PUSH2 0x473 DUP2 PUSH2 0x436 JUMP JUMPDEST DUP5 ADD SWAP2 POP POP SWAP3 SWAP2 POP POP JUMP JUMPDEST PUSH0 DUP2 ISZERO ISZERO SWAP1 POP SWAP2 SWAP1 POP JUMP JUMPDEST PUSH2 0x492 DUP2 PUSH2 0x47E JUMP JUMPDEST DUP3 MSTORE POP POP JUMP JUMPDEST PUSH0 PUSH1 0x40 DUP3 ADD SWAP1 POP DUP2 DUP2 SUB PUSH0 DUP4 ADD MSTORE PUSH2 0x4B0 DUP2 DUP6 PUSH2 0x446 JUMP JUMPDEST SWAP1 POP PUSH2 0x4BF PUSH1 0x20 DUP4 ADD DUP5 PUSH2 0x489 JUMP JUMPDEST SWAP4 SWAP3 POP POP POP JUMP JUMPDEST PUSH0 DUP1 REVERT JUMPDEST PUSH0 DUP1 REVERT JUMPDEST PUSH32 0x4E487B7100000000000000000000000000000000000000000000000000000000 PUSH0 MSTORE PUSH1 0x41 PUSH1 0x4 MSTORE PUSH1 0x24 PUSH0 REVERT JUMPDEST PUSH2 0x504 DUP3 PUSH2 0x436 JUMP JUMPDEST DUP2 ADD DUP2 DUP2 LT PUSH8 0xFFFFFFFFFFFFFFFF DUP3 GT OR ISZERO PUSH2 0x523 JUMPI PUSH2 0x522 PUSH2 0x4CE JUMP JUMPDEST JUMPDEST DUP1 PUSH1 0x40 MSTORE POP POP POP JUMP JUMPDEST PUSH0 PUSH2 0x535 PUSH2 0x39F JUMP JUMPDEST SWAP1 POP PUSH2 0x541 DUP3 DUP3 PUSH2 0x4FB JUMP JUMPDEST SWAP2 SWAP1 POP JUMP JUMPDEST PUSH0 PUSH8 0xFFFFFFFFFFFFFFFF DUP3 GT ISZERO PUSH2 0x560 JUMPI PUSH2 0x55F PUSH2 0x4CE JUMP JUMPDEST JUMPDEST PUSH2 0x569 DUP3 PUSH2 0x436 JUMP JUMPDEST SWAP1 POP PUSH1 0x20 DUP2 ADD SWAP1 POP SWAP2 SWAP1 POP JUMP JUMPDEST DUP3 DUP2 DUP4 CALLDATACOPY PUSH0 DUP4 DUP4 ADD MSTORE POP POP POP JUMP JUMPDEST PUSH0 PUSH2 0x596 PUSH2 0x591 DUP5 PUSH2 0x546 JUMP JUMPDEST PUSH2 0x52C JUMP JUMPDEST SWAP1 POP DUP3 DUP2 MSTORE PUSH1 0x20 DUP2 ADD DUP5 DUP5 DUP5 ADD GT ISZERO PUSH2 0x5B2 JUMPI PUSH2 0x5B1 PUSH2 0x4CA JUMP JUMPDEST JUMPDEST PUSH2 0x5BD DUP5 DUP3 DUP6 PUSH2 0x576 JUMP JUMPDEST POP SWAP4 SWAP3 POP POP POP JUMP JUMPDEST PUSH0 DUP3 PUSH1 0x1F DUP4 ADD SLT PUSH2 0x5D9 JUMPI PUSH2 0x5D8 PUSH2 0x4C6 JUMP JUMPDEST JUMPDEST DUP2 CALLDATALOAD PUSH2 0x5E9 DUP5 DUP3 PUSH1 0x20 DUP7 ADD PUSH2 0x584 JUMP JUMPDEST SWAP2 POP POP SWAP3 SWAP2 POP POP JUMP JUMPDEST PUSH0 PUSH1 0x20 DUP3 DUP5 SUB SLT ISZERO PUSH2 0x607 JUMPI PUSH2 0x606 PUSH2 0x3A8 JUMP JUMPDEST JUMPDEST PUSH0 DUP3 ADD CALLDATALOAD PUSH8 0xFFFFFFFFFFFFFFFF DUP2 GT ISZERO PUSH2 0x624 JUMPI PUSH2 0x623 PUSH2 0x3AC JUMP JUMPDEST JUMPDEST PUSH2 0x630 DUP5 DUP3 DUP6 ADD PUSH2 0x5C5 JUMP JUMPDEST SWAP2 POP POP SWAP3 SWAP2 POP POP JUMP JUMPDEST PUSH0 DUP1 REVERT JUMPDEST PUSH0 DUP1 REVERT JUMPDEST PUSH0 DUP1 DUP4 PUSH1 0x1F DUP5 ADD SLT PUSH2 0x656 JUMPI PUSH2 0x655 PUSH2 0x4C6 JUMP JUMPDEST JUMPDEST DUP3 CALLDATALOAD SWAP1 POP PUSH8 0xFFFFFFFFFFFFFFFF DUP2 GT ISZERO PUSH2 0x673 JUMPI PUSH2 0x672 PUSH2 0x639 JUMP JUMPDEST JUMPDEST PUSH1 0x20 DUP4 ADD SWAP2 POP DUP4 PUSH1 0x1 DUP3 MUL DUP4 ADD GT ISZERO PUSH2 0x68F JUMPI PUSH2 0x68E PUSH2 0x63D JUMP JUMPDEST JUMPDEST SWAP3 POP SWAP3 SWAP1 POP JUMP JUMPDEST PUSH0 DUP1 PUSH0 PUSH1 0x40 DUP5 DUP7 SUB SLT ISZERO PUSH2 0x6AD JUMPI PUSH2 0x6AC PUSH2 0x3A8 JUMP JUMPDEST JUMPDEST PUSH0 PUSH2 0x6BA DUP7 DUP3 DUP8 ADD PUSH2 0x3CF JUMP JUMPDEST SWAP4 POP POP PUSH1 0x20 DUP5 ADD CALLDATALOAD PUSH8 0xFFFFFFFFFFFFFFFF DUP2 GT ISZERO PUSH2 0x6DB JUMPI PUSH2 0x6DA PUSH2 0x3AC JUMP JUMPDEST JUMPDEST PUSH2 0x6E7 DUP7 DUP3 DUP8 ADD PUSH2 0x641 JUMP JUMPDEST SWAP3 POP SWAP3 POP POP SWAP3 POP SWAP3 POP SWAP3 JUMP JUMPDEST PUSH32 0x4E487B7100000000000000000000000000000000000000000000000000000000 PUSH0 MSTORE PUSH1 0x32 PUSH1 0x4 MSTORE PUSH1 0x24 PUSH0 REVERT JUMPDEST PUSH32 0x4E487B7100000000000000000000000000000000000000000000000000000000 PUSH0 MSTORE PUSH1 0x22 PUSH1 0x4 MSTORE PUSH1 0x24 PUSH0 REVERT JUMPDEST PUSH0 PUSH1 0x2 DUP3 DIV SWAP1 POP PUSH1 0x1 DUP3 AND DUP1 PUSH2 0x764 JUMPI PUSH1 0x7F DUP3 AND SWAP2 POP JUMPDEST PUSH1 0x20 DUP3 LT DUP2 SUB PUSH2 0x777 JUMPI PUSH2 0x776 PUSH2 0x720 JUMP JUMPDEST JUMPDEST POP SWAP2 SWAP1 POP JUMP JUMPDEST PUSH0 DUP2 SWAP1 POP DUP2 PUSH0 MSTORE PUSH1 0x20 PUSH0 KECCAK256 SWAP1 POP SWAP2 SWAP1 POP JUMP JUMPDEST PUSH0 PUSH1 0x20 PUSH1 0x1F DUP4 ADD DIV SWAP1 POP SWAP2 SWAP1 POP JUMP JUMPDEST PUSH0 DUP3 DUP3 SHL SWAP1 POP SWAP3 SWAP2 POP POP JUMP JUMPDEST PUSH0 PUSH1 0x8 DUP4 MUL PUSH2 0x7D9 PUSH32 0xFFFFFFFFFFFFFFFFFFFFFFFFFFFFFFFFFFFFFFFFFFFFFFFFFFFFFFFFFFFFFFFF DUP3 PUSH2 0x79E JUMP JUMPDEST PUSH2 0x7E3 DUP7 DUP4 PUSH2 0x79E JUMP JUMPDEST SWAP6 POP DUP1 NOT DUP5 AND SWAP4 POP DUP1 DUP7 AND DUP5 OR SWAP3 POP POP POP SWAP4 SWAP3 POP POP POP JUMP JUMPDEST PUSH0 DUP2 SWAP1 POP SWAP2 SWAP1 POP JUMP JUMPDEST PUSH0 PUSH2 0x81E PUSH2 0x819 PUSH2 0x814 DUP5 PUSH2 0x3B0 JUMP JUMPDEST PUSH2 0x7FB JUMP JUMPDEST PUSH2 0x3B0 JUMP JUMPDEST SWAP1 POP SWAP2 SWAP1 POP JUMP JUMPDEST PUSH0 DUP2 SWAP1 POP SWAP2 SWAP1 POP JUMP JUMPDEST PUSH2 0x837 DUP4 PUSH2 0x804 JUMP JUMPDEST PUSH2 0x84B PUSH2 0x843 DUP3 PUSH2 0x825 JUMP JUMPDEST DUP5 DUP5 SLOAD PUSH2 0x7AA JUMP JUMPDEST DUP3 SSTORE POP POP POP POP JUMP JUMPDEST PUSH0 SWAP1 JUMP JUMPDEST PUSH2 0x85F PUSH2 0x853 JUMP JUMPDEST PUSH2 0x86A DUP2 DUP5 DUP5 PUSH2 0x82E JUMP JUMPDEST POP POP POP JUMP JUMPDEST JUMPDEST DUP2 DUP2 LT ISZERO PUSH2 0x88D JUMPI PUSH2 0x882 PUSH0 DUP3 PUSH2 0x857 JUMP JUMPDEST PUSH1 0x1 DUP2 ADD SWAP1 POP PUSH2 0x870 JUMP JUMPDEST POP POP JUMP JUMPDEST PUSH1 0x1F DUP3 GT ISZERO PUSH2 0x8D2 JUMPI PUSH2 0x8A3 DUP2 PUSH2 0x77D JUMP JUMPDEST PUSH2 0x8AC DUP5 PUSH2 0x78F JUMP JUMPDEST DUP2 ADD PUSH1 0x20 DUP6 LT ISZERO PUSH2 0x8BB JUMPI DUP2 SWAP1 POP JUMPDEST PUSH2 0x8CF PUSH2 0x8C7 DUP6 PUSH2 0x78F JUMP JUMPDEST DUP4 ADD DUP3 PUSH2 0x86F JUMP JUMPDEST POP POP JUMPDEST POP POP POP JUMP JUMPDEST PUSH0 DUP3 DUP3 SHR SWAP1 POP SWAP3 SWAP2 POP POP JUMP JUMPDEST PUSH0 PUSH2 0x8F2 PUSH0 NOT DUP5 PUSH1 0x8 MUL PUSH2 0x8D7 JUMP JUMPDEST NOT DUP1 DUP4 AND SWAP2 POP POP SWAP3 SWAP2 POP POP JUMP JUMPDEST PUSH0 PUSH2 0x90A DUP4 DUP4 PUSH2 0x8E3 JUMP JUMPDEST SWAP2 POP DUP3 PUSH1 0x2 MUL DUP3 OR SWAP1 POP SWAP3 SWAP2 POP POP JUMP JUMPDEST PUSH2 0x923 DUP3 PUSH2 0x40E JUMP JUMPDEST PUSH8 0xFFFFFFFFFFFFFFFF DUP2 GT ISZERO PUSH2 0x93C JUMPI PUSH2 0x93B PUSH2 0x4CE JUMP JUMPDEST JUMPDEST PUSH2 0x946 DUP3 SLOAD PUSH2 0x74D JUMP JUMPDEST PUSH2 0x951 DUP3 DUP3 DUP6 PUSH2 0x891 JUMP JUMPDEST PUSH0 PUSH1 0x20 SWAP1 POP PUSH1 0x1F DUP4 GT PUSH1 0x1 DUP2 EQ PUSH2 0x982 JUMPI PUSH0 DUP5 ISZERO PUSH2 0x970 JUMPI DUP3 DUP8 ADD MLOAD SWAP1 POP JUMPDEST PUSH2 0x97A DUP6 DUP3 PUSH2 0x8FF JUMP JUMPDEST DUP7 SSTORE POP PUSH2 0x9E1 JUMP JUMPDEST PUSH1 0x1F NOT DUP5 AND PUSH2 0x990 DUP7 PUSH2 0x77D JUMP JUMPDEST PUSH0 JUMPDEST DUP3 DUP2 LT ISZERO PUSH2 0x9B7 JUMPI DUP5 DUP10 ADD MLOAD DUP3 SSTORE PUSH1 0x1 DUP3 ADD SWAP2 POP PUSH1 0x20 DUP6 ADD SWAP5 POP PUSH1 0x20 DUP2 ADD SWAP1 POP PUSH2 0x992 JUMP JUMPDEST DUP7 DUP4 LT ISZERO PUSH2 0x9D4 JUMPI DUP5 DUP10 ADD MLOAD PUSH2 0x9D0 PUSH1 0x1F DUP10 AND DUP3 PUSH2 0x8E3 JUMP JUMPDEST DUP4 SSTORE POP JUMPDEST PUSH1 0x1 PUSH1 0x2 DUP9 MUL ADD DUP9 SSTORE POP POP POP JUMPDEST POP POP POP POP POP POP JUMP JUMPDEST PUSH0 DUP3 SWAP1 POP SWAP3 SWAP2 POP POP JUMP JUMPDEST PUSH2 0x9FD DUP4 DUP4 PUSH2 0x9E9 JUMP JUMPDEST PUSH8 0xFFFFFFFFFFFFFFFF DUP2 GT ISZERO PUSH2 0xA16 JUMPI PUSH2 0xA15 PUSH2 0x4CE JUMP JUMPDEST JUMPDEST PUSH2 0xA20 DUP3 SLOAD PUSH2 0x74D JUMP JUMPDEST PUSH2 0xA2B DUP3 DUP3 DUP6 PUSH2 0x891 JUMP JUMPDEST PUSH0 PUSH1 0x1F DUP4 GT PUSH1 0x1 DUP2 EQ PUSH2 0xA58 JUMPI PUSH0 DUP5 ISZERO PUSH2 0xA46 JUMPI DUP3 DUP8 ADD CALLDATALOAD SWAP1 POP JUMPDEST PUSH2 0xA50 DUP6 DUP3 PUSH2 0x8FF JUMP JUMPDEST DUP7 SSTORE POP PUSH2 0xAB7 JUMP JUMPDEST PUSH1 0x1F NOT DUP5 AND PUSH2 0xA66 DUP7 PUSH2 0x77D JUMP JUMPDEST PUSH0 JUMPDEST DUP3 DUP2 LT ISZERO PUSH2 0xA8D JUMPI DUP5 DUP10 ADD CALLDATALOAD DUP3 SSTORE PUSH1 0x1 DUP3 ADD SWAP2 POP PUSH1 0x20 DUP6 ADD SWAP5 POP PUSH1 0x20 DUP2 ADD SWAP1 POP PUSH2 0xA68 JUMP JUMPDEST DUP7 DUP4 LT ISZERO PUSH2 0xAAA JUMPI DUP5 DUP10 ADD CALLDATALOAD PUSH2 0xAA6 PUSH1 0x1F DUP10 AND DUP3 PUSH2 0x8E3 JUMP JUMPDEST DUP4 SSTORE POP JUMPDEST PUSH1 0x1 PUSH1 0x2 DUP9 MUL ADD DUP9 SSTORE POP POP POP JUMPDEST POP POP POP POP POP POP POP JUMP INVALID LOG2 PUSH5 0x6970667358 0x22 SLT KECCAK256 CALLER DELEGATECALL 0xD9 SWAP1 DUP12 0xBE GT TLOAD RETURN 0xCF 0x4E PUSH13 0xF0CA4497348B1CE81D63952F19 PUSH16 0x66B04695DAE264736F6C634300081900 CALLER "
				},
				"gasEstimates": {
					"creation": {
						"codeDepositCost": "561200",
						"executionCost": "592",
						"totalCost": "561792"
					},
					"external": {
						"create(string)": "infinite",
						"get(uint256)": "infinite",
						"todos(uint256)": "infinite",
						"toggleCompleted(uint256)": "28996",
						"updateText(uint256,string)": "infinite"
					}
				},
				"methodIdentifiers": {
					"create(string)": "b6a46b3b",
					"get(uint256)": "9507d39a",
					"todos(uint256)": "bc8bc2b4",
					"toggleCompleted(uint256)": "455f5024",
					"updateText(uint256,string)": "cd111614"
				}
			},
			"storageLayout": {
				"storage": [
					{
						"astId": 10,
						"contract": "Stracts/Stracts.sol:Todes",
						"label": "todos",
						"offset": 0,
						"slot": "0",
						"type": "t_array(t_struct(Todo)6_storage)dyn_storage"
					}
				],
				"types": {
					"t_array(t_struct(Todo)6_storage)dyn_storage": {
						"base": "t_struct(Todo)6_storage",
						"encoding": "dynamic_array",
						"label": "struct Todes.Todo[]",
						"numberOfBytes": "32"
					},
					"t_bool": {
						"encoding": "inplace",
						"label": "bool",
						"numberOfBytes": "1"
					},
					"t_string_storage": {
						"encoding": "bytes",
						"label": "string",
						"numberOfBytes": "32"
					},
					"t_struct(Todo)6_storage": {
						"encoding": "inplace",
						"label": "struct Todes.Todo",
						"members": [
							{
								"astId": 3,
								"contract": "Stracts/Stracts.sol:Todes",
								"label": "text",
								"offset": 0,
								"slot": "0",
								"type": "t_string_storage"
							},
							{
								"astId": 5,
								"contract": "Stracts/Stracts.sol:Todes",
								"label": "completed",
								"offset": 0,
								"slot": "1",
								"type": "t_bool"
							}
						],
						"numberOfBytes": "64"
					}
				}
			},
			"userdoc": {
				"kind": "user",
				"methods": {},
				"version": 1
			}
		}
	}
}