{
	"data": {
		"bytecode": {
			"linkReferences": {},
			"object": "6080604052348015600e575f80fd5b506104cb8061001c5f395ff3fe608060405234801561000f575f80fd5b506004361061003f575f3560e01c80631f1bd6921461004357806371e5ee5f1461004d5780637c43190a1461007d575b5f80fd5b61004b610099565b005b6100676004803603810190610062919061035b565b6101c1565b6040516100749190610395565b60405180910390f35b6100976004803603810190610092919061035b565b6101e0565b005b6040518060800160405280601760ff168152602001602260ff168152602001602d60ff168152602001603860ff168152505f9060046100d9929190610269565b506100e460026101e0565b60015f80815481106100f9576100f86103ae565b5b905f5260205f200154146101105761010f6103db565b5b60025f600181548110610126576101256103ae565b5b905f5260205f2001541461013d5761013c6103db565b5b60385f600281548110610153576101526103ae565b5b905f5260205f2001541461016a576101696103db565b5b60045f805490501461017f5761017e6103db565b5b6040518060200160405280600160ff168152505f9060016101a19291906102b9565b506101ab5f6101e0565b5f8080549050146101bf576101be6103db565b5b565b5f81815481106101cf575f80fd5b905f5260205f20015f915090505481565b5f8190505b81811015610241575f6001826101fb9190610435565b8154811061020c5761020b6103ae565b5b905f5260205f2001545f8281548110610228576102276103ae565b5b905f5260205f20018190555080806001019150506101e5565b505f80548061025357610252610468565b5b600190038181905f5260205f20015f9055905550565b828054828255905f5260205f209081019282156102a8579160200282015b828111156102a7578251829060ff16905591602001919060010190610287565b5b5090506102b59190610309565b5090565b828054828255905f5260205f209081019282156102f8579160200282015b828111156102f7578251829060ff169055916020019190600101906102d7565b5b5090506103059190610309565b5090565b5b80821115610320575f815f90555060010161030a565b5090565b5f80fd5b5f819050919050565b61033a81610328565b8114610344575f80fd5b50565b5f8135905061035581610331565b92915050565b5f602082840312156103705761036f610324565b5b5f61037d84828501610347565b91505092915050565b61038f81610328565b82525050565b5f6020820190506103a85f830184610386565b92915050565b7f4e487b71000000000000000000000000000000000000000000000000000000005f52603260045260245ffd5b7f4e487b71000000000000000000000000000000000000000000000000000000005f52600160045260245ffd5b7f4e487b71000000000000000000000000000000000000000000000000000000005f52601160045260245ffd5b5f61043f82610328565b915061044a83610328565b925082820190508082111561046257610461610408565b5b92915050565b7f4e487b71000000000000000000000000000000000000000000000000000000005f52603160045260245ffdfea2646970667358221220d8eb96ddbc72f94681a8a9bfbc2d83a4f1240b52ff407b38c1b13924de2b236964736f6c63430008190033",
			"opcodes": "PUSH1 0x80 PUSH1 0x40 MSTORE CALLVALUE DUP1 ISZERO PUSH1 0xE JUMPI PUSH0 DUP1 REVERT JUMPDEST POP PUSH2 0x4CB DUP1 PUSH2 0x1C PUSH0 CODECOPY PUSH0 RETURN INVALID PUSH1 0x80 PUSH1 0x40 MSTORE CALLVALUE DUP1 ISZERO PUSH2 0xF JUMPI PUSH0 DUP1 REVERT JUMPDEST POP PUSH1 0x4 CALLDATASIZE LT PUSH2 0x3F JUMPI PUSH0 CALLDATALOAD PUSH1 0xE0 SHR DUP1 PUSH4 0x1F1BD692 EQ PUSH2 0x43 JUMPI DUP1 PUSH4 0x71E5EE5F EQ PUSH2 0x4D JUMPI DUP1 PUSH4 0x7C43190A EQ PUSH2 0x7D JUMPI JUMPDEST PUSH0 DUP1 REVERT JUMPDEST PUSH2 0x4B PUSH2 0x99 JUMP JUMPDEST STOP JUMPDEST PUSH2 0x67 PUSH1 0x4 DUP1 CALLDATASIZE SUB DUP2 ADD SWAP1 PUSH2 0x62 SWAP2 SWAP1 PUSH2 0x35B JUMP JUMPDEST PUSH2 0x1C1 JUMP JUMPDEST PUSH1 0x40 MLOAD PUSH2 0x74 SWAP2 SWAP1 PUSH2 0x395 JUMP JUMPDEST PUSH1 0x40 MLOAD DUP1 SWAP2 SUB SWAP1 RETURN JUMPDEST PUSH2 0x97 PUSH1 0x4 DUP1 CALLDATASIZE SUB DUP2 ADD SWAP1 PUSH2 0x92 SWAP2 SWAP1 PUSH2 0x35B JUMP JUMPDEST PUSH2 0x1E0 JUMP JUMPDEST STOP JUMPDEST PUSH1 0x40 MLOAD DUP1 PUSH1 0x80 ADD PUSH1 0x40 MSTORE DUP1 PUSH1 0x17 PUSH1 0xFF AND DUP2 MSTORE PUSH1 0x20 ADD PUSH1 0x22 PUSH1 0xFF AND DUP2 MSTORE PUSH1 0x20 ADD PUSH1 0x2D PUSH1 0xFF AND DUP2 MSTORE PUSH1 0x20 ADD PUSH1 0x38 PUSH1 0xFF AND DUP2 MSTORE POP PUSH0 SWAP1 PUSH1 0x4 PUSH2 0xD9 SWAP3 SWAP2 SWAP1 PUSH2 0x269 JUMP JUMPDEST POP PUSH2 0xE4 PUSH1 0x2 PUSH2 0x1E0 JUMP JUMPDEST PUSH1 0x1 PUSH0 DUP1 DUP2 SLOAD DUP2 LT PUSH2 0xF9 JUMPI PUSH2 0xF8 PUSH2 0x3AE JUMP JUMPDEST JUMPDEST SWAP1 PUSH0 MSTORE PUSH1 0x20 PUSH0 KECCAK256 ADD SLOAD EQ PUSH2 0x110 JUMPI PUSH2 0x10F PUSH2 0x3DB JUMP JUMPDEST JUMPDEST PUSH1 0x2 PUSH0 PUSH1 0x1 DUP2 SLOAD DUP2 LT PUSH2 0x126 JUMPI PUSH2 0x125 PUSH2 0x3AE JUMP JUMPDEST JUMPDEST SWAP1 PUSH0 MSTORE PUSH1 0x20 PUSH0 KECCAK256 ADD SLOAD EQ PUSH2 0x13D JUMPI PUSH2 0x13C PUSH2 0x3DB JUMP JUMPDEST JUMPDEST PUSH1 0x38 PUSH0 PUSH1 0x2 DUP2 SLOAD DUP2 LT PUSH2 0x153 JUMPI PUSH2 0x152 PUSH2 0x3AE JUMP JUMPDEST JUMPDEST SWAP1 PUSH0 MSTORE PUSH1 0x20 PUSH0 KECCAK256 ADD SLOAD EQ PUSH2 0x16A JUMPI PUSH2 0x169 PUSH2 0x3DB JUMP JUMPDEST JUMPDEST PUSH1 0x4 PUSH0 DUP1 SLOAD SWAP1 POP EQ PUSH2 0x17F JUMPI PUSH2 0x17E PUSH2 0x3DB JUMP JUMPDEST JUMPDEST PUSH1 0x40 MLOAD DUP1 PUSH1 0x20 ADD PUSH1 0x40 MSTORE DUP1 PUSH1 0x1 PUSH1 0xFF AND DUP2 MSTORE POP PUSH0 SWAP1 PUSH1 0x1 PUSH2 0x1A1 SWAP3 SWAP2 SWAP1 PUSH2 0x2B9 JUMP JUMPDEST POP PUSH2 0x1AB PUSH0 PUSH2 0x1E0 JUMP JUMPDEST PUSH0 DUP1 DUP1 SLOAD SWAP1 POP EQ PUSH2 0x1BF JUMPI PUSH2 0x1BE PUSH2 0x3DB JUMP JUMPDEST JUMPDEST JUMP JUMPDEST PUSH0 DUP2 DUP2 SLOAD DUP2 LT PUSH2 0x1CF JUMPI PUSH0 DUP1 REVERT JUMPDEST SWAP1 PUSH0 MSTORE PUSH1 0x20 PUSH0 KECCAK256 ADD PUSH0 SWAP2 POP SWAP1 POP SLOAD DUP2 JUMP JUMPDEST PUSH0 DUP2 SWAP1 POP JUMPDEST DUP2 DUP2 LT ISZERO PUSH2 0x241 JUMPI PUSH0 PUSH1 0x1 DUP3 PUSH2 0x1FB SWAP2 SWAP1 PUSH2 0x435 JUMP JUMPDEST DUP2 SLOAD DUP2 LT PUSH2 0x20C JUMPI PUSH2 0x20B PUSH2 0x3AE JUMP JUMPDEST JUMPDEST SWAP1 PUSH0 MSTORE PUSH1 0x20 PUSH0 KECCAK256 ADD SLOAD PUSH0 DUP3 DUP2 SLOAD DUP2 LT PUSH2 0x228 JUMPI PUSH2 0x227 PUSH2 0x3AE JUMP JUMPDEST JUMPDEST SWAP1 PUSH0 MSTORE PUSH1 0x20 PUSH0 KECCAK256 ADD DUP2 SWAP1 SSTORE POP DUP1 DUP1 PUSH1 0x1 ADD SWAP2 POP POP PUSH2 0x1E5 JUMP JUMPDEST POP PUSH0 DUP1 SLOAD DUP1 PUSH2 0x253 JUMPI PUSH2 0x252 PUSH2 0x468 JUMP JUMPDEST JUMPDEST PUSH1 0x1 SWAP1 SUB DUP2 DUP2 SWAP1 PUSH0 MSTORE PUSH1 0x20 PUSH0 KECCAK256 ADD PUSH0 SWAP1 SSTORE SWAP1 SSTORE POP JUMP JUMPDEST DUP3 DUP1 SLOAD DUP3 DUP3 SSTORE SWAP1 PUSH0 MSTORE PUSH1 0x20 PUSH0 KECCAK256 SWAP1 DUP2 ADD SWAP3 DUP3 ISZERO PUSH2 0x2A8 JUMPI SWAP2 PUSH1 0x20 MUL DUP3 ADD JUMPDEST DUP3 DUP2 GT ISZERO PUSH2 0x2A7 JUMPI DUP3 MLOAD DUP3 SWAP1 PUSH1 0xFF AND SWAP1 SSTORE SWAP2 PUSH1 0x20 ADD SWAP2 SWAP1 PUSH1 0x1 ADD SWAP1 PUSH2 0x287 JUMP JUMPDEST JUMPDEST POP SWAP1 POP PUSH2 0x2B5 SWAP2 SWAP1 PUSH2 0x309 JUMP JUMPDEST POP SWAP1 JUMP JUMPDEST DUP3 DUP1 SLOAD DUP3 DUP3 SSTORE SWAP1 PUSH0 MSTORE PUSH1 0x20 PUSH0 KECCAK256 SWAP1 DUP2 ADD SWAP3 DUP3 ISZERO PUSH2 0x2F8 JUMPI SWAP2 PUSH1 0x20 MUL DUP3 ADD JUMPDEST DUP3 DUP2 GT ISZERO PUSH2 0x2F7 JUMPI DUP3 MLOAD DUP3 SWAP1 PUSH1 0xFF AND SWAP1 SSTORE SWAP2 PUSH1 0x20 ADD SWAP2 SWAP1 PUSH1 0x1 ADD SWAP1 PUSH2 0x2D7 JUMP JUMPDEST JUMPDEST POP SWAP1 POP PUSH2 0x305 SWAP2 SWAP1 PUSH2 0x309 JUMP JUMPDEST POP SWAP1 JUMP JUMPDEST JUMPDEST DUP1 DUP3 GT ISZERO PUSH2 0x320 JUMPI PUSH0 DUP2 PUSH0 SWAP1 SSTORE POP PUSH1 0x1 ADD PUSH2 0x30A JUMP JUMPDEST POP SWAP1 JUMP JUMPDEST PUSH0 DUP1 REVERT JUMPDEST PUSH0 DUP2 SWAP1 POP SWAP2 SWAP1 POP JUMP JUMPDEST PUSH2 0x33A DUP2 PUSH2 0x328 JUMP JUMPDEST DUP2 EQ PUSH2 0x344 JUMPI PUSH0 DUP1 REVERT JUMPDEST POP JUMP JUMPDEST PUSH0 DUP2 CALLDATALOAD SWAP1 POP PUSH2 0x355 DUP2 PUSH2 0x331 JUMP JUMPDEST SWAP3 SWAP2 POP POP JUMP JUMPDEST PUSH0 PUSH1 0x20 DUP3 DUP5 SUB SLT ISZERO PUSH2 0x370 JUMPI PUSH2 0x36F PUSH2 0x324 JUMP JUMPDEST JUMPDEST PUSH0 PUSH2 0x37D DUP5 DUP3 DUP6 ADD PUSH2 0x347 JUMP JUMPDEST SWAP2 POP POP SWAP3 SWAP2 POP POP JUMP JUMPDEST PUSH2 0x38F DUP2 PUSH2 0x328 JUMP JUMPDEST DUP3 MSTORE POP POP JUMP JUMPDEST PUSH0 PUSH1 0x20 DUP3 ADD SWAP1 POP PUSH2 0x3A8 PUSH0 DUP4 ADD DUP5 PUSH2 0x386 JUMP JUMPDEST SWAP3 SWAP2 POP POP JUMP JUMPDEST PUSH32 0x4E487B7100000000000000000000000000000000000000000000000000000000 PUSH0 MSTORE PUSH1 0x32 PUSH1 0x4 MSTORE PUSH1 0x24 PUSH0 REVERT JUMPDEST PUSH32 0x4E487B7100000000000000000000000000000000000000000000000000000000 PUSH0 MSTORE PUSH1 0x1 PUSH1 0x4 MSTORE PUSH1 0x24 PUSH0 REVERT JUMPDEST PUSH32 0x4E487B7100000000000000000000000000000000000000000000000000000000 PUSH0 MSTORE PUSH1 0x11 PUSH1 0x4 MSTORE PUSH1 0x24 PUSH0 REVERT JUMPDEST PUSH0 PUSH2 0x43F DUP3 PUSH2 0x328 JUMP JUMPDEST SWAP2 POP PUSH2 0x44A DUP4 PUSH2 0x328 JUMP JUMPDEST SWAP3 POP DUP3 DUP3 ADD SWAP1 POP DUP1 DUP3 GT ISZERO PUSH2 0x462 JUMPI PUSH2 0x461 PUSH2 0x408 JUMP JUMPDEST JUMPDEST SWAP3 SWAP2 POP POP JUMP JUMPDEST PUSH32 0x4E487B7100000000000000000000000000000000000000000000000000000000 PUSH0 MSTORE PUSH1 0x31 PUSH1 0x4 MSTORE PUSH1 0x24 PUSH0 REVERT INVALID LOG2 PUSH5 0x6970667358 0x22 SLT KECCAK256 0xD8 0xEB SWAP7 0xDD 0xBC PUSH19 0xF94681A8A9BFBC2D83A4F1240B52FF407B38C1 0xB1 CODECOPY 0x24 0xDE 0x2B 0x23 PUSH10 0x64736F6C634300081900 CALLER "
		},
		"gasEstimates": {
			"creation": {
				"codeDepositCost": "245400",
				"executionCost": "285",
				"totalCost": "245685"
			},
			"external": {
				"arr(uint256)": "infinite",
				"removebyshifting(uint256)": "29759",
				"text()": "infinite"
			}
		},
		"methodIdentifiers": {
			"arr(uint256)": "71e5ee5f",
			"removebyshifting(uint256)": "7c43190a",
			"text()": "1f1bd692"
		}
	},
	"abi": [
		{
			"inputs": [
				{
					"internalType": "uint256",
					"name": "",
					"type": "uint256"
				}
			],
			"name": "arr",
			"outputs": [
				{
					"internalType": "uint256",
					"name": "",
					"type": "uint256"
				}
			],
			"stateMutability": "view",
			"type": "function"
		},
		{
			"inputs": [
				{
					"internalType": "uint256",
					"name": "_index",
					"type": "uint256"
				}
			],
			"name": "removebyshifting",
			"outputs": [],
			"stateMutability": "nonpayable",
			"type": "function"
		},
		{
			"inputs": [],
			"name": "text",
			"outputs": [],
			"stateMutability": "nonpayable",
			"type": "function"
		}
	]
}